901ALAST008D61370402N        3490001000000000ALABAMA HIGHWAY PATROL  ALA   XXXXXXXXXXXX
901ALDI0037 61349797N        3490001000000000POARCH CREEK TRIBAL     ALA   XXXXXXXXXXXX
901AL001009A61377950N        3070001000145288JEFFERSON               ALA   XXXXXXXXXXXX
901AL001014 61304914N        3070001000027240BESSEMER                ALA   XXXXXXXXXXXX
901AL001022 61305280Y        3070001000212001BIRMINGHAM              ALA   XXXXXXXXXXXX
901AL001035 61341490N        3070001000020354MOUNTAIN BROOK          ALA   XXXXXXXXXXXX
901AL001045 61319944N        3070001000011003FAIRFIELD               ALA   XXXXXXXXXXXX
901AL001055 61322692N        3070001000013830GARDENDALE              ALA   XXXXXXXXXXXX
901AL001065 61333798N        3070001000011914LEEDS                   ALA   XXXXXXXXXXXX
901AL001076 61339558N        3070001000005310MIDFIELD                ALA   XXXXXXXXXXXX
901AL001086 61360972N        3070001000006323TARRANT                 ALA   XXXXXXXXXXXX
901AL001094 61363738N        3070001000034103VESTAVIA HILLS          ALA   XXXXXXXXXXXX
901AL001104 61328404N        3070001000025299HOMEWOOD                ALA   XXXXXXXXXXXX
901AL001116 61322428N        3070001000008633FULTONDALE              ALA   XXXXXXXXXXXX
901AL001123 61328506Y        3070001000084139HOOVER                  ALA   XXXXXXXXXXXX
901AL001135 61329778N        3070001000012452IRONDALE                ALA   XXXXXXXXXXXX
901AL001145 61349602N        3070001000010463PLEASANT GROVE          ALA   XXXXXXXXXXXX
901AL001157 61353358NAL00100 3070000000000000ROOSEVELT CITY          ALA   XXXXXXXXXXXX
901AL001167 61324504N        3070001000002143GRAYSVILLE              ALA   XXXXXXXXXXXX
901AL001177 61307390NAL00100 3070000000000000BROWNSVILLE             ALA   XXXXXXXXXXXX
901AL001186 61306912N        3070001000002911BRIGHTON                ALA   XXXXXXXXXXXX
901AL001195 61328930N        3070001000015956HUEYTOWN                ALA   XXXXXXXXXXXX
901AL001207 61334716N        3070001000002190LIPSCOMB                ALA   XXXXXXXXXXXX
901AL001215 61362304N        3070001000020235TRUSSVILLE              ALA   XXXXXXXXXXXX
901AL001226 61300246N        3070001000004481ADAMSVILLE              ALA   XXXXXXXXXXXX
901AL001236 61364704N        3070001000003230WARRIOR                 ALA   XXXXXXXXXXXX
901AL001247 61397036N        3070001000000000UNIV OF AL: BIRMINGHAM  ALA   XXXXXXXXXXXX
901AL001257 61362022N        3070001000000649TRAFFORD                ALA   XXXXXXXXXXXX
901AL001267 61341214N        3070001000001897MORRIS                  ALA   XXXXXXXXXXXX
901AL001277 61307314N        3070001000001355BROOKSIDE               ALA   XXXXXXXXXXXX
901AL001287 61309114NAL00100 3070000000000055CARDIFF                 ALA   XXXXXXXXXXXX
901AL001296 61331620N        3070001000002801KIMBERLY                ALA   XXXXXXXXXXXX
901AL001307 61313860NAL00100 3070000000000261COUNTY LINE             ALA   XXXXXXXXXXXX
901AL001327 61360928N        3070001000000000TANNEHILL IRONWORKS H SPALA   XXXXXXXXXXXX
901AL001347 61397021N        3070001000000000JEFFERSON STATE COMM COLALA   XXXXXXXXXXXX
901AL001357 61344068N        3070001000000000NORFOLK SOUTHERN RAILWAYALA   XXXXXXXXXXXX
901AL001417 61397024N        3070001000000000SAMFORD UNIVERSITY      ALA   XXXXXXXXXXXX
901AL001457 61362307N        3070001000000000TRUSSVILLE FD F&EXP I U ALA   XXXXXXXXXXXX
901AL002009A61380431N        3490001000104283MOBILE                  ALA   XXXXXXXXXXXX
901AL002011C61340392Y        3490001000250557MOBILE                  ALA   XXXXXXXXXXXX
901AL002025 61350718N        3490001000022350PRICHARD                ALA   XXXXXXXXXXXX
901AL002036 61311052N        3490001000006001CHICKASAW               ALA   XXXXXXXXXXXX
901AL002046 61311352N        3490001000003881CITRONELLE              ALA   XXXXXXXXXXXX
901AL002055 61355428N        3490001000013505SARALAND                ALA   XXXXXXXXXXXX
901AL002066 61303666N        3490001000002647BAYOU LA BATRE          ALA   XXXXXXXXXXXX
901AL002076 61355506N        3490001000006125SATSUMA                 ALA   XXXXXXXXXXXX
901AL002087 61341928N        3490001000001561MOUNT VERNON            ALA   XXXXXXXXXXXX
901AL002097 61367848NAL00200 3490000000000000WILMER                  ALA   XXXXXXXXXXXX
901AL002127 61314142N        3490001000001924CREOLA                  ALA   XXXXXXXXXXXX
901AL002147 61397058N        3490001000000000UNIV OF SOUTH ALABAMA   ALA   XXXXXXXXXXXX
901AL002157 61315105N        3490001000001236DAUPHIN ISLAND          ALA   XXXXXXXXXXXX
901AL002177 61397012N        3490001000000000BISHOP STATE COMMUNITY CALA   XXXXXXXXXXXX
901AL003FA7 61397016N        3490001000000000FAULKNER UNIVERSITY     ALA   XXXXXXXXXXXX
901AL003009B61380596N        3490001000025141MONTGOMERY              ALA   XXXXXXXXXXXX
901AL003012 61340770Y        3490001000205087MONTGOMERY              ALA   XXXXXXXXXXXX
901AL003039E61370398N        3490001000000000AL CONSER DPT MARINE POLALA   XXXXXXXXXXXX
901AL003049D61370396N        3490001000000000AL ALC BEV CONTROL BOARDALA   XXXXXXXXXXXX
901AL003059D61370399N        3490001000000000AL DEPT OF MENTAL HEALTHALA   XXXXXXXXXXXX
901AL003067 61397007N        3490001000000000ALABAMA STATE UNIVERSITYALA   XXXXXXXXXXXX
901AL003077 61397010N        3490001000000000AUBURN UNIV, MONTGOMERY ALA   XXXXXXXXXXXX
901AL003089D61370401N        3490001000000000AL PUB SERV COMM ENF DIVALA   XXXXXXXXXXXX
901AL003109E61370400N        3490001000000000AL FORESTRY CMSN LE SECTALA   XXXXXXXXXXXX
901AL003139D61384457N        3490001000000000STATE CAPITOL POLICE    ALA   XXXXXXXXXXXX
901AL003149E61384459N        3490001000000000STATE FIRE MARSHAL      ALA   XXXXXXXXXXXX
901AL003197 61311357NAL00301 3490000000000000CITY MNTGMRY HUSNG AU IUALA   XXXXXXXXXXXX
901AL003209E61370397N        3490001000000000AL CRIM JUS INF C INV UNALA   XXXXXXXXXXXX
901AL003227 61303207NAL00301 3490000000000000BAPTIST MEDICAL CENTER  ALA   XXXXXXXXXXXX
901AL004009C61370924N        3490001000021474AUTAUGA                 ALA   XXXXXXXXXXXX
901AL004014 61350634N        3490001000035154PRATTVILLE              ALA   XXXXXXXXXXXX
901AL004027 61302748N        3490001000000885AUTAUGAVILLE            ALA   XXXXXXXXXXXX
901AL005009B61370978N        3490001000095295BALDWIN                 ALA   XXXXXXXXXXXX
901AL005016 61303655N        3490001000008398BAY MINETTE             ALA   XXXXXXXXXXXX
901AL005025 61320058Y        3490001000016847FAIRHOPE                ALA   XXXXXXXXXXXX
901AL005035 61321144Y        3490001000015615FOLEY                   ALA   XXXXXXXXXXXX
901AL005045 61325356N        3490001000010233GULF SHORES             ALA   XXXXXXXXXXXX
901AL005056 61352800N        3490001000005629ROBERTSDALE             ALA   XXXXXXXXXXXX
901AL005067 61335868N        3490001000001694LOXLEY                  ALA   XXXXXXXXXXXX
901AL005077 61357210N        3490001000000736SILVERHILL              ALA   XXXXXXXXXXXX
901AL005085 61315030Y        3490001000023204DAPHNE                  ALA   XXXXXXXXXXXX
901AL005097 61360210N        3490001000000938SUMMERDALE              ALA   XXXXXXXXXXXX
901AL005107 61318309N        3490001000001595ELBERTA                 ALA   XXXXXXXXXXXX
901AL005117 61397015N        3490001000000000FAULKNER STATE COMMNTY CALA   XXXXXXXXXXXX
901AL005126 61346305N        3490001000005674ORANGE BEACH            ALA   XXXXXXXXXXXX
901AL005136 61358653N        3490001000007464SPANISH FORT            ALA   XXXXXXXXXXXX
901AL006008D61371035N        3490001000008893BARBOUR                 ALA   XXXXXXXXXXXX
901AL006015 61319560N        3490001000012896EUFAULA                 ALA   XXXXXXXXXXXX
901AL006026 61311634N        3490001000002967CLAYTON                 ALA   XXXXXXXXXXXX
901AL006037 61312102N        3490001000001612CLIO                    ALA   XXXXXXXXXXXX
901AL006047 61335598N        3490001000000500LOUISVILLE              ALA   XXXXXXXXXXXX
901AL006077 61302991N        3490001000000271BAKER HILL              ALA   XXXXXXXXXXXX
901AL007009C61371398N        3070001000012249BIBB                    ALA   XXXXXXXXXXXX
901AL007016 61310158N        3070001000002708CENTREVILLE             ALA   XXXXXXXXXXXX
901AL007026 61306630N        3070001000004894BRENT                   ALA   XXXXXXXXXXXX
901AL007037 61365952N        3070001000001260WEST BLOCTON            ALA   XXXXXXXXXXXX
901AL007047 61368763N        3070001000001446WOODSTOCK               ALA   XXXXXXXXXXXX
901AL008009B61371575N        3070001000047026BLOUNT                  ALA   XXXXXXXXXXXX
901AL008016 61346170N        3070001000006661ONEONTA                 ALA   XXXXXXXXXXXX
901AL008027 61305694N        3070001000001697BLOUNTSVILLE            ALA   XXXXXXXXXXXX
901AL008037 61311820N        3070001000001320CLEVELAND               ALA   XXXXXXXXXXXX
901AL008047 61357618N        3070001000000845SNEAD                   ALA   XXXXXXXXXXXX
901AL008057 61327609N        3070001000000419HIGHLAND LAKE           ALA   XXXXXXXXXXXX
901AL009008D61372010N        3490001000006604BULLOCK                 ALA   XXXXXXXXXXXX
901AL009016 61362826N        3490001000003736UNION SPRINGS           ALA   XXXXXXXXXXXX
901AL010008C61372079N        3490001000010111BUTLER                  ALA   XXXXXXXXXXXX
901AL010016 61324888N        3490001000007820GREENVILLE              ALA   XXXXXXXXXXXX
901AL010027 61323106N        3490001000001666GEORGIANA               ALA   XXXXXXXXXXXX
901AL010037 61338520N        3490001000000510MCKENZIE                ALA   XXXXXXXXXXXX
901AL011009B61372208N        3070001000055525CALHOUN                 ALA   XXXXXXXXXXXX
901AL011015 61301488Y        3070001000022648ANNISTON                ALA   XXXXXXXXXXXX
901AL011025 61330138Y        3070001000012385JACKSONVILLE            ALA   XXXXXXXXXXXX
901AL011036 61348894N        3070001000004777PIEDMONT                ALA   XXXXXXXXXXXX
901AL011046 61365568N        3070001000003079WEAVER                  ALA   XXXXXXXXXXXX
901AL011055 61346866Y        3070001000021261OXFORD                  ALA   XXXXXXXXXXXX
901AL011067 61328008NAL01100 3070000000000759HOBSON CITY             ALA   XXXXXXXXXXXX
901AL011077 61345798N        3070001000001166OHATCHEE                ALA   XXXXXXXXXXXX
901AL011087 61397018N        3070001000000000JACKSONVILLE STATE UNIV ALA   XXXXXXXXXXXX
901AL012008C61372688N        3490001000015161CHAMBERS                ALA   XXXXXXXXXXXX
901AL012016 61332226N        3490001000002982LAFAYETTE               ALA   XXXXXXXXXXXX
901AL012026 61333078N        3490001000006424LANETT                  ALA   XXXXXXXXXXXX
901AL012046 61363288N        3490001000009468VALLEY                  ALA   XXXXXXXXXXXX
901AL013008C61372880N        3070001000019569CHEROKEE                ALA   XXXXXXXXXXXX
901AL013016 61310146N        3070001000003603CENTRE                  ALA   XXXXXXXXXXXX
901AL013027 61309828N        3070001000001814CEDAR BLUFF             ALA   XXXXXXXXXXXX
901AL013037 61333802N        3070001000001020LEESBURG                ALA   XXXXXXXXXXXX
901AL014009B61372973N        3490001000029748CHILTON                 ALA   XXXXXXXXXXXX
901AL014016 61311370N        3490001000008682CLANTON                 ALA   XXXXXXXXXXXX
901AL014027 61337224N        3490001000000706MAPLESVILLE             ALA   XXXXXXXXXXXX
901AL014036 61330474N        3490001000002601JEMISON                 ALA   XXXXXXXXXXXX
901AL014047 61361510N        3490001000002008THORSBY                 ALA   XXXXXXXXXXXX
901AL015008C61373003N        3490001000011052CHOCTAW                 ALA   XXXXXXXXXXXX
901AL015017 61308082N        3490001000001850BUTLER                  ALA   XXXXXXXXXXXX
901AL015027 61323280NAL01500 3490000000000211GILBERTOWN              ALA   XXXXXXXXXXXX
901AL015037 61348288N        3490001000000217PENNINGTON              ALA   XXXXXXXXXXXX
901AL015047 61357156N        3490001000000444SILAS                   ALA   XXXXXXXXXXXX
901AL015057 61361999NAL01500 3490000000000134TOXEY                   ALA   XXXXXXXXXXXX
901AL016008C61373150N        3490001000013999CLARKE                  ALA   XXXXXXXXXXXX
901AL016016 61330012N        3490001000005038JACKSON                 ALA   XXXXXXXXXXXX
901AL016026 61361440N        3490001000004068THOMASVILLE             ALA   XXXXXXXXXXXX
901AL016037 61325236N        3490001000001513GROVE HILL              ALA   XXXXXXXXXXXX
901AL016047 61322386NAL01600 3490000000000263FULTON                  ALA   XXXXXXXXXXXX
901AL016067 61312387N        3490001000000342COFFEEVILLE             ALA   XXXXXXXXXXXX
901AL017008D61373201N        3070001000009078CLAY                    ALA   XXXXXXXXXXXX
901AL017017 61302088N        3070001000001926ASHLAND                 ALA   XXXXXXXXXXXX
901AL017027 61334686N        3070001000002283LINEVILLE               ALA   XXXXXXXXXXXX
901AL018008C61373294N        3070001000010931CLEBURNE                ALA   XXXXXXXXXXXX
901AL018016 61327084N        3070001000003449HEFLIN                  ALA   XXXXXXXXXXXX
901AL018027 61351312N        3070001000000405RANBURNE                ALA   XXXXXXXXXXXX
901AL019008C61373414N        3490001000018300COFFEE                  ALA   XXXXXXXXXXXX
901AL019016 61318306N        3490001000003955ELBA                    ALA   XXXXXXXXXXXX
901AL019024 61319272N        3490001000028145ENTERPRISE              ALA   XXXXXXXXXXXX
901AL019037 61342984N        3490001000001166NEW BROCKTON            ALA   XXXXXXXXXXXX
901AL019047 61331842N        3490001000000545KINSTON                 ALA   XXXXXXXXXXXX
901AL019057 61397014NAL01901 3490000000000000ENTERPRISE ST JUNIOR CO ALA   XXXXXXXXXXXX
901AL020009C61373426N        3070001000020816COLBERT                 ALA   XXXXXXXXXXXX
901AL020016 61356622N        3070001000009012SHEFFIELD               ALA   XXXXXXXXXXXX
901AL020026 61362502N        3070001000008398TUSCUMBIA               ALA   XXXXXXXXXXXX
901AL020035 61342210Y        3070001000013431MUSCLE SHOALS           ALA   XXXXXXXXXXXX
901AL020047 61310686N        3070001000001034CHEROKEE                ALA   XXXXXXXXXXXX
901AL020057 61333900N        3070001000000724LEIGHTON                ALA   XXXXXXXXXXXX
901AL020067 61334926N        3070001000001003LITTLEVILLE             ALA   XXXXXXXXXXXX
901AL020087 61397022N        3070001000000000NORTHWEST-SHOALS COMM COALA   XXXXXXXXXXXX
901AL021008D61373606N        3490001000008202CONECUH                 ALA   XXXXXXXXXXXX
901AL021016 61319776N        3490001000003843EVERGREEN               ALA   XXXXXXXXXXXX
901AL021027 61309663N        3490001000000579CASTLEBERRY             ALA   XXXXXXXXXXXX
901AL021037 61351877N        3490001000000276REPTON                  ALA   XXXXXXXXXXXX
901AL022008D61373666N        3490001000008954COOSA                   ALA   XXXXXXXXXXXX
901AL022017 61323904N        3490001000001371GOODWATER               ALA   XXXXXXXXXXXX
901AL022027 61352950N        3490001000000452ROCKFORD                ALA   XXXXXXXXXXXX
901AL023008C61373708N        3490001000018477COVINGTON               ALA   XXXXXXXXXXXX
901AL023016 61301326N        3490001000009079ANDALUSIA               ALA   XXXXXXXXXXXX
901AL023026 61346248N        3490001000006698OPP                     ALA   XXXXXXXXXXXX
901AL023037 61320952N        3490001000001988FLORALA                 ALA   XXXXXXXXXXXX
901AL023047 61322637N        3490001000000223GANTT                   ALA   XXXXXXXXXXXX
901AL023057 61351684N        3490001000000491RED LEVEL               ALA   XXXXXXXXXXXX
901AL023067 61335058N        3490001000000520LOCKHART                ALA   XXXXXXXXXXXX
901AL023077 61352575N        3490001000000530RIVER FALLS             ALA   XXXXXXXXXXXX
901AL023087 61300026N        349000100000000022ND JUD CIRCUIT DRUG TFALA   XXXXXXXXXXXX
901AL024008D61373795N        3490001000009943CRENSHAW                ALA   XXXXXXXXXXXX
901AL024016 61336060N        3490001000002863LUVERNE                 ALA   XXXXXXXXXXXX
901AL024027 61306498N        3490001000000820BRANTLEY                ALA   XXXXXXXXXXXX
901AL024037 61316638N        3490001000000336DOZIER                  ALA   XXXXXXXXXXXX
901AL024047 61323666N        3490001000000190GLENWOOD                ALA   XXXXXXXXXXXX
901AL025008B61373843N        3070001000062328CULLMAN                 ALA   XXXXXXXXXXXX
901AL025015 61314568N        3070001000014881CULLMAN                 ALA   XXXXXXXXXXXX
901AL025026 61325992N        3070001000003173HANCEVILLE              ALA   XXXXXXXXXXXX
901AL025037 61322650NAL02500 3070000000000489GARDEN CITY             ALA   XXXXXXXXXXXX
901AL025047 61323865NAL02500 3070000000002255GOOD HOPE               ALA   XXXXXXXXXXXX
901AL026008C61374002N        3490001000020164DALE                    ALA   XXXXXXXXXXXX
901AL026015 61346974N        3490001000014897OZARK                   ALA   XXXXXXXXXXXX
901AL026026 61314778N        3490001000005260DALEVILLE               ALA   XXXXXXXXXXXX
901AL026037 61334122N        3490001000002092LEVEL PLAINS            ALA   XXXXXXXXXXXX
901AL026047 61342354N        3490001000000353NAPIER FIELD            ALA   XXXXXXXXXXXX
901AL026057 61343716N        3490001000001509NEWTON                  ALA   XXXXXXXXXXXX
901AL026067 61339592N        3490001000002476MIDLAND CITY            ALA   XXXXXXXXXXXX
901AL026077 61349050N        3490001000000653PINCKARD                ALA   XXXXXXXXXXXX
901AL026087 61301860N        3490001000000760ARITON                  ALA   XXXXXXXXXXXX
901AL026097 61311622N        3490001000000588CLAYHATCHEE             ALA   XXXXXXXXXXXX
901AL027008C61374014N        3490001000022458DALLAS                  ALA   XXXXXXXXXXXX
901AL027015 61356202N        3490001000020094SELMA                   ALA   XXXXXXXXXXXX
901AL027027 61397061N        3490001000000000WALLACE COMM COL: SELMA ALA   XXXXXXXXXXXX
901AL028008B61374211N        3070001000038952DE KALB                 ALA   XXXXXXXXXXXX
901AL028015 61321510N        3070001000014103FORT PAYNE              ALA   XXXXXXXXXXXX
901AL028027 61312678N        3070001000001978COLLINSVILLE            ALA   XXXXXXXXXXXX
901AL028037 61323112N        3070001000000900GERALDINE               ALA   XXXXXXXXXXXX
901AL028047 61327228N        3070001000002343HENAGAR                 ALA   XXXXXXXXXXXX
901AL028057 61350574N        3070001000000955POWELL                  ALA   XXXXXXXXXXXX
901AL028067 61338997N        3070001000000364MENTONE                 ALA   XXXXXXXXXXXX
901AL028076 61351240N        3070001000004989RAINSVILLE              ALA   XXXXXXXXXXXX
901AL028087 61325866N        3070001000000485HAMMONDVILLE            ALA   XXXXXXXXXXXX
901AL028107 61314394N        3070001000001850CROSSVILLE              ALA   XXXXXXXXXXXX
901AL028117 61322446N        3070001000001025FYFFE                   ALA   XXXXXXXXXXXX
901AL028127 61360720N        3070001000001858SYLVANIA                ALA   XXXXXXXXXXXX
901AL028137 61363342N        3070001000000554VALLEY HEAD             ALA   XXXXXXXXXXXX
901AL028147 61329364N        3070001000000718IDER                    ALA   XXXXXXXXXXXX
901AL029009B61375121N        3490001000051583ELMORE                  ALA   XXXXXXXXXXXX
901AL029016 61367038N        3490001000007239WETUMPKA                ALA   XXXXXXXXXXXX
901AL029026 61360858N        3490001000004830TALLASSEE               ALA   XXXXXXXXXXXX
901AL029037 61318006N        3490001000001015ECLECTIC                ALA   XXXXXXXXXXXX
901AL029047 61313381N        3490001000001233COOSADA                 ALA   XXXXXXXXXXXX
901AL029065 61339828N        3490001000015042MILLBROOK               ALA   XXXXXXXXXXXX
901AL029077 61310127N        3490001000000000CENTRAL AL DRUG TASK FORALA   XXXXXXXXXXXX
901AL030008C61375190N        3490001000018597ESCAMBIA                ALA   XXXXXXXXXXXX
901AL030015 61302412N        3490001000010099ATMORE                  ALA   XXXXXXXXXXXX
901AL030026 61306708N        3490001000005331BREWTON                 ALA   XXXXXXXXXXXX
901AL030037 61317340N        3490001000002437EAST BREWTON            ALA   XXXXXXXXXXXX
901AL030047 61320940N        3490001000001423FLOMATON                ALA   XXXXXXXXXXXX
901AL031009B61375265N        3070001000030590ETOWAH                  ALA   XXXXXXXXXXXX
901AL031016 61302424N        3070001000005999ATTALLA                 ALA   XXXXXXXXXXXX
901AL031024 61322458Y        3070001000036610GADSDEN                 ALA   XXXXXXXXXXXX
901AL031046 61323478N        3070001000005222GLENCOE                 ALA   XXXXXXXXXXXX
901AL031056 61351216N        3070001000009683RAINBOW CITY            ALA   XXXXXXXXXXXX
901AL031066 61328068N        3070001000004361HOKES BLUFF             ALA   XXXXXXXXXXXX
901AL031076 61358554N        3070001000008513SOUTHSIDE               ALA   XXXXXXXXXXXX
901AL031087 61355476N        3070001000001755SARDIS CITY             ALA   XXXXXXXXXXXX
901AL031097 61301044NAL03100 3070000000000932ALTOONA                 ALA   XXXXXXXXXXXX
901AL031107 61364394N        3070001000000697WALNUT GROVE            ALA   XXXXXXXXXXXX
901AL031229D61375266N        3070001000000000ETOWAH CTY DRG ENFRCMT UALA   XXXXXXXXXXXX
901AL032008C61375352N        3070001000010490FAYETTE                 ALA   XXXXXXXXXXXX
901AL032016 61320514N        3070001000004530FAYETTE                 ALA   XXXXXXXXXXXX
901AL032027 61304848N        3070001000001124BERRY                   ALA   XXXXXXXXXXXX
901AL033008C61375616N        3070001000017271FRANKLIN                ALA   XXXXXXXXXXXX
901AL033016 61353970N        3070001000009844RUSSELLVILLE            ALA   XXXXXXXXXXXX
901AL033027 61348768N        3070001000001214PHIL CAMPBELL           ALA   XXXXXXXXXXXX
901AL033036 61351606N        3070001000003151RED BAY                 ALA   XXXXXXXXXXXX
901AL033047 61363912NAL03300 3070000000000358VINA                    ALA   XXXXXXXXXXXX
901AL033057 61328020N        3070001000000286HODGES                  ALA   XXXXXXXXXXXX
901AL034009C61376066N        3490001000015870GENEVA                  ALA   XXXXXXXXXXXX
901AL034016 61322980N        3490001000004501GENEVA                  ALA   XXXXXXXXXXXX
901AL034027 61354882N        3490001000001940SAMSON                  ALA   XXXXXXXXXXXX
901AL034036 61326466N        3490001000002653HARTFORD                ALA   XXXXXXXXXXXX
901AL034047 61357480N        3490001000001993SLOCOMB                 ALA   XXXXXXXXXXXX
901AL034057 61312384NAL03400 3490000000000229COFFEE SPRINGS          ALA   XXXXXXXXXXXX
901AL035008D61376470N        3070001000005333GREENE                  ALA   XXXXXXXXXXXX
901AL035016 61319662N        3070001000002871EUTAW                   ALA   XXXXXXXXXXXX
901AL035027 61321306N        3070001000000629FORKLAND                ALA   XXXXXXXXXXXX
901AL036009C61376660N        3490001000011165HALE                    ALA   XXXXXXXXXXXX
901AL036017 61324810N        3490001000002418GREENSBORO              ALA   XXXXXXXXXXXX
901AL036027 61341472N        3490001000002445MOUNDVILLE              ALA   XXXXXXXXXXXX
901AL037009D61377158N        3490001000009410HENRY                   ALA   XXXXXXXXXXXX
901AL037016 61300030N        3490001000002645ABBEVILLE               ALA   XXXXXXXXXXXX
901AL037026 61326988N        3490001000004694HEADLAND                ALA   XXXXXXXXXXXX
901AL037037 61343836N        3490001000000526NEWVILLE                ALA   XXXXXXXXXXXX
901AL038009B61377428N        3490001000027032HOUSTON                 ALA   XXXXXXXXXXXX
901AL038013 61316458Y        3490001000067811DOTHAN                  ALA   XXXXXXXXXXXX
901AL038027 61302082N        3490001000002177ASHFORD                 ALA   XXXXXXXXXXXX
901AL038037 61323946NAL03800 3490000000000331GORDON                  ALA   XXXXXXXXXXXX
901AL038047 61312798N        3490001000000746COLUMBIA                ALA   XXXXXXXXXXXX
901AL038057 61313788N        3490001000001295COTTONWOOD              ALA   XXXXXXXXXXXX
901AL038067 61331830N        3490001000002228KINSEY                  ALA   XXXXXXXXXXXX
901AL038087 61397060N        3490001000000000WALLACE COMM COL: DOTHANALA   XXXXXXXXXXXX
901AL038097 61361023N        3490001000002425TAYLOR                  ALA   XXXXXXXXXXXX
901AL038107 61365576N        3490001000001443WEBB                    ALA   XXXXXXXXXXXX
901AL039008B61377770N        3070001000029694JACKSON                 ALA   XXXXXXXXXXXX
901AL039015 61355824N        3070001000014791SCOTTSBORO              ALA   XXXXXXXXXXXX
901AL039027 61306750N        3070001000002389BRIDGEPORT              ALA   XXXXXXXXXXXX
901AL039037 61359585N        3070001000002022STEVENSON               ALA   XXXXXXXXXXXX
901AL039047 61328272N        3070001000000990HOLLYWOOD               ALA   XXXXXXXXXXXX
901AL039057 61349296N        3070001000000718PISGAH                  ALA   XXXXXXXXXXXX
901AL039067 61317112NAL03900 3070000000000314DUTTON                  ALA   XXXXXXXXXXXX
901AL039077 61356106N        3070001000000766SECTION                 ALA   XXXXXXXXXXXX
901AL039087 61368811N        3070001000000742WOODVILLE               ALA   XXXXXXXXXXXX
901AL039097 61357405N        3070001000000847SKYLINE                 ALA   XXXXXXXXXXXX
901AL040008D61378660N        3070001000009333LAMAR                   ALA   XXXXXXXXXXXX
901AL040017 61360144N        3070001000001879SULLIGENT               ALA   XXXXXXXXXXXX
901AL040027 61363618N        3070001000001940VERNON                  ALA   XXXXXXXXXXXX
901AL040037 61331260NAL04000 3070000000000436KENNEDY                 ALA   XXXXXXXXXXXX
901AL040047 61339972N        3070001000001022MILLPORT                ALA   XXXXXXXXXXXX
901AL041009B61378787N        3070001000049316LAUDERDALE              ALA   XXXXXXXXXXXX
901AL041014 61320970Y        3070001000039481FLORENCE                ALA   XXXXXXXXXXXX
901AL041027 61365076NAL04100 3070000000000202WATERLOO                ALA   XXXXXXXXXXXX
901AL041037 61301338N        3070001000000281ANDERSON                ALA   XXXXXXXXXXXX
901AL041047 61359598N        3070001000000418ST. FLORIAN             ALA   XXXXXXXXXXXX
901AL041057 61334230N        3070001000000730LEXINGTON               ALA   XXXXXXXXXXXX
901AL041067 61353190N        3070001000001248ROGERSVILLE             ALA   XXXXXXXXXXXX
901AL041077 61331590N        3070001000000988KILLEN                  ALA   XXXXXXXXXXXX
901AL041087 61397057N        3070001000000000UNIV OF NORTH ALABAMA   ALA   XXXXXXXXXXXX
901AL042009B61378820N        3070001000027439LAWRENCE                ALA   XXXXXXXXXXXX
901AL042016 61341424N        3070001000003397MOULTON                 ALA   XXXXXXXXXXXX
901AL042027 61361962N        3070001000001080TOWN CREEK              ALA   XXXXXXXXXXXX
901AL042037 61313872N        3070001000000607COURTLAND               ALA   XXXXXXXXXXXX
901AL042047 61327744N        3070001000000531HILLSBORO               ALA   XXXXXXXXXXXX
901AL042057 61344409N        3070001000000622NORTH COURTLAND         ALA   XXXXXXXXXXXX
901AL042069E61378842N        3070001000000000LAWRENCE CNTY DRG & VCTFALA   XXXXXXXXXXXX
901AL043009B61378904N        3490001000058443LEE                     ALA   XXXXXXXXXXXX
901AL043013 61302478Y        3490001000057970AUBURN                  ALA   XXXXXXXXXXXX
901AL043024 61346236Y        3490001000028302OPELIKA                 ALA   XXXXXXXXXXXX
901AL043037 61397009NAL04301 3490000000000000AUBURN UNIV: MAIN CAMPUSALA   XXXXXXXXXXXX
901AL044009B61379114N        3070001000058221LIMESTONE               ALA   XXXXXXXXXXXX
901AL044015 61302262N        3070001000023972ATHENS                  ALA   XXXXXXXXXXXX
901AL044027 61301818N        3070001000001304ARDMORE                 ALA   XXXXXXXXXXXX
901AL044037 61318618NAL04400 3070000000000455ELKMONT                 ALA   XXXXXXXXXXXX
901AL045009D61379393N        3490001000006759LOWNDES                 ALA   XXXXXXXXXXXX
901AL045017 61321378N        3490001000001274FORT DEPOSIT            ALA   XXXXXXXXXXXX
901AL045027 61326874N        3490001000000887HAYNEVILLE              ALA   XXXXXXXXXXXX
901AL045047 61341409N        3490001000000977MOSSES                  ALA   XXXXXXXXXXXX
901AL045057 61367197N        3490001000000829WHITE HALL              ALA   XXXXXXXXXXXX
901AL045077 61300006N        34900010000000002ND JUD CIRCUIT DRUG T FALA   XXXXXXXXXXXX
901AL046008D61379489N        3490001000009581MACON                   ALA   XXXXXXXXXXXX
901AL046016 61362508N        3490001000009341TUSKEGEE                ALA   XXXXXXXXXXXX
901AL046027 61345126N        3490001000000906NOTASULGA               ALA   XXXXXXXXXXXX
901AL046067 61357039N        3490001000000460SHORTER                 ALA   XXXXXXXXXXXX
901AL046077 61397033N        3490001000000000TUSKEGEE UNIVERSITY     ALA   XXXXXXXXXXXX
901AL047009A61379519N        3070001000114778MADISON                 ALA   XXXXXXXXXXXX
901AL047012 61329148Y        3070001000184738HUNTSVILLE              ALA   XXXXXXXXXXXX
901AL047024 61336426N        3070001000045540MADISON                 ALA   XXXXXXXXXXXX
901AL047037 61325398N        3070001000000794GURLEY                  ALA   XXXXXXXXXXXX
901AL047046 61343278N        3070001000002799NEW HOPE                ALA   XXXXXXXXXXXX
901AL047057 61346842N        3070001000001766OWENS CROSSROADS        ALA   XXXXXXXXXXXX
901AL047067 61362150N        3070001000000499TRIANA                  ALA   XXXXXXXXXXXX
901AL047077 61397048N        3070001000000000UNIV OF AL: HUNTSVILLE  ALA   XXXXXXXXXXXX
901AL047087 61397006N        3070001000000000ALABAMA A&M UNIVERSITY  ALA   XXXXXXXXXXXX
901AL047097 61329166N        3070001000000000HUNTSVILLE INTNL AIRPORTALA   XXXXXXXXXXXX
901AL047117 61336529N        3070001000000000MADISON-MORGAN CO S CD TALA   XXXXXXXXXXXX
901AL048008C61379687N        3490001000010170MARENGO                 ALA   XXXXXXXXXXXX
901AL048016 61315750N        3490001000007240DEMOPOLIS               ALA   XXXXXXXXXXXX
901AL048027 61334620N        3490001000002036LINDEN                  ALA   XXXXXXXXXXXX
901AL048037 61361410N        3490001000000400THOMASTON               ALA   XXXXXXXXXXXX
901AL048047 61320502NAL04800 3490000000000094FAUNSDALE               ALA   XXXXXXXXXXXX
901AL048057 61342288N        3490001000000125MYRTLEWOOD              ALA   XXXXXXXXXXXX
901AL048067 61360652N        3490001000000248SWEET WATER             ALA   XXXXXXXXXXXX
901AL048077 61300016N        349000100000000017TH JUD CIRCUIT DRUG TFALA   XXXXXXXXXXXX
901AL049008C61379705N        3070001000013861MARION                  ALA   XXXXXXXXXXXX
901AL049016 61325728N        3070001000006546HAMILTON                ALA   XXXXXXXXXXXX
901AL049026 61368178N        3070001000004672WINFIELD                ALA   XXXXXXXXXXXX
901AL049037 61325332N        3070001000002348GUIN                    ALA   XXXXXXXXXXXX
901AL049047 61325464N        3070001000001498HACKLEBURG              ALA   XXXXXXXXXXXX
901AL049057 61306954N        3070001000000892BRILLIANT               ALA   XXXXXXXXXXXX
901AL049067 61366630NAL04900 3070000000000000WESTON                  ALA   XXXXXXXXXXXX
901AL049077 61303762N        3070001000001059BEAR CREEK              ALA   XXXXXXXXXXXX
901AL049088D61379748N        3070001000000000MARION CNTY DRUG TASK FOALA   XXXXXXXXXXXX
901AL050008B61379831N        3070001000046717MARSHALL                ALA   XXXXXXXXXXXX
901AL050015 61300564N        3070001000021636ALBERTVILLE             ALA   XXXXXXXXXXXX
901AL050026 61325386N        3070001000008388GUNTERSVILLE            ALA   XXXXXXXXXXXX
901AL050036 61301692N        3070001000008295ARAB                    ALA   XXXXXXXXXXXX
901AL050046 61305826N        3070001000009709BOAZ                    ALA   XXXXXXXXXXXX
901AL050057 61324342N        3070001000000915GRANT                   ALA   XXXXXXXXXXXX
901AL050067 61316467N        3070001000000762DOUGLAS                 ALA   XXXXXXXXXXXX
901AL050088E61379842N        3070001000000000MARSHALL CTY DRG ENFRC UALA   XXXXXXXXXXXX
901AL051008C61380485N        3490001000013879MONROE                  ALA   XXXXXXXXXXXX
901AL051016 61340632N        3490001000006327MONROEVILLE             ALA   XXXXXXXXXXXX
901AL051027 61322296N        3490001000001272FRISCO CITY             ALA   XXXXXXXXXXXX
901AL051037 61303780N        3490001000000296BEATRICE                ALA   XXXXXXXXXXXX
901AL051047 61319812N        3490001000000700EXCEL                   ALA   XXXXXXXXXXXX
901AL052009B61380746N        3070001000043035MORGAN                  ALA   XXXXXXXXXXXX
901AL052013 61315330Y        3070001000056091DECATUR                 ALA   XXXXXXXXXXXX
901AL052025 61326532N        3070001000014563HARTSELLE               ALA   XXXXXXXXXXXX
901AL052047 61320250N        3070001000001281FALKVILLE               ALA   XXXXXXXXXXXX
901AL052057 61320928NAL05200 3070000000000000FLINT CITY              ALA   XXXXXXXXXXXX
901AL052067 61357861N        3070001000000728SOMERVILLE              ALA   XXXXXXXXXXXX
901AL052077 61362184N        3070001000002148TRINITY                 ALA   XXXXXXXXXXXX
901AL052096 61350712N        3070001000002878PRICEVILLE              ALA   XXXXXXXXXXXX
901AL052117 61397013N        3070001000000000CALHOUN COMMUNITY COLLEGALA   XXXXXXXXXXXX
901AL053008D61382012N        3490001000004845PERRY                   ALA   XXXXXXXXXXXX
901AL053016 61337434N        3490001000003544MARION                  ALA   XXXXXXXXXXXX
901AL053027 61362832N        3490001000001679UNIONTOWN               ALA   XXXXXXXXXXXX
901AL054009C61382105N        3070001000011914PICKENS                 ALA   XXXXXXXXXXXX
901AL054017 61300774N        3070001000002419ALICEVILLE              ALA   XXXXXXXXXXXX
901AL054027 61323976N        3070001000001712GORDO                   ALA   XXXXXXXXXXXX
901AL054037 61351804N        3070001000001666REFORM                  ALA   XXXXXXXXXXXX
901AL054047 61309390N        3070001000001002CARROLLTON              ALA   XXXXXXXXXXXX
901AL054057 61348882N        3070001000000594PICKENSVILLE            ALA   XXXXXXXXXXXX
901AL054077 61300028N        307000100000000024TH JUD CIR DRUG & VCTFALA   XXXXXXXXXXXX
901AL055008C61382144N        3490001000012844PIKE                    ALA   XXXXXXXXXXXX
901AL055015 61362226N        3490001000018329TROY                    ALA   XXXXXXXXXXXX
901AL055027 61307452N        3490001000002073BRUNDIDGE               ALA   XXXXXXXXXXXX
901AL055037 61397030N        3490001000000000TROY UNIVERSITY         ALA   XXXXXXXXXXXX
901AL056008C61382711N        3490001000015052RANDOLPH                ALA   XXXXXXXXXXXX
901AL056016 61352722N        3490001000005997ROANOKE                 ALA   XXXXXXXXXXXX
901AL056027 61364110N        3490001000000739WADLEY                  ALA   XXXXXXXXXXXX
901AL056037 61365658N        3490001000000810WEDOWEE                 ALA   XXXXXXXXXXXX
901AL056047 61397025N        3490001000000000SOUTHERN UNION STATE CC ALA   XXXXXXXXXXXX
901AL056057 61300010N        34900010000000005TH JUD CIRCUIT NRCTS UNALA   XXXXXXXXXXXX
901AL057009B61383125N        3490001000026235RUSSELL                 ALA   XXXXXXXXXXXX
901AL057014 61348750N        3490001000037266PHENIX CITY             ALA   XXXXXXXXXXXX
901AL057027 61329244N        3490001000000596HURTSBORO               ALA   XXXXXXXXXXXX
901AL058009B61384615N        3070001000034110ST. CLAIR               ALA   XXXXXXXXXXXX
901AL058015 61348156N        3070001000013263PELL CITY               ALA   XXXXXXXXXXXX
901AL058027 61302184N        3070001000002239ASHVILLE                ALA   XXXXXXXXXXXX
901AL058037 61351204N        3070001000001662RAGLAND                 ALA   XXXXXXXXXXXX
901AL058046 61359208N        3070001000004175SPRINGVILLE             ALA   XXXXXXXXXXXX
901AL058056 61345696N        3070001000003642ODENVILLE               ALA   XXXXXXXXXXXX
901AL058065 61340986N        3070001000012278MOODY                   ALA   XXXXXXXXXXXX
901AL058077 61352620N        3070001000002269RIVERSIDE               ALA   XXXXXXXXXXXX
901AL058086 61337344N        3070001000004484MARGARET                ALA   XXXXXXXXXXXX
901AL058097 61359509N        3070001000001060STEELE                  ALA   XXXXXXXXXXXX
901AL058107 61306441NAL05800 3070000000000000BRANCHVILLE             ALA   XXXXXXXXXXXX
901AL058126 61301851N        3070001000004148ARGO                    ALA   XXXXXXXXXXXX
901AL059009B61383857N        3070001000082736SHELBY                  ALA   XXXXXXXXXXXX
901AL059015 61308346N        3070001000012726CALERA                  ALA   XXXXXXXXXXXX
901AL059026 61312876N        3070001000004219COLUMBIANA              ALA   XXXXXXXXXXXX
901AL059036 61340746N        3070001000006503MONTEVALLO              ALA   XXXXXXXXXXXX
901AL059044 61300432N        3070001000031170ALABASTER               ALA   XXXXXXXXXXXX
901AL059057 61363930NAL05900 3070000000002045VINCENT                 ALA   XXXXXXXXXXXX
901AL059065 61348102N        3070001000022199PELHAM                  ALA   XXXXXXXXXXXX
901AL059075 61327126N        3070001000017306HELENA                  ALA   XXXXXXXXXXXX
901AL059087 61367956N        3070001000000697WILTON                  ALA   XXXXXXXXXXXX
901AL059097 61326286N        3070001000001679HARPERSVILLE            ALA   XXXXXXXXXXXX
901AL059107 61367950NAL05900 3070000000001943WILSONVILLE             ALA   XXXXXXXXXXXX
901AL059117 61397054N        3070001000000000UNIVERSITY OF MONTEVALLOALA   XXXXXXXXXXXX
901AL060008D61384832N        3070001000006909SUMTER                  ALA   XXXXXXXXXXXX
901AL060017 61369246N        3070001000002436YORK                    ALA   XXXXXXXXXXXX
901AL060026 61334974N        3070001000003461LIVINGSTON              ALA   XXXXXXXXXXXX
901AL060037 61314514N        3070001000000329CUBA                    ALA   XXXXXXXXXXXX
901AL060047 61319291N        3070001000000185EPES                    ALA   XXXXXXXXXXXX
901AL060057 61397059N        3070001000000000UNIVERSITY OF WEST ALABAALA   XXXXXXXXXXXX
901AL061008B61384991N        3070001000035968TALLADEGA               ALA   XXXXXXXXXXXX
901AL061015 61360708N        3070001000012762SYLACAUGA               ALA   XXXXXXXXXXXX
901AL061025 61360840N        3070001000016033TALLADEGA               ALA   XXXXXXXXXXXX
901AL061036 61311088N        3070001000005111CHILDERSBURG            ALA   XXXXXXXXXXXX
901AL061046 61334482N        3070001000006365LINCOLN                 ALA   XXXXXXXXXXXX
901AL061057 61364242NAL06100 3070000000000279WALDO                   ALA   XXXXXXXXXXXX
901AL061067 61397027NAL06100 3070000000000000TALLADEGA COLLEGE       ALA   XXXXXXXXXXXX
901AL061127 61342115N        3070001000001275MUNFORD                 ALA   XXXXXXXXXXXX
901AL062008C61384997N        3490001000018699TALLAPOOSA              ALA   XXXXXXXXXXXX
901AL062015 61300654N        3490001000014692ALEXANDER CITY          ALA   XXXXXXXXXXXX
901AL062026 61314742N        3490001000003186DADEVILLE               ALA   XXXXXXXXXXXX
901AL062037 61308700N        3490001000000995CAMP HILL               ALA   XXXXXXXXXXXX
901AL062047 61309460NAL06200 3490000000000000CARRVILLE               ALA   XXXXXXXXXXXX
901AL062057 61315186N        3490001000000212DAVISTON                ALA   XXXXXXXXXXXX
901AL062067 61343698N        3490001000000762NEW SITE                ALA   XXXXXXXXXXXX
901AL062077 61330100N        3490001000000814JACKSONS GAP            ALA   XXXXXXXXXXXX
901AL063009B61385381N        3070001000075251TUSCALOOSA              ALA   XXXXXXXXXXXX
901AL063013 61362484Y        3070001000094126TUSCALOOSA              ALA   XXXXXXXXXXXX
901AL063025 61344736N        3070001000024308NORTHPORT               ALA   XXXXXXXXXXXX
901AL063037 61397051N        3070001000000000UNIV OF AL: TUSCALOOSA  ALA   XXXXXXXXXXXX
901AL063057 61307524NAL06300 3070000000000000BRYCE STATE HOSPITAL    ALA   XXXXXXXXXXXX
901AL063077 61363421N        3070001000001543VANCE                   ALA   XXXXXXXXXXXX
901AL063117 61332756N        3070001000002064LAKE VIEW               ALA   XXXXXXXXXXXX
901AL063147 61312249N        3070001000001677COALING                 ALA   XXXXXXXXXXXX
901AL064009B61385828N        3070001000041109WALKER                  ALA   XXXXXXXXXXXX
901AL064015 61330270N        3070001000014185JASPER                  ALA   XXXXXXXXXXXX
901AL064027 61309108N        3070001000001988CARBON HILL             ALA   XXXXXXXXXXXX
901AL064037 61313506N        3070001000002050CORDOVA                 ALA   XXXXXXXXXXXX
901AL064047 61316422N        3070001000001992DORA                    ALA   XXXXXXXXXXXX
901AL064057 61360204N        3070001000002461SUMITON                 ALA   XXXXXXXXXXXX
901AL064067 61347706N        3070001000000974PARRISH                 ALA   XXXXXXXXXXXX
901AL064077 61345426N        3070001000000770OAKMAN                  ALA   XXXXXXXXXXXX
901AL064087 61342537NAL06400 3070000000000214NAUVOO                  ALA   XXXXXXXXXXXX
901AL064097 61357348N        3070001000000430SIPSEY                  ALA   XXXXXXXXXXXX
901AL064117 61397011N        3070001000000000BEVILL STATE COMM COLLEGALA   XXXXXXXXXXXX
901AL065008C61386011N        3490001000014945WASHINGTON              ALA   XXXXXXXXXXXX
901AL065017 61338490N        3490001000000228MCINTOSH                ALA   XXXXXXXXXXXX
901AL065027 61339978N        3490001000000527MILLRY                  ALA   XXXXXXXXXXXX
901AL065037 61310560N        3490001000001245CHATOM                  ALA   XXXXXXXXXXXX
901AL066008D61386494N        3490001000008451WILCOX                  ALA   XXXXXXXXXXXX
901AL066017 61308568N        3490001000001985CAMDEN                  ALA   XXXXXXXXXXXX
901AL066027 61349122N        3490001000000945PINE HILL               ALA   XXXXXXXXXXXX
901AL067008C61386605N        3070001000017167WINSTON                 ALA   XXXXXXXXXXXX
901AL067017 61316464N        3070001000001064DOUBLE SPRINGS          ALA   XXXXXXXXXXXX
901AL067026 61325560N        3070001000004086HALEYVILLE              ALA   XXXXXXXXXXXX
901AL067037 61300258N        3070001000000744ADDISON                 ALA   XXXXXXXXXXXX
901AL067047 61301890N        3070001000000353ARLEY                   ALA   XXXXXXXXXXXX
901AL067057 61336193N        3070001000000644LYNN                    ALA   XXXXXXXXXXXX
902AZCCHPX8D81370807N        3630001000000000AZ DEPT OF PUBLIC SAFETYARIZ  XXXXXXXXXXXX
902AZDI0237 81369187N        3630001000000000YAVAPAI-PRESCOTT TRIBAL ARIZ  XXXXXXXXXXXX
902AZDI0527 81354958N        3630001000000000SAN CARLOS AGENCY       ARIZ  XXXXXXXXXXXX
902AZDI0537 81328581N        3630001000000000HOPI TRIBAL             ARIZ  XXXXXXXXXXXX
902AZDI0597 81312766N        3630001000000000COLORADO RIVER AGENCY   ARIZ  XXXXXXXXXXXX
902AZDI0607 81362311N        3630001000000000TRUXTON CANON AGENCY    ARIZ  XXXXXXXXXXXX
902AZDI0617 81321477N        3630001000000000FORT MCDOWELL TRIBAL    ARIZ  XXXXXXXXXXXX
902AZDI0627 81321345N        3630001000000000FORT APACHE AGENCY      ARIZ  XXXXXXXXXXXX
902AZDI0657 81300393N        3630001000000000AK-CHIN TRIBAL          ARIZ  XXXXXXXXXXXX
902AZDI0667 81347769N        3630001000000000PASCUA YAQUI TRIBAL     ARIZ  XXXXXXXXXXXX
902AZDI0677 81328833N        3630001000000000HUALAPAI TRIBAL         ARIZ  XXXXXXXXXXXX
902AZDI0697 81369185N        3630001000000000YAVAPAI-APACHE NATION   ARIZ  XXXXXXXXXXXX
902AZDI0817 81361852N        3630001000000000TONTO APACHE TRIBAL     ARIZ  XXXXXXXXXXXX
902AZ001008B81370774N        3630001000063359APACHE                  ARIZ  XXXXXXXXXXXX
902AZ001016 81317166N        3630001000005034EAGAR                   ARIZ  XXXXXXXXXXXX
902AZ001036 81359680N        3630001000003584ST. JOHNS               ARIZ  XXXXXXXXXXXX
902AZ001057 81358938N        3630001000002009SPRINGERVILLE           ARIZ  XXXXXXXXXXXX
902AZ001897 81342543N        3630001000000000NAVAJO NATION           ARIZ  XXXXXXXXXXXX
902AZ002009B81373396N        3630001000051413COCHISE                 ARIZ  XXXXXXXXXXXX
902AZ002016 81304578N        3630001000005077BENSON                  ARIZ  XXXXXXXXXXXX
902AZ002036 81305304N        3630001000005463BISBEE                  ARIZ  XXXXXXXXXXXX
902AZ002055 81316470Y        3630001000017223DOUGLAS                 ARIZ  XXXXXXXXXXXX
902AZ002077 81328830N        3630001000001811HUACHUCA CITY           ARIZ  XXXXXXXXXXXX
902AZ002094 81357132Y        3630001000046728SIERRA VISTA            ARIZ  XXXXXXXXXXXX
902AZ002117 81361806N        3630001000001349TOMBSTONE               ARIZ  XXXXXXXXXXXX
902AZ002136 81367608N        3630001000003678WILLCOX                 ARIZ  XXXXXXXXXXXX
902AZ003009B81373405N        3630001000054549COCONINO                ARIZ  XXXXXXXXXXXX
902AZ003013 81320844Y        3630001000067963FLAGSTAFF               ARIZ  XXXXXXXXXXXX
902AZ003037 81322074N        3630001000001318FREDONIA                ARIZ  XXXXXXXXXXXX
902AZ003076 81367620N        3630001000003019WILLIAMS                ARIZ  XXXXXXXXXXXX
902AZ003086 81347046N        3630001000007330PAGE                    ARIZ  XXXXXXXXXXXX
902AZ003107 81356128NAZ01314 3630000000000000SEDONA                  ARIZ  XXXXXXXXXXXX
902AZ003977 81397090N        3630001000000000NORTHERN ARIZONA UNIV   ARIZ  XXXXXXXXXXXX
902AZ004008B81376108N        3630001000027817GILA                    ARIZ  XXXXXXXXXXXX
902AZ004016 81323700N        3630001000007414GLOBE                   ARIZ  XXXXXXXXXXXX
902AZ004037 81326862N        3630001000000996HAYDEN                  ARIZ  XXXXXXXXXXXX
902AZ004057 81339294N        3630001000001793MIAMI                   ARIZ  XXXXXXXXXXXX
902AZ004065 81347976N        3630001000015192PAYSON                  ARIZ  XXXXXXXXXXXX
902AZ004077 81368220NAZ00403 3630000000000347WINKELMAN               ARIZ  XXXXXXXXXXXX
902AZ004897 81354959N        3630001000000000SAN CARLOS APACHE       ARIZ  XXXXXXXXXXXX
902AZ005008C81376297N        3630001000020853GRAHAM                  ARIZ  XXXXXXXXXXXX
902AZ005017 81349005N        3630001000002427PIMA                    ARIZ  XXXXXXXXXXXX
902AZ005036 81354144N        3630001000009471SAFFORD                 ARIZ  XXXXXXXXXXXX
902AZ005056 81361338N        3630001000004999THATCHER                ARIZ  XXXXXXXXXXXX
902AZ005977 81397084NAZ00505 3630000000000000EASTERN ARIZONA COLLEGE ARIZ  XXXXXXXXXXXX
902AZ006008D81376546N        3630001000005495GREENLEE                ARIZ  XXXXXXXXXXXX
902AZ006016 81311910N        3630001000003499CLIFTON                 ARIZ  XXXXXXXXXXXX
902AZ006037 81316890NAZ00600 3630000000000759DUNCAN                  ARIZ  XXXXXXXXXXXX
902AZ007009A81379690N        3630001000387794MARICOPA                ARIZ  XXXXXXXXXXXX
902AZ007013 81302838N        3630001000078905AVONDALE                ARIZ  XXXXXXXXXXXX
902AZ007033 81307566N        3630001000055710BUCKEYE                 ARIZ  XXXXXXXXXXXX
902AZ007052 81310290N        3630001000248718CHANDLER                ARIZ  XXXXXXXXXXXX
902AZ007074 81318858N        3630001000032837EL MIRAGE               ARIZ  XXXXXXXXXXXX
902AZ007097 81323250NAZ00700 3630000000001978GILA BEND               ARIZ  XXXXXXXXXXXX
902AZ007112 81323256N        3630001000225232GILBERT                 ARIZ  XXXXXXXXXXXX
902AZ007132 81323508N        3630001000234006GLENDALE                ARIZ  XXXXXXXXXXXX
902AZ007153 81323916N        3630001000071048GOODYEAR                ARIZ  XXXXXXXXXXXX
902AZ007171C81339168Y        3630001000456155MESA                    ARIZ  XXXXXXXXXXXX
902AZ007195 81347448N        3630001000013286PARADISE VALLEY         ARIZ  XXXXXXXXXXXX
902AZ007212 81348378N        3630001000161641PEORIA                  ARIZ  XXXXXXXXXXXX
902AZ007231A81348828Y        3630001001502139PHOENIX                 ARIZ  XXXXXXXXXXXX
902AZ007252 81355836Y        3630001000225523SCOTTSDALE              ARIZ  XXXXXXXXXXXX
902AZ007272 81360480N        3630001000122497SURPRISE                ARIZ  XXXXXXXXXXXX
902AZ007292 81361192Y        3630001000168501TEMPE                   ARIZ  XXXXXXXXXXXX
902AZ007316 81361770N        3630001000006754TOLLESON                ARIZ  XXXXXXXXXXXX
902AZ007336 81367476N        3630001000006583WICKENBURG              ARIZ  XXXXXXXXXXXX
902AZ007356 81369324NAZ00700 3630000000006334YOUNGTOWN               ARIZ  XXXXXXXXXXXX
902AZ007396 81325302NAZ00700 3630000000006147GUADALUPE               ARIZ  XXXXXXXXXXXX
902AZ007447 81301863NAZCCHPX 3630000000000000ARIZONA STATE CAPITOL   ARIZ  XXXXXXXXXXXX
902AZ007577 81397069NAZ00797 3630000000000000AZ STATE UNIV: WEST     ARIZ  XXXXXXXXXXXX
902AZ007887 81397067NAZ00797 3630000000000000AZ STATE UNIV: EAST     ARIZ  XXXXXXXXXXXX
902AZ007897 81354849N        3630001000000000SALT RIVER TRIBAL       ARIZ  XXXXXXXXXXXX
902AZ007977 81397068N        3630001000000000AZ STATE UNIV, MAIN CAMPARIZ  XXXXXXXXXXXX
902AZ008009B81380443N        3630001000079400MOHAVE                  ARIZ  XXXXXXXXXXXX
902AZ008014 81331668Y        3630001000028400KINGMAN                 ARIZ  XXXXXXXXXXXX
902AZ008037 81321489N        3630001000000000FORT MOJAVE TRIBAL      ARIZ  XXXXXXXXXXXX
902AZ008043 81332538Y        3630001000052891LAKE HAVASU CITY        ARIZ  XXXXXXXXXXXX
902AZ008054 81307720N        3630001000039577BULLHEAD CITY           ARIZ  XXXXXXXXXXXX
902AZ008066 81312759N        3630001000004831COLORADO CITY           ARIZ  XXXXXXXXXXXX
902AZ008077 81330907N        3630001000000000KAIBAB PAIUTE TRIBAL    ARIZ  XXXXXXXXXXXX
902AZ009008B81380974N        3630001000068362NAVAJO                  ARIZ  XXXXXXXXXXXX
902AZ009016 81328074N        3630001000004988HOLBROOK                ARIZ  XXXXXXXXXXXX
902AZ009035 81357054N        3630001000010732SHOW LOW                ARIZ  XXXXXXXXXXXX
902AZ009056 81357648N        3630001000009651SNOWFLAKE-TAYLOR        ARIZ  XXXXXXXXXXXX
902AZ009076 81361026NAZ00905 3630000000004100TAYLOR                  ARIZ  XXXXXXXXXXXX
902AZ009096 81368304N        3630001000009326WINSLOW                 ARIZ  XXXXXXXXXXXX
902AZ009136 81349200N        3630001000004266PINETOP-LAKESIDE        ARIZ  XXXXXXXXXXXX
902AZ009897 81367281N        3630001000000000WHITE MOUNTAIN APACHE TRARIZ  XXXXXXXXXXXX
902AZ010009A81382180N        3630001000362987PIMA                    ARIZ  XXXXXXXXXXXX
902AZ010016 81358590N        3630001000005694SOUTH TUCSON            ARIZ  XXXXXXXXXXXX
902AZ010031B81362340Y        3630001000525486TUCSON                  ARIZ  XXXXXXXXXXXX
902AZ010044 81354183N        3630001000026535SAHUARITA               ARIZ  XXXXXXXXXXXX
902AZ010067 81300390NAZ01000 3630000000000000AJO                     ARIZ  XXXXXXXXXXXX
902AZ010074 81346494N        3630001000041493ORO VALLEY              ARIZ  XXXXXXXXXXXX
902AZ010094 81337266N        3630001000037469MARANA                  ARIZ  XXXXXXXXXXXX
902AZ010107 81362343N        3630001000000000TUCSON AIRPORT AUTHORITYARIZ  XXXXXXXXXXXX
902AZ010127 81361736N        3630001000000000TOHONO O'ODHAM NATION   ARIZ  XXXXXXXXXXXX
902AZ010977 81397102N        3630001000000000UNIVERSITY OF ARIZONA   ARIZ  XXXXXXXXXXXX
902AZ010987 81397096N        3630001000000000PIMA COMMUNITY COLLEGE  ARIZ  XXXXXXXXXXXX
902AZ011009A81382183N        3630001000195619PINAL                   ARIZ  XXXXXXXXXXXX
902AZ011013 81309576N        3630001000050058CASA GRANDE             ARIZ  XXXXXXXXXXXX
902AZ011035 81313329N        3630001000011820COOLIDGE                ARIZ  XXXXXXXXXXXX
902AZ011055 81318918N        3630001000017602ELOY                    ARIZ  XXXXXXXXXXXX
902AZ011074 81320976N        3630001000026682FLORENCE                ARIZ  XXXXXXXXXXXX
902AZ011097 81331092N        3630001000002010KEARNY                  ARIZ  XXXXXXXXXXXX
902AZ011117 81336750N        3630001000001473MAMMOTH                 ARIZ  XXXXXXXXXXXX
902AZ011126 81360438N        3630001000002898SUPERIOR                ARIZ  XXXXXXXXXXXX
902AZ011134 81301614N        3630001000036626APACHE JUNCTION         ARIZ  XXXXXXXXXXXX
902AZ011157 81323253N        3630001000000000GILA RIVER INDIAN COMNTYARIZ  XXXXXXXXXXXX
902AZ011174 81337377N        3630001000044871MARICOPA                ARIZ  XXXXXXXXXXXX
902AZ011977 81397078N        3630001000000000CENTRAL ARIZONA COLLEGE ARIZ  XXXXXXXXXXXX
902AZ012008B81383482N        3630001000025816SANTA CRUZ              ARIZ  XXXXXXXXXXXX
902AZ012015 81344016N        3630001000020736NOGALES                 ARIZ  XXXXXXXXXXXX
902AZ012037 81347796N        3630001000000903PATAGONIA               ARIZ  XXXXXXXXXXXX
902AZ013009B81386806N        3630001000089448YAVAPAI                 ARIZ  XXXXXXXXXXXX
902AZ013016 81311472N        3630001000004090CLARKDALE               ARIZ  XXXXXXXXXXXX
902AZ013035 81313790N        3630001000011285COTTONWOOD              ARIZ  XXXXXXXXXXXX
902AZ013057 81330540N        3630001000000444JEROME                  ARIZ  XXXXXXXXXXXX
902AZ013074 81350646Y        3630001000040752PRESCOTT                ARIZ  XXXXXXXXXXXX
902AZ013087 81397105N        3630001000000000YAVAPAI COLLEGE         ARIZ  XXXXXXXXXXXX
902AZ013114 81350664N        3630001000039209PRESCOTT VALLEY         ARIZ  XXXXXXXXXXXX
902AZ013125 81311160N        3630001000010850CHINO VALLEY            ARIZ  XXXXXXXXXXXX
902AZ013135 81308733N        3630001000010942CAMP VERDE              ARIZ  XXXXXXXXXXXX
902AZ013145 81356127N        3630001000010036SEDONA                  ARIZ  XXXXXXXXXXXX
902AZ014009B81386878N        3630001000059699YUMA                    ARIZ  XXXXXXXXXXXX
902AZ014035 81357858N        3630001000015014SOMERTON                ARIZ  XXXXXXXXXXXX
902AZ014053 81369390Y        3630001000096014YUMA                    ARIZ  XXXXXXXXXXXX
902AZ014077 81312357N        3630001000000000COCOPAH TRIBAL          ARIZ  XXXXXXXXXXXX
902AZ014084 81355248N        3630001000028231SAN LUIS                ARIZ  XXXXXXXXXXXX
902AZ014096 81365853N        3630001000002920WELLTON                 ARIZ  XXXXXXXXXXXX
902AZ014107 81351063N        3630001000000000QUECHAN TRIBAL          ARIZ  XXXXXXXXXXXX
902AZ014977 81397072N        3630001000000000ARIZONA WESTERN COLLEGE ARIZ  XXXXXXXXXXXX
902AZ015008C81378742N        3630001000013637LA PAZ                  ARIZ  XXXXXXXXXXXX
902AZ015016 81347544N        3630001000003011PARKER                  ARIZ  XXXXXXXXXXXX
902AZ015027 81312767N        3630001000000000COLORADO RIVER TRIBAL   ARIZ  XXXXXXXXXXXX
902AZ015036 81351062N        3630001000003648QUARTZSITE              ARIZ  XXXXXXXXXXXX
903ARASP008D71370813N        3390001000000000ARKANSAS STATE POLICE   ARK   XXXXXXXXXXXX
903AR001008D71370810N        3390001000006344ARKANSAS                ARK   XXXXXXXXXXXX
903AR001016 71316092N        3390001000003259DE WITT                 ARK   XXXXXXXXXXXX
903AR001026 71360048N        3390001000009263STUTTGART               ARK   XXXXXXXXXXXX
903AR001037 71323316NAR00100 3390000000000685GILLETT                 ARK   XXXXXXXXXXXX
903AR002008C71370861N        3390001000013222ASHLEY                  ARK   XXXXXXXXXXXX
903AR002016 71314379N        3390001000005383CROSSETT                ARK   XXXXXXXXXXXX
903AR002026 71325680N        3390001000002828HAMBURG                 ARK   XXXXXXXXXXXX
903AR002037 71367914NAR00200 3390000000000537WILMOT                  ARK   XXXXXXXXXXXX
903AR003008C71371122N        3390001000024922BAXTER                  ARK   XXXXXXXXXXXX
903AR003015 71341508N        3390001000012246MOUNTAIN HOME           ARK   XXXXXXXXXXXX
903AR003027 71313776N        3390001000000954COTTER                  ARK   XXXXXXXXXXXX
903AR003037 71322842N        3390001000002048GASSVILLE               ARK   XXXXXXXXXXXX
903AR003047 71332757N        3390001000000727LAKEVIEW                ARK   XXXXXXXXXXXX
903AR004009B71371281N        3390001000050612BENTON                  ARK   XXXXXXXXXXXX
903AR004014 71304662Y        3390001000039132BENTONVILLE             ARK   XXXXXXXXXXXX
903AR004023 71353178Y        3390001000059787ROGERS                  ARK   XXXXXXXXXXXX
903AR004035 71357168N        3390001000015873SILOAM SPRINGS          ARK   XXXXXXXXXXXX
903AR004046 71348012N        3390001000005006PEA RIDGE               ARK   XXXXXXXXXXXX
903AR004056 71323034N        3390001000003341GENTRY                  ARK   XXXXXXXXXXXX
903AR004066 71335682N        3390001000007832LOWELL                  ARK   XXXXXXXXXXXX
903AR004077 71324462N        3390001000002409GRAVETTE                ARK   XXXXXXXXXXXX
903AR004087 71315336N        3390001000001766DECATUR                 ARK   XXXXXXXXXXXX
903AR004097 71309783N        3390001000002060CAVE SPRINGS            ARK   XXXXXXXXXXXX
903AR004117 71360195NAR00400 3390000000000526SULPHUR SPRINGS         ARK   XXXXXXXXXXXX
903AR004135 71309991N        3390001000010377CENTERTON               ARK   XXXXXXXXXXXX
903AR004147 71397112N        3390001000000000NW ARKANSAS COMMUNITY COARK   XXXXXXXXXXXX
903AR004166 71334851N        3390001000002699LITTLE FLOCK            ARK   XXXXXXXXXXXX
903AR004207 71327554N        3390001000000620HIGHFILL                ARK   XXXXXXXXXXXX
903AR004214 71304096N        3390001000027606BELLA VISTA             ARK   XXXXXXXXXXXX
903AR005008C71371614N        3390001000024240BOONE                   ARK   XXXXXXXXXXXX
903AR005015 71326370N        3390001000013234HARRISON                ARK   XXXXXXXXXXXX
903AR005027 71316144NAR00500 3390000000000786DIAMOND CITY            ARK   XXXXXXXXXXXX
903AR006008D71371749N        3390001000005422BRADLEY                 ARK   XXXXXXXXXXXX
903AR006016 71364584N        3390001000005947WARREN                  ARK   XXXXXXXXXXXX
903AR006027 71327387NAR00600 3390000000000822HERMITAGE               ARK   XXXXXXXXXXXX
903AR007008D71372205N        3390001000003997CALHOUN                 ARK   XXXXXXXXXXXX
903AR007017 71325908N        3390001000001306HAMPTON                 ARK   XXXXXXXXXXXX
903AR008008C71372439N        3390001000017381CARROLL                 ARK   XXXXXXXXXXXX
903AR008016 71304854N        3390001000005417BERRYVILLE              ARK   XXXXXXXXXXXX
903AR008027 71319650N        3390001000002075EUREKA SPRINGS          ARK   XXXXXXXXXXXX
903AR008036 71324738N        3390001000002768GREEN FOREST            ARK   XXXXXXXXXXXX
903AR009008D71372964N        3390001000003896CHICOT                  ARK   XXXXXXXXXXXX
903AR009016 71315930N        3390001000002775DERMOTT                 ARK   XXXXXXXXXXXX
903AR009027 71319548N        3390001000002169EUDORA                  ARK   XXXXXXXXXXXX
903AR009037 71332796N        3390001000002482LAKE VILLAGE            ARK   XXXXXXXXXXXX
903AR010008D71373135N        3390001000009303CLARK                   ARK   XXXXXXXXXXXX
903AR010015 71301866N        3390001000010829ARKADELPHIA             ARK   XXXXXXXXXXXX
903AR010027 71325392N        3390001000002184GURDON                  ARK   XXXXXXXXXXXX
903AR010037 71308217N        3390001000000622CADDO VALLEY            ARK   XXXXXXXXXXXX
903AR010047 71397111N        3390001000000000HENDERSON STATE UNIVERSIARK   XXXXXXXXXXXX
903AR011008D71373204N        3390001000008555CLAY                    ARK   XXXXXXXXXXXX
903AR011016 71313590N        3390001000003254CORNING                 ARK   XXXXXXXXXXXX
903AR011026 71348978N        3390001000003751PIGGOTT                 ARK   XXXXXXXXXXXX
903AR012008C71373291N        3390001000016823CLEBURNE                ARK   XXXXXXXXXXXX
903AR012016 71327054N        3390001000007146HEBER SPRINGS           ARK   XXXXXXXXXXXX
903AR012027 71351135N        3390001000000752QUITMAN                 ARK   XXXXXXXXXXXX
903AR012037 71325051N        3390001000000881GREERS FERRY            ARK   XXXXXXXXXXXX
903AR013009D71373306N        3390001000007280CLEVELAND               ARK   XXXXXXXXXXXX
903AR013017 71352515N        3390001000001329RISON                   ARK   XXXXXXXXXXXX
903AR014008C71373507N        3390001000012705COLUMBIA                ARK   XXXXXXXXXXXX
903AR014015 71336576N        3390001000011682MAGNOLIA                ARK   XXXXXXXXXXXX
903AR014057 71397113N        3390001000000000SOUTHERN ARKANSAS UNIV  ARK   XXXXXXXXXXXX
903AR015008C71373627N        3390001000013392CONWAY                  ARK   XXXXXXXXXXXX
903AR015016 71341208N        3390001000006789MORRILTON               ARK   XXXXXXXXXXXX
903AR015037 71349707N        3390001000000822PLUMMERVILLE            ARK   XXXXXXXXXXXX
903AR015047 71338935N        3390001000000302MENIFEE                 ARK   XXXXXXXXXXXX
903AR016009C71373732N        3390001000018869CRAIGHEAD               ARK   XXXXXXXXXXXX
903AR016013 71330708Y        3390001000071114JONESBORO               ARK   XXXXXXXXXXXX
903AR016027 71309076N        3390001000001279CARAWAY                 ARK   XXXXXXXXXXXX
903AR016037 71332433N        3390001000002199LAKE CITY               ARK   XXXXXXXXXXXX
903AR016047 71303597N        3390001000001825BAY                     ARK   XXXXXXXXXXXX
903AR016057 71397109N        3390001000000000AR STATE UNIV: JONESBOROARK   XXXXXXXXXXXX
903AR016067 71340509N        3390001000001502MONETTE                 ARK   XXXXXXXXXXXX
903AR016077 71305977N        3390001000002153BONO                    ARK   XXXXXXXXXXXX
903AR016157 71307233N        3390001000001863BROOKLAND               ARK   XXXXXXXXXXXX
903AR017009B71373756N        3390001000030898CRAWFORD                ARK   XXXXXXXXXXXX
903AR017015 71363408N        3390001000023063VAN BUREN               ARK   XXXXXXXXXXXX
903AR017026 71300894N        3390001000005484ALMA                    ARK   XXXXXXXXXXXX
903AR017037 71342027N        3390001000001634MULBERRY                ARK   XXXXXXXXXXXX
903AR017057 71317127N        3390001000000867DYER                    ARK   XXXXXXXXXXXX
903AR018009D71373801N        3390001000009632CRITTENDEN              ARK   XXXXXXXXXXXX
903AR018014 71366486N        3390001000025500WEST MEMPHIS            ARK   XXXXXXXXXXXX
903AR018027 71317215N        3390001000002342EARLE                   ARK   XXXXXXXXXXXX
903AR018045 71337440N        3390001000012258MARION                  ARK   XXXXXXXXXXXX
903AR019008D71373831N        3390001000008235CROSS                   ARK   XXXXXXXXXXXX
903AR019016 71369042N        3390001000008323WYNNE                   ARK   XXXXXXXXXXXX
903AR019027 71347608N        3390001000001079PARKIN                  ARK   XXXXXXXXXXXX
903AR020008D71374017N        3390001000003744DALLAS                  ARK   XXXXXXXXXXXX
903AR020016 71321204N        3390001000004218FORDYCE                 ARK   XXXXXXXXXXXX
903AR021008D71374492N        3390001000003560DESHA                   ARK   XXXXXXXXXXXX
903AR021016 71338460N        3390001000004024MCGEHEE                 ARK   XXXXXXXXXXXX
903AR021027 71301869N        3390001000000346ARKANSAS CITY           ARK   XXXXXXXXXXXX
903AR021036 71316848N        3390001000004481DUMAS                   ARK   XXXXXXXXXXXX
903AR022008D71374866N        3390001000008947DREW                    ARK   XXXXXXXXXXXX
903AR022016 71340830N        3390001000009830MONTICELLO              ARK   XXXXXXXXXXXX
903AR022037 71397123N        3390001000000000UNIV OF AR: MONTICELLO  ARK   XXXXXXXXXXXX
903AR023009B71375328N        3390001000043865FAULKNER                ARK   XXXXXXXXXXXX
903AR023013 71313266Y        3390001000064060CONWAY                  ARK   XXXXXXXXXXXX
903AR023026 71324606N        3390001000005082GREENBRIER              ARK   XXXXXXXXXXXX
903AR023037 71338226N        3390001000002336MAYFLOWER               ARK   XXXXXXXXXXXX
903AR023046 71363906N        3390001000004202VILONIA                 ARK   XXXXXXXXXXXX
903AR023057 71325431N        3390001000000724GUY                     ARK   XXXXXXXXXXXX
903AR023067 71397135N        3390001000000000UNIV OF CENTRAL ARKANSASARK   XXXXXXXXXXXX
903AR024008C71375619N        3390001000011841FRANKLIN                ARK   XXXXXXXXXXXX
903AR024016 71346980N        3390001000003653OZARK                   ARK   XXXXXXXXXXXX
903AR024026 71310392N        3390001000002532CHARLESTON              ARK   XXXXXXXXXXXX
903AR025008D71375784N        3390001000008761FULTON                  ARK   XXXXXXXXXXXX
903AR025017 71354634N        3390001000001650SALEM                   ARK   XXXXXXXXXXXX
903AR025027 71336759N        3390001000000979MAMMOTH SPRING          ARK   XXXXXXXXXXXX
903AR026009B71375973N        3390001000061612GARLAND                 ARK   XXXXXXXXXXXX
903AR026014 71328692Y        3390001000035551HOT SPRINGS             ARK   XXXXXXXXXXXX
903AR026037 71341529NAR02600 3390000000000779MOUNTAIN PINE           ARK   XXXXXXXXXXXX
903AR027009C71376375N        3390001000013195GRANT                   ARK   XXXXXXXXXXXX
903AR027016 71356838N        3390001000004834SHERIDAN                ARK   XXXXXXXXXXXX
903AR028008C71376473N        3390001000015065GREENE                  ARK   XXXXXXXXXXXX
903AR028014 71347454N        3390001000027294PARAGOULD               ARK   XXXXXXXXXXXX
903AR028027 71337635N        3390001000001147MARMADUKE               ARK   XXXXXXXXXXXX
903AR029008C71377071N        3390001000012289HEMPSTEAD               ARK   XXXXXXXXXXXX
903AR029015 71328524N        3390001000010020HOPE                    ARK   XXXXXXXXXXXX
903AR030008C71377413N        3390001000021765HOT SPRING              ARK   XXXXXXXXXXXX
903AR030015 71336714N        3390001000010981MALVERN                 ARK   XXXXXXXXXXXX
903AR030037 71353050N        3390001000000752ROCKPORT                ARK   XXXXXXXXXXXX
903AR031008D71377449N        3390001000006780HOWARD                  ARK   XXXXXXXXXXXX
903AR031016 71342438N        3390001000004607NASHVILLE               ARK   XXXXXXXXXXXX
903AR031027 71316185N        3390001000001126DIERKS                  ARK   XXXXXXXXXXXX
903AR031047 71340179N        3390001000001200MINERAL SPRINGS         ARK   XXXXXXXXXXXX
903AR032008B71377608N        3390001000036939INDEPENDENCE            ARK   XXXXXXXXXXXX
903AR032015 71303486NAR03200 3390000000010440BATESVILLE              ARK   XXXXXXXXXXXX
903AR032027 71342790NAR03200 3390000000001190NEWARK                  ARK   XXXXXXXXXXXX
903AR032037 71342789NAR03202 3390000000000000NEWARK                  ARK   XXXXXXXXXXXX
903AR033008C71377734N        3390001000011306IZARD                   ARK   XXXXXXXXXXXX
903AR033027 71328662N        3390001000002131HORSESHOE BEND          ARK   XXXXXXXXXXXX
903AR034008D71377764N        3390001000005956JACKSON                 ARK   XXXXXXXXXXXX
903AR034016 71343536N        3390001000007658NEWPORT                 ARK   XXXXXXXXXXXX
903AR034027 71362331N        3390001000001798TUCKERMAN               ARK   XXXXXXXXXXXX
903AR034037 71316149N        3390001000001274DIAZ                    ARK   XXXXXXXXXXXX
903AR034067 71360667N        3390001000000773SWIFTON                 ARK   XXXXXXXXXXXX
903AR035009C71377956N        3390001000020681JEFFERSON               ARK   XXXXXXXXXXXX
903AR035014 71349080Y        3390001000046399PINE BLUFF              ARK   XXXXXXXXXXXX
903AR035026 71367200N        3390001000005381WHITE HALL              ARK   XXXXXXXXXXXX
903AR035037 71351640N        3390001000001428REDFIELD                ARK   XXXXXXXXXXXX
903AR035047 71397126N        3390001000000000UNIV OF AR: PINE BLUFF  ARK   XXXXXXXXXXXX
903AR035067 71301023NAR03500 3390000000000938ALTHEIMER               ARK   XXXXXXXXXXXX
903AR036008C71378094N        3390001000015026JOHNSON                 ARK   XXXXXXXXXXXX
903AR036016 71311544N        3390001000009319CLARKSVILLE             ARK   XXXXXXXXXXXX
903AR036037 71332889N        3390001000001678LAMAR                   ARK   XXXXXXXXXXXX
903AR037008D71378562N        3390001000004509LAFAYETTE               ARK   XXXXXXXXXXXX
903AR037027 71359286N        3390001000001635STAMPS                  ARK   XXXXXXXXXXXX
903AR037037 71334215N        3390001000001244LEWISVILLE              ARK   XXXXXXXXXXXX
903AR038008D71378823N        3390001000009001LAWRENCE                ARK   XXXXXXXXXXXX
903AR038016 71364404N        3390001000004714WALNUT RIDGE            ARK   XXXXXXXXXXXX
903AR038026 71328812N        3390001000002690HOXIE                   ARK   XXXXXXXXXXXX
903AR038047 71351465N        3390001000000454RAVENDEN                ARK   XXXXXXXXXXXX
903AR039008D71378901N        3390001000006129LEE                     ARK   XXXXXXXXXXXX
903AR039016 71337362N        3390001000004035MARIANNA                ARK   XXXXXXXXXXXX
903AR040009C71379120N        3390001000011917LINCOLN                 ARK   XXXXXXXXXXXX
903AR040017 71324024NAR04000 3390000000000807GOULD                   ARK   XXXXXXXXXXXX
903AR040027 71359406N        3390001000002206STAR CITY               ARK   XXXXXXXXXXXX
903AR040037 71324057NAR04000 3390000000000430GRADY                   ARK   XXXXXXXXXXXX
903AR041009D71379237N        3390001000008234LITTLE RIVER            ARK   XXXXXXXXXXXX
903AR041016 71302058N        3390001000004616ASHDOWN                 ARK   XXXXXXXXXXXX
903AR041027 71321207NAR04100 3390000000000981FOREMAN                 ARK   XXXXXXXXXXXX
903AR042008C71379303N        3390001000014500LOGAN                   ARK   XXXXXXXXXXXX
903AR042016 71305994N        3390001000003922BOONEVILLE              ARK   XXXXXXXXXXXX
903AR042026 71347478N        3390001000003457PARIS                   ARK   XXXXXXXXXXXX
903AR043009B71379336N        3390001000029155LONOKE                  ARK   XXXXXXXXXXXX
903AR043016 71319194N        3390001000002806ENGLAND                 ARK   XXXXXXXXXXXX
903AR043025 71308208N        3390001000024695CABOT                   ARK   XXXXXXXXXXXX
903AR043037 71309150N        3390001000002210CARLISLE                ARK   XXXXXXXXXXXX
903AR043046 71335400N        3390001000004244LONOKE                  ARK   XXXXXXXXXXXX
903AR043056 71302720N        3390001000002701AUSTIN                  ARK   XXXXXXXXXXXX
903AR043066 71364514N        3390001000004454WARD                    ARK   XXXXXXXXXXXX
903AR044009C71379522N        3390001000013254MADISON                 ARK   XXXXXXXXXXXX
903AR044017 71329154N        3390001000002375HUNTSVILLE              ARK   XXXXXXXXXXXX
903AR045008C71379708N        3390001000013229MARION                  ARK   XXXXXXXXXXXX
903AR045017 71369204NAR04500 3390000000001193YELLVILLE               ARK   XXXXXXXXXXXX
903AR045027 71307722N        3390001000001975BULL SHOALS             ARK   XXXXXXXXXXXX
903AR045037 71320937N        3390001000001343FLIPPIN                 ARK   XXXXXXXXXXXX
903AR046009C71380341N        3390001000013606MILLER                  ARK   XXXXXXXXXXXX
903AR046014 71361314N        3390001000030074TEXARKANA               ARK   XXXXXXXXXXXX
903AR047008C71380398N        3390001000014969MISSISSIPPI             ARK   XXXXXXXXXXXX
903AR047015 71305808N        3390001000015220BLYTHEVILLE             ARK   XXXXXXXXXXXX
903AR047026 71346596N        3390001000007494OSCEOLA                 ARK   XXXXXXXXXXXX
903AR047037 71333624N        3390001000001941LEACHVILLE              ARK   XXXXXXXXXXXX
903AR047057 71336070N        3390001000001147LUXORA                  ARK   XXXXXXXXXXXX
903AR047076 71324015N        3390001000003455GOSNELL                 ARK   XXXXXXXXXXXX
903AR047087 71331131N        3390001000000733KEISER                  ARK   XXXXXXXXXXXX
903AR047097 71315644NAR04700 3390000000000217DELL                    ARK   XXXXXXXXXXXX
903AR047107 71319533N        3390001000000342ETOWAH                  ARK   XXXXXXXXXXXX
903AR048008D71380491N        3390001000003139MONROE                  ARK   XXXXXXXXXXXX
903AR048016 71306972N        3390001000003024BRINKLEY                ARK   XXXXXXXXXXXX
903AR048027 71311412N        3390001000001576CLARENDON               ARK   XXXXXXXXXXXX
903AR048037 71328230NAR04800 3390000000000571HOLLY GROVE             ARK   XXXXXXXXXXXX
903AR049008D71380593N        3390001000009255MONTGOMERY              ARK   XXXXXXXXXXXX
903AR050008D71381028N        3390001000005653NEVADA                  ARK   XXXXXXXXXXXX
903AR050016 71350652N        3390001000003260PRESCOTT                ARK   XXXXXXXXXXXX
903AR051008D71381115N        3390001000008007NEWTON                  ARK   XXXXXXXXXXXX
903AR052008C71381727N        3390001000012516OUACHITA                ARK   XXXXXXXXXXXX
903AR052015 71308574N        3390001000011726CAMDEN                  ARK   XXXXXXXXXXXX
903AR052027 71303765N        3390001000000930BEARDEN                 ARK   XXXXXXXXXXXX
903AR052037 71359526NAR05200 3390000000000855STEPHENS                ARK   XXXXXXXXXXXX
903AR052067 71397114N        3390001000000000SOUTHERN AR UNIV TECH   ARK   XXXXXXXXXXXX
903AR053009D71382015N        3390001000008856PERRY                   ARK   XXXXXXXXXXXX
903AR053017 71348575N        3390001000001448PERRYVILLE              ARK   XXXXXXXXXXXX
903AR054008D71382087N        3390001000007801PHILLIPS                ARK   XXXXXXXXXXXX
903AR054015 71327153N        3390001000011591HELENA-WEST HELENA      ARK   XXXXXXXXXXXX
903AR054027 71366315NAR05401 3390000000000000WEST HELENA             ARK   XXXXXXXXXXXX
903AR054037 71337858N        3390001000001112MARVELL                 ARK   XXXXXXXXXXXX
903AR054047 71318300NAR05400 3390000000000593ELAINE                  ARK   XXXXXXXXXXXX
903AR055008D71382147N        3390001000007428PIKE                    ARK   XXXXXXXXXXXX
903AR055017 71342159N        3390001000001635MURFREESBORO            ARK   XXXXXXXXXXXX
903AR055027 71323669N        3390001000002218GLENWOOD                ARK   XXXXXXXXXXXX
903AR056009D71382300N        3390001000009671POINSETT                ARK   XXXXXXXXXXXX
903AR056016 71337542N        3390001000002526MARKED TREE             ARK   XXXXXXXXXXXX
903AR056026 71362280N        3390001000007163TRUMANN                 ARK   XXXXXXXXXXXX
903AR056037 71326346N        3390001000002317HARRISBURG              ARK   XXXXXXXXXXXX
903AR056047 71334065N        3390001000001861LEPANTO                 ARK   XXXXXXXXXXXX
903AR056057 71362631NAR05600 3390000000000759TYRONZA                 ARK   XXXXXXXXXXXX
903AR056077 71365692N        3390001000000699WEINER                  ARK   XXXXXXXXXXXX
903AR057008C71382312N        3390001000014693POLK                    ARK   XXXXXXXXXXXX
903AR057016 71338886N        3390001000005721MENA                    ARK   XXXXXXXXXXXX
903AR058008B71382390N        3390001000026758POPE                    ARK   XXXXXXXXXXXX
903AR058014 71353976N        3390001000028760RUSSELLVILLE            ARK   XXXXXXXXXXXX
903AR058026 71302334N        3390001000003036ATKINS                  ARK   XXXXXXXXXXXX
903AR058047 71397110N        3390001000000000AR TECH UNIVERSITY      ARK   XXXXXXXXXXXX
903AR058077 71316533N        3390001000001393DOVER                   ARK   XXXXXXXXXXXX
903AR058097 71327075NAR05800 3390000000000452HECTOR                  ARK   XXXXXXXXXXXX
903AR058106 71350505N        3390001000003064POTTSVILLE              ARK   XXXXXXXXXXXX
903AR059008D71382468N        3390001000004722PRAIRIE                 ARK   XXXXXXXXXXXX
903AR059017 71326964N        3390001000001412HAZEN                   ARK   XXXXXXXXXXXX
903AR059027 71315960N        3390001000001657DES ARC                 ARK   XXXXXXXXXXXX
903AR059037 71316044N        3390001000000591DE VALLS BLUFF          ARK   XXXXXXXXXXXX
903AR060009B71382543N        3390001000051032PULASKI                 ARK   XXXXXXXXXXXX
903AR060014 71330144N        3390001000028739JACKSONVILLE            ARK   XXXXXXXXXXXX
903AR060022 71334866Y        3390001000197399LITTLE ROCK             ARK   XXXXXXXXXXXX
903AR060033 71344616Y        3390001000065398NORTH LITTLE ROCK       ARK   XXXXXXXXXXXX
903AR060044 71356910N        3390001000029900SHERWOOD                ARK   XXXXXXXXXXXX
903AR060057 71397120N        3390001000000000UNIV OF AR: LITTLE ROCK ARK   XXXXXXXXXXXX
903AR060087 71308661N        3390001000000760CAMMACK VILLAGE         ARK   XXXXXXXXXXXX
903AR060097 71397121N        3390001000000000UNIV OF AR: MEDICAL SCIEARK   XXXXXXXXXXXX
903AR060147 71308719N        3390001000000000CAMP ROBINSON           ARK   XXXXXXXXXXXX
903AR060165 71338166N        3390001000017686MAUMELLE                ARK   XXXXXXXXXXXX
903AR060177 71359426N        3390001000000000STATE CAPITOL POLICE    ARK   XXXXXXXXXXXX
903AR061008C71382714N        3390001000011328RANDOLPH                ARK   XXXXXXXXXXXX
903AR061016 71349806N        3390001000006592POCAHONTAS              ARK   XXXXXXXXXXXX
903AR062008C71384662N        3390001000010434ST. FRANCIS             ARK   XXXXXXXXXXXX
903AR062015 71321324N        3390001000015184FORREST CITY            ARK   XXXXXXXXXXXX
903AR062027 71328932N        3390001000001398HUGHES                  ARK   XXXXXXXXXXXX
903AR062067 71336427N        3390001000000746MADISON                 ARK   XXXXXXXXXXXX
903AR063009B71383299N        3390001000061406SALINE                  ARK   XXXXXXXXXXXX
903AR063014 71304602N        3390001000032548BENTON                  ARK   XXXXXXXXXXXX
903AR063025 71307512N        3390001000019366BRYANT                  ARK   XXXXXXXXXXXX
903AR064008D71383698N        3390001000007413SCOTT                   ARK   XXXXXXXXXXXX
903AR064016 71364266N        3390001000003516WALDRON                 ARK   XXXXXXXXXXXX
903AR065008D71383728N        3390001000007953SEARCY                  ARK   XXXXXXXXXXXX
903AR066009B71383731N        3390001000026062SEBASTIAN               ARK   XXXXXXXXXXXX
903AR066013 71321552Y        3390001000087821FORT SMITH              ARK   XXXXXXXXXXXX
903AR066026 71325002N        3390001000009223GREENWOOD               ARK   XXXXXXXXXXXX
903AR066036 71303252N        3390001000004733BARLING                 ARK   XXXXXXXXXXXX
903AR066077 71337065NAR06600 3390000000001127MANSFIELD               ARK   XXXXXXXXXXXX
903AR067008C71383812N        3390001000010563SEVIER                  ARK   XXXXXXXXXXXX
903AR067016 71315894N        3390001000006636DE QUEEN                ARK   XXXXXXXXXXXX
903AR068008D71383836N        3390001000008729SHARP                   ARK   XXXXXXXXXXXX
903AR068017 71309765N        3390001000001881CAVE CITY               ARK   XXXXXXXXXXXX
903AR068027 71326199N        3390001000000763HARDY                   ARK   XXXXXXXXXXXX
903AR068037 71302079N        3390001000001069ASH FLAT                ARK   XXXXXXXXXXXX
903AR068046 71310715N        3390001000004613CHEROKEE VILLAGE        ARK   XXXXXXXXXXXX
903AR068067 71327557N        3390001000001031HIGHLAND                ARK   XXXXXXXXXXXX
903AR069008D71384711N        3390001000009909STONE                   ARK   XXXXXXXXXXXX
903AR069016 71341538N        3390001000002838MOUNTAIN VIEW           ARK   XXXXXXXXXXXX
903AR070008C71385510N        3390001000020458UNION                   ARK   XXXXXXXXXXXX
903AR070015 71318378N        3390001000018375EL DORADO               ARK   XXXXXXXXXXXX
903AR070027 71357486N        3390001000001817SMACKOVER               ARK   XXXXXXXXXXXX
903AR071008C71385657N        3390001000012275VAN BUREN               ARK   XXXXXXXXXXXX
903AR071017 71319998N        3390001000002295FAIRFIELD BAY           ARK   XXXXXXXXXXXX
903AR071026 71311963N        3390001000002561CLINTON                 ARK   XXXXXXXXXXXX
903AR072009B71386017N        3390001000045263WASHINGTON              ARK   XXXXXXXXXXXX
903AR072013 71320556Y        3390001000077900FAYETTEVILLE            ARK   XXXXXXXXXXXX
903AR072023 71358908Y        3390001000073939SPRINGDALE              ARK   XXXXXXXXXXXX
903AR072036 71350604N        3390001000004737PRAIRIE GROVE           ARK   XXXXXXXXXXXX
903AR072047 71397117N        3390001000000000UNIV OF AR: FAYETTEVILLEARK   XXXXXXXXXXXX
903AR072056 71320400N        3390001000006230FARMINGTON              ARK   XXXXXXXXXXXX
903AR072067 71334488N        3390001000002345LINCOLN                 ARK   XXXXXXXXXXXX
903AR072077 71324756N        3390001000001312GREENLAND               ARK   XXXXXXXXXXXX
903AR072087 71366252N        3390001000002426WEST FORK               ARK   XXXXXXXXXXXX
903AR072096 71330618N        3390001000003498JOHNSON                 ARK   XXXXXXXXXXXX
903AR072106 71318603N        3390001000002794ELKINS                  ARK   XXXXXXXXXXXX
903AR073008B71386443N        3390001000038232WHITE                   ARK   XXXXXXXXXXXX
903AR073015 71356016N        3390001000023720SEARCY                  ARK   XXXXXXXXXXXX
903AR073026 71303030N        3390001000002931BALD KNOB               ARK   XXXXXXXXXXXX
903AR073036 71303984N        3390001000007744BEEBE                   ARK   XXXXXXXXXXXX
903AR073047 71331320N        3390001000001682KENSETT                 ARK   XXXXXXXXXXXX
903AR073057 71347382N        3390001000000607PANGBURN                ARK   XXXXXXXXXXXX
903AR073067 71353436N        3390001000000487ROSE BUD                ARK   XXXXXXXXXXXX
903AR073077 71330834N        3390001000002055JUDSONIA                ARK   XXXXXXXXXXXX
903AR073087 71306342N        3390001000000768BRADFORD                ARK   XXXXXXXXXXXX
903AR073097 71327540NAR07300 3390000000000668HIGGINSON               ARK   XXXXXXXXXXXX
903AR073107 71338607N        3390001000000691MCRAE                   ARK   XXXXXXXXXXXX
903AR073127 71397108N        3390001000000000AR STATE UNIV: BEEBE    ARK   XXXXXXXXXXXX
903AR074008D71386662N        3390001000003233WOODRUFF                ARK   XXXXXXXXXXXX
903AR074017 71302598N        3390001000002149AUGUSTA                 ARK   XXXXXXXXXXXX
903AR074027 71338412N        3390001000001673MCCRORY                 ARK   XXXXXXXXXXXX
903AR075008C71386812N        3390001000012957YELL                    ARK   XXXXXXXXXXXX
903AR075016 71315054N        3390001000004672DARDANELLE              ARK   XXXXXXXXXXXX
903AR075027 71314976N        3390001000002370DANVILLE                ARK   XXXXXXXXXXXX
903AR075037 71345897N        3390001000001257OLA                     ARK   XXXXXXXXXXXX
903AR075047 71349479N        3390001000000602PLAINVIEW               ARK   XXXXXXXXXXXX
904CADIT007 91362377N        3720001000000000TULE RIVER TRIBAL       CALIF XXXXXXXXXXXX
904CADIT017 91328617N        3790001000000000HOPLAND TRIBAL          CALIF XXXXXXXXXXXX
904CADIT027 91369387N        3790001000000000YUROK TRIBAL            CALIF XXXXXXXXXXXX
904CADIT047 91360694N        3790001000000000SYCUAN TRIBAL           CALIF XXXXXXXXXXXX
904CADIT057 91335523N        3780001000000000LOS COYOTES TRIBAL      CALIF XXXXXXXXXXXX
904CADIT077 91352761N        3790001000000000ROBINSON RANCHERIA TRBL CALIF XXXXXXXXXXXX
904CADIT087 91328491N        3790001000000000HOOPA VALLEY TRIBAL     CALIF XXXXXXXXXXXX
904CADIT097 91314013N        3790001000000000COYOTE VALLEY TRIBAL    CALIF XXXXXXXXXXXX
904CA001009A91370432N        3790001000147565ALAMEDA                 CALIF XXXXXXXXXXXX
904CA001013 91300444N        3790001000076206ALAMEDA                 CALIF XXXXXXXXXXXX
904CA001025 91300492N        3790001000019104ALBANY                  CALIF XXXXXXXXXXXX
904CA001032 91304704Y        3790001000116217BERKELEY                CALIF XXXXXXXXXXXX
904CA001045 91319068N        3790001000010415EMERYVILLE              CALIF XXXXXXXXXXXX
904CA001052 91322182N        3790001000224475FREMONT                 CALIF XXXXXXXXXXXX
904CA001062 91326910Y        3790001000150955HAYWARD                 CALIF XXXXXXXXXXXX
904CA001073 91334950N        3790001000084350LIVERMORE               CALIF XXXXXXXXXXXX
904CA001084 91342792N        3790001000043950NEWARK                  CALIF XXXXXXXXXXXX
904CA001091C91345330Y        3790001000403887OAKLAND                 CALIF XXXXXXXXXXXX
904CA001105 91348900N        3790001000010963PIEDMONT                CALIF XXXXXXXXXXXX
904CA001113 91349650Y        3790001000072975PLEASANTON              CALIF XXXXXXXXXXXX
904CA001123 91355242Y        3790001000087490SAN LEANDRO             CALIF XXXXXXXXXXXX
904CA001133 91362754N        3790001000072480UNION CITY              CALIF XXXXXXXXXXXX
904CA001147 91317280N        3790001000000000E BAY REG PKS:ALAMEDA COCALIF XXXXXXXXXXXX
904CA001157 91397154N        3790001000000000CA ST UN: EAST BAY      CALIF XXXXXXXXXXXX
904CA001169D91385550N        3790001000000000UPRR: ALAMEDA COUNTY    CALIF XXXXXXXXXXXX
904CA001217 91355146N        3790001000000000SF BART: ALAMEDA COUNTY CALIF XXXXXXXXXXXX
904CA001227 91397348NCA00100 3790000000000000UC:LAWRENCE-LIVERMORE LACALIF XXXXXXXXXXXX
904CA001277 91397342NCA00197 3790000000000000UN CA: LAWRENCE BERKELEYCALIF XXXXXXXXXXXX
904CA001289D91370435NCA00116 3790000000000000BNSF RWY: ALAMEDA COUNTYCALIF XXXXXXXXXXXX
904CA001299D91384028NCA00116 3790000000000000SPT ALAMEDA             CALIF XXXXXXXXXXXX
904CA001304 91316742N        3790001000049789DUBLIN                  CALIF XXXXXXXXXXXX
904CA001317 91317274N        3790001000000000E BAY MUNICIPAL UTILITY CALIF XXXXXXXXXXXX
904CA001329D91385603NCA00116 3790000000000000UPRR ALAMEDA COUNTY     CALIF XXXXXXXXXXXX
904CA001977 91397324N        3790001000000000UN OF CA: BERKELEY      CALIF XXXXXXXXXXXX
904CA001989D91370441NCA00199 3790000000000000ALAMEDA STATE POLICE    CALIF XXXXXXXXXXXX
904CA001999D91370438N        3790001000000000HP: ALAMEDA COUNTY      CALIF XXXXXXXXXXXX
904CA002008D91370603N        3720001000001121ALPINE                  CALIF XXXXXXXXXXXX
904CA002998D91370606N        3720001000000000HP: ALPINE COUNTY       CALIF XXXXXXXXXXXX
904CA003008C91370609N        3720001000022670AMADOR                  CALIF XXXXXXXXXXXX
904CA003017 91301110NCA00300 3720000000000184AMADOR                  CALIF XXXXXXXXXXXX
904CA003026 91329724N        3720001000007160IONE                    CALIF XXXXXXXXXXXX
904CA003036 91330018N        3720001000004549JACKSON                 CALIF XXXXXXXXXXXX
904CA003047 91349722NCA00300 3720000000000978PLYMOUTH                CALIF XXXXXXXXXXXX
904CA003057 91360528N        3720001000002445SUTTER CREEK            CALIF XXXXXXXXXXXX
904CA003068D91385551N        3720001000000000UPRR: AMADOR COUNTY     CALIF XXXXXXXXXXXX
904CA003998D91370612N        3720001000000000HP: AMADOR COUNTY       CALIF XXXXXXXXXXXX
904CA004009B91372106N        3720001000084062BUTTE                   CALIF XXXXXXXXXXXX
904CA004017 91305166N        3720001000001711BIGGS                   CALIF XXXXXXXXXXXX
904CA004023 91311064Y        3720001000088226CHICO                   CALIF XXXXXXXXXXXX
904CA004036 91325104N        3720001000006563GRIDLEY                 CALIF XXXXXXXXXXXX
904CA004045 91346512N        3720001000015581OROVILLE                CALIF XXXXXXXXXXXX
904CA004054 91347442N        3720001000026222PARADISE                CALIF XXXXXXXXXXXX
904CA004069D91385552N        3720001000000000UPRR: BUTTE COUNTY      CALIF XXXXXXXXXXXX
904CA004079D91374792N        3720001000000000DPR: NORTHERN BUTTES    CALIF XXXXXXXXXXXX
904CA004099D91374864NCA00407 3720000000000000DPR: UPPER VALLEY       CALIF XXXXXXXXXXXX
904CA004119D91385559NCA00406 3720000000000000UPRR BUTTE COUNTY       CALIF XXXXXXXXXXXX
904CA004977 91397151N        3720001000000000CA ST UN: CHICO         CALIF XXXXXXXXXXXX
904CA004989D91372115NCA00499 3720000000000000BUTTE STATE POLICE      CALIF XXXXXXXXXXXX
904CA004999D91372112N        3720001000000000HP: BUTTE COUNTY        CALIF XXXXXXXXXXXX
904CA005008B91372148N        3720001000040827CALAVERAS               CALIF XXXXXXXXXXXX
904CA005016 91311355N        3720001000003729CITY OF ANGELS          CALIF XXXXXXXXXXXX
904CA005028D91385553N        3720001000000000UPRR: CALAVERAS COUNTY  CALIF XXXXXXXXXXXX
904CA005038D91374729N        3720001000000000DPR: CALAVERAS COUNTY   CALIF XXXXXXXXXXXX
904CA005998D91372151N        3720001000000000HP: CALAVERAS COUNTY    CALIF XXXXXXXXXXXX
904CA006008C91373579N        3720001000010296COLUSA                  CALIF XXXXXXXXXXXX
904CA006016 91312960N        3720001000005957COLUSA                  CALIF XXXXXXXXXXXX
904CA006026 91367626N        3720001000005176WILLIAMS                CALIF XXXXXXXXXXXX
904CA006038D91385554N        3720001000000000UPRR: COLUSA COUNTY     CALIF XXXXXXXXXXXX
904CA006988D91373585NCA00699 3720000000000000COLUSA STATE POLICE     CALIF XXXXXXXXXXXX
904CA006998D91373582N        3720001000000000HP: COLUSA COUNTY       CALIF XXXXXXXXXXXX
904CA007009A91373612N        3790001000162983CONTRA COSTA            CALIF XXXXXXXXXXXX
904CA007012 91301566N        3790001000106447ANTIOCH                 CALIF XXXXXXXXXXXX
904CA007023 91306636N        3790001000054301BRENTWOOD               CALIF XXXXXXXXXXXX
904CA007035 91311640N        3790001000011439CLAYTON                 CALIF XXXXXXXXXXXX
904CA007042 91313062N        3790001000125464CONCORD                 CALIF XXXXXXXXXXXX
904CA007055 91318354N        3790001000024184EL CERRITO              CALIF XXXXXXXXXXXX
904CA007065 91327348N        3790001000024831HERCULES                CALIF XXXXXXXXXXXX
904CA007075 91349266N        3790001000018848PINOLE                  CALIF XXXXXXXXXXXX
904CA007083 91349326N        3790001000066387PITTSBURG               CALIF XXXXXXXXXXXX
904CA007094 91349614N        3790001000034044PLEASANT HILL           CALIF XXXXXXXXXXXX
904CA007102 91352128N        3790001000107341RICHMOND                CALIF XXXXXXXXXXXX
904CA007114 91355290N        3790001000029893SAN PABLO               CALIF XXXXXXXXXXXX
904CA007123 91364392Y        3790001000066149WALNUT CREEK            CALIF XXXXXXXXXXXX
904CA007136 91331332N        3790001000005230KENSINGTON              CALIF XXXXXXXXXXXX
904CA007144 91337818N        3790001000036910MARTINEZ                CALIF XXXXXXXXXXXX
904CA007155 91332232N        3790001000024829LAFAYETTE               CALIF XXXXXXXXXXXX
904CA007165 91341082N        3790001000016664MORAGA                  CALIF XXXXXXXXXXXX
904CA007177 91317286N        3790001000000000E BY REG PK:CONTRA COSTACALIF XXXXXXXXXXXX
904CA007187 91355152N        3790001000000000SF BART: CONTRA COSTA COCALIF XXXXXXXXXXXX
904CA007199D91373615NCA00733 3790000000000000BNSF RWY:CONTRA COSTA COCALIF XXXXXXXXXXXX
904CA007209D91384241NCA00733 3790000000000000SPT CONTRA COSTA        CALIF XXXXXXXXXXXX
904CA007217 91397222N        3790001000000000CONTRA COSTA COMM COLLEGCALIF XXXXXXXXXXXX
904CA007234 91314982N        3790001000043411DANVILLE                CALIF XXXXXXXXXXXX
904CA007243 91355302Y        3790001000074434SAN RAMON               CALIF XXXXXXXXXXXX
904CA007259D91374744NCA04126 3790000000000000DPR: CONTRA COSTA COUNTYCALIF XXXXXXXXXXXX
904CA007265 91346446N        3790001000018520ORINDA                  CALIF XXXXXXXXXXXX
904CA007339D91385555N        3790001000000000UPRR: CONTRA COSTA CNTY CALIF XXXXXXXXXXXX
904CA007344 91345399N        3790001000037824OAKLEY                  CALIF XXXXXXXXXXXX
904CA007989D91373621NCA00799 3790000000000000CONTRA COSTA STATE POLICCALIF XXXXXXXXXXXX
904CA007999D91373618N        3790001000000000HP: CONTRA COSTA COUNTY CALIF XXXXXXXXXXXX
904CA008008C91374217N        3790001000020898DEL NORTE               CALIF XXXXXXXXXXXX
904CA008016 91314154N        3790001000007333CRESCENT CITY           CALIF XXXXXXXXXXXX
904CA008998D91374218N        3790001000000000HP: DEL NORTE COUNTY    CALIF XXXXXXXXXXXX
904CA009009A91375058N        3720001000149028EL DORADO               CALIF XXXXXXXXXXXX
904CA009015 91349404N        3720001000010339PLACERVILLE             CALIF XXXXXXXXXXXX
904CA009025 91358356N        3720001000021243SOUTH LAKE TAHOE        CALIF XXXXXXXXXXXX
904CA009039D91385556N        3720001000000000UPRR: EL DORADO COUNTY  CALIF XXXXXXXXXXXX
904CA009239D91374747NCA03422 3720000000000000DPR: EL DORADO COUNTY   CALIF XXXXXXXXXXXX
904CA009989D91375061NCA00999 3720000000000000EL DORADO STATE POLICE  CALIF XXXXXXXXXXXX
904CA009999D91375062N        3720001000000000HP: EL DORADO COUNTY    CALIF XXXXXXXXXXXX
904CA010M19D91373382N        3720001000000000COALINGA STATE HOSPITAL CALIF XXXXXXXXXXXX
904CA010009A91375754N        3720001000172762FRESNO                  CALIF XXXXXXXXXXXX
904CA010013 91312162N        3720001000099483CLOVIS                  CALIF XXXXXXXXXXXX
904CA010025 91312252N        3720001000016398COALINGA                CALIF XXXXXXXXXXXX
904CA010036 91320766N        3720001000008062FIREBAUGH               CALIF XXXXXXXXXXXX
904CA010046 91321684N        3720001000006038FOWLER                  CALIF XXXXXXXXXXXX
904CA010051B91322224Y        3720001000508876FRESNO                  CALIF XXXXXXXXXXXX
904CA010066 91329196N        3720001000006812HURON                   CALIF XXXXXXXXXXXX
904CA010075 91331416N        3720001000014543KERMAN                  CALIF XXXXXXXXXXXX
904CA010085 91331680N        3720001000011651KINGSBURG               CALIF XXXXXXXXXXXX
904CA010095 91338952N        3720001000011472MENDOTA                 CALIF XXXXXXXXXXXX
904CA010106 91346326N        3720001000009750ORANGE COVE             CALIF XXXXXXXXXXXX
904CA010115 91347676N        3720001000014856PARLIER                 CALIF XXXXXXXXXXXX
904CA010124 91351774N        3720001000025018REEDLEY                 CALIF XXXXXXXXXXXX
904CA010135 91355176N        3720001000024649SANGER                  CALIF XXXXXXXXXXXX
904CA010146 91355200NCA01000 3720000000004005SAN JOAQUIN             CALIF XXXXXXXXXXXX
904CA010155 91356208N        3720001000023935SELMA                   CALIF XXXXXXXXXXXX
904CA010177 91397315N        3720001000000000STATE CENTER COM COL DSTCALIF XXXXXXXXXXXX
904CA010189D91375757NCA01024 3720000000000000BNSF RWY: FRESNO COUNTY CALIF XXXXXXXXXXXX
904CA010199D91384253NCA01024 3720000000000000SPT FRESNO              CALIF XXXXXXXXXXXX
904CA010249D91385557N        3720001000000000UPRR: FRESNO COUNTY     CALIF XXXXXXXXXXXX
904CA010309D91374834N        3720001000000000DPR: SAN JOAQUIN        CALIF XXXXXXXXXXXX
904CA010317 91397279NCA01017 3720000000000000REEDLEY COMMUNITY COLLEGCALIF XXXXXXXXXXXX
904CA010977 91397155N        3720001000000000CA ST UN: FRESNO        CALIF XXXXXXXXXXXX
904CA010989D91375763NCA01099 3720000000000000FRESNO STATE POLICE     CALIF XXXXXXXXXXXX
904CA010999D91375760N        3720001000000000HP: FRESNO COUNTY       CALIF XXXXXXXXXXXX
904CA011008C91376198N        3720001000014453GLENN                   CALIF XXXXXXXXXXXX
904CA011016 91346458N        3720001000007420ORLAND                  CALIF XXXXXXXXXXXX
904CA011026 91367818N        3720001000006122WILLOWS                 CALIF XXXXXXXXXXXX
904CA011038D91385558N        3720001000000000UPRR: GLENN COUNTY      CALIF XXXXXXXXXXXX
904CA011998D91376201N        3720001000000000HP: GLENN COUNTY        CALIF XXXXXXXXXXXX
904CA012008B91377506N        3790001000073717HUMBOLDT                CALIF XXXXXXXXXXXX
904CA012015 91301770N        3790001000017805ARCATA                  CALIF XXXXXXXXXXXX
904CA012027 91305742NCA01200 3790000000001247BLUE LAKE               CALIF XXXXXXXXXXXX
904CA012034 91319602N        3790001000026881EUREKA                  CALIF XXXXXXXXXXXX
904CA012047 91320676N        3790001000001364FERNDALE                CALIF XXXXXXXXXXXX
904CA012055 91321576N        3790001000011803FORTUNA                 CALIF XXXXXXXXXXXX
904CA012067 91362172NCA01200 3790000000000363TRINIDAD                CALIF XXXXXXXXXXXX
904CA012076 91352464N        3790001000003368RIO DELL                CALIF XXXXXXXXXXXX
904CA012087 91397246N        3790001000000000HUMBOLDT STATE UNIVERSITCALIF XXXXXXXXXXXX
904CA012098D91385562N        3790001000000000UPRR: HUMBOLDT COUNTY   CALIF XXXXXXXXXXXX
904CA012108D91374745NCA01211 3790000000000000DPR: EEL RIVER          CALIF XXXXXXXXXXXX
904CA012118D91374795N        3790001000000000DPR: N COAST REDWOODS   CALIF XXXXXXXXXXXX
904CA012998D91377509N        3790001000000000HP: HUMBOLDT COUNTY     CALIF XXXXXXXXXXXX
904CA013009B91377599N        3780001000037121IMPERIAL                CALIF XXXXXXXXXXXX
904CA013014 91306526N        3780001000025753BRAWLEY                 CALIF XXXXXXXXXXXX
904CA013024 91308352N        3780001000039527CALEXICO                CALIF XXXXXXXXXXXX
904CA013036 91308418N        3780001000008061CALIPATRIA              CALIF XXXXXXXXXXXX
904CA013044 91318348Y        3780001000043249EL CENTRO               CALIF XXXXXXXXXXXX
904CA013056 91328314N        3780001000006022HOLTVILLE               CALIF XXXXXXXXXXXX
904CA013065 91329406N        3780001000015943IMPERIAL                CALIF XXXXXXXXXXXX
904CA013077 91366594N        3780001000002279WESTMORLAND             CALIF XXXXXXXXXXXX
904CA013089D91385563N        3780001000000000UPRR: IMPERIAL COUNTY   CALIF XXXXXXXXXXXX
904CA013099D91374765NCA01300 3780000000000000DPR: IMPERIAL COUNTY    CALIF XXXXXXXXXXXX
904CA013989D91377602NCA01399 3780000000000000IMPERIAL STATE POLICE   CALIF XXXXXXXXXXXX
904CA013999D91377600N        3780001000000000HP: IMPERIAL COUNTY     CALIF XXXXXXXXXXXX
904CA014008C91377647N        3720001000014647INYO                    CALIF XXXXXXXXXXXX
904CA014016 91305322N        3720001000003861BISHOP                  CALIF XXXXXXXXXXXX
904CA014038D91385565N        3720001000000000UPRR: INYO COUNTY       CALIF XXXXXXXXXXXX
904CA014998D91377650N        3720001000000000HP: INYO COUNTY         CALIF XXXXXXXXXXXX
904CA015009A91378310N        3720001000326104KERN                    CALIF XXXXXXXXXXXX
904CA015015 91302022N        3720001000020390ARVIN                   CALIF XXXXXXXXXXXX
904CA015021C91303000Y        3720001000361859BAKERSFIELD             CALIF XXXXXXXXXXXX
904CA015033 91315546N        3720001000052210DELANO                  CALIF XXXXXXXXXXXX
904CA015047 91337380NCA01500 3720000000001166MARICOPA                CALIF XXXXXXXXXXXX
904CA015055 91338448N        3720001000012288MCFARLAND               CALIF XXXXXXXXXXXX
904CA015064 91352278N        3720001000028537RIDGECREST              CALIF XXXXXXXXXXXX
904CA015075 91356424N        3720001000017139SHAFTER                 CALIF XXXXXXXXXXXX
904CA015086 91360786N        3720001000008839TAFT                    CALIF XXXXXXXXXXXX
904CA015095 91361146N        3720001000013607TEHACHAPI               CALIF XXXXXXXXXXXX
904CA015104 91364800NCA01500 3720000000025438WASCO                   CALIF XXXXXXXXXXXX
904CA015115 91308412N        3720001000013339CALIFORNIA CITY         CALIF XXXXXXXXXXXX
904CA015137 91311136NCA01500 3720000000001933CHINA LAKE              CALIF XXXXXXXXXXXX
904CA015146 91359264N        3720001000002562STALLION SPRINGS        CALIF XXXXXXXXXXXX
904CA015156 91303774N        3720001000005328BEAR VALLEY             CALIF XXXXXXXXXXXX
904CA015169D91378313NCA01522 3720000000000000BNSF RWY: KERN COUNTY   CALIF XXXXXXXXXXXX
904CA015179D91384046NCA01522 3720000000000000SO PACIFIC TRANS KERN   CALIF XXXXXXXXXXXX
904CA015229D91385566N        3720001000000000UPRR: KERN COUNTY       CALIF XXXXXXXXXXXX
904CA015977 91397149N        3720001000000000CA ST UN: BAKERSFIELD   CALIF XXXXXXXXXXXX
904CA015989D91378319NCA01599 3720000000000000KERN STATE POLICE       CALIF XXXXXXXXXXXX
904CA015999D91378316N        3720001000000000HP: KERN COUNTY         CALIF XXXXXXXXXXXX
904CA016009B91378388N        3720001000034027KINGS                   CALIF XXXXXXXXXXXX
904CA016015 91313482Y        3720001000023290CORCORAN                CALIF XXXXXXXXXXXX
904CA016023 91326025Y        3720001000054425HANFORD                 CALIF XXXXXXXXXXXX
904CA016035 91333960N        3720001000024802LEMOORE                 CALIF XXXXXXXXXXXX
904CA016049D91378394NCA01605 3720000000000000BNSF RWY: KINGS COUNTY  CALIF XXXXXXXXXXXX
904CA016059D91385568N        3720001000000000UPRR: KINGS COUNTY      CALIF XXXXXXXXXXXX
904CA016069D91382408N        3720001000000000PORTERVILLE DEVELOP CENTCALIF XXXXXXXXXXXX
904CA016075 91302769N        3720001000014712AVENAL                  CALIF XXXXXXXXXXXX
904CA016989D91378406NCA01699 3720000000000000KINGS STATE POLICE      CALIF XXXXXXXXXXXX
904CA016999D91378397N        3720001000000000HP: KINGS COUNTY        CALIF XXXXXXXXXXXX
904CA017008B91378607N        3790001000044191LAKE                    CALIF XXXXXXXXXXXX
904CA017016 91332670N        3790001000004674LAKEPORT                CALIF XXXXXXXXXXXX
904CA017025 91311748N        3790001000014951CLEARLAKE               CALIF XXXXXXXXXXXX
904CA017038D91374771NCA04911 3790000000000000DPR: LAKE COUNTY        CALIF XXXXXXXXXXXX
904CA017998D91378646N        3790001000000000HP: LAKE COUNTY         CALIF XXXXXXXXXXXX
