901AL001009A61577950N        3070001000145801JEFFERSON               ALA   XXXXXXXXXXXX
901AL001014 61504914N        3070001000026828BESSEMER                ALA   XXXXXXXXXXXX
901AL001022 61505280Y        3070001000212291BIRMINGHAM              ALA   XXXXXXXXXXXX
901AL001035 61541490N        3070001000020801MOUNTAIN BROOK          ALA   XXXXXXXXXXXX
901AL001045 61519944N        3070001000010958FAIRFIELD               ALA   XXXXXXXXXXXX
901AL001055 61522692N        3070001000013690GARDENDALE              ALA   XXXXXXXXXXXX
901AL001065 61533798N        3070001000011975LEEDS                   ALA   XXXXXXXXXXXX
901AL001076 61539558N        3070001000005240MIDFIELD                ALA   XXXXXXXXXXXX
901AL001086 61560972N        3070001000006225TARRANT                 ALA   XXXXXXXXXXXX
901AL001094 61563738N        3070001000034143VESTAVIA HILLS          ALA   XXXXXXXXXXXX
901AL001104 61528404N        3070001000025968HOMEWOOD                ALA   XXXXXXXXXXXX
901AL001116 61522428N        3070001000009044FULTONDALE              ALA   XXXXXXXXXXXX
901AL001123 61528506Y        3070001000085163HOOVER                  ALA   XXXXXXXXXXXX
901AL001135 61529778N        3070001000012469IRONDALE                ALA   XXXXXXXXXXXX
901AL001145 61549602N        3070001000010382PLEASANT GROVE          ALA   XXXXXXXXXXXX
901AL001157 61553358NAL00100 3070000000000000ROOSEVELT CITY          ALA   XXXXXXXXXXXX
901AL001167 61524504NAL00100 3070000000002103GRAYSVILLE              ALA   XXXXXXXXXXXX
901AL001177 61507390NAL00100 3070000000000000BROWNSVILLE             ALA   XXXXXXXXXXXX
901AL001186 61506912N        3070001000002870BRIGHTON                ALA   XXXXXXXXXXXX
901AL001195 61528930N        3070001000015745HUEYTOWN                ALA   XXXXXXXXXXXX
901AL001207 61534716N        3070001000002167LIPSCOMB                ALA   XXXXXXXXXXXX
901AL001215 61562304N        3070001000020874TRUSSVILLE              ALA   XXXXXXXXXXXX
901AL001226 61500246N        3070001000004414ADAMSVILLE              ALA   XXXXXXXXXXXX
901AL001236 61564704N        3070001000003194WARRIOR                 ALA   XXXXXXXXXXXX
901AL001247 61597036N        3070001000000000UNIV OF AL: BIRMINGHAM  ALA   XXXXXXXXXXXX
901AL001257 61562022N        3070001000000639TRAFFORD                ALA   XXXXXXXXXXXX
901AL001267 61541214N        3070001000001926MORRIS                  ALA   XXXXXXXXXXXX
901AL001277 61507314N        3070001000001335BROOKSIDE               ALA   XXXXXXXXXXXX
901AL001287 61509114NAL00100 3070000000000054CARDIFF                 ALA   XXXXXXXXXXXX
901AL001296 61531620N        3070001000002868KIMBERLY                ALA   XXXXXXXXXXXX
901AL001307 61513860NAL00100 3070000000000262COUNTY LINE             ALA   XXXXXXXXXXXX
901AL001327 61560928N        3070001000000000TANNEHILL IRONWORKS H SPALA   XXXXXXXXXXXX
901AL001347 61597021N        3070001000000000JEFFERSON STATE COMM COLALA   XXXXXXXXXXXX
901AL001357 61544068N        3070001000000000NORFOLK SOUTHERN RAILWAYALA   XXXXXXXXXXXX
901AL001417 61597024N        3070001000000000SAMFORD UNIVERSITY      ALA   XXXXXXXXXXXX
901AL001457 61562307N        3070001000000000TRUSSVILLE FD F&EXP I U ALA   XXXXXXXXXXXX
901AL002009A61580431N        3490001000105181MOBILE                  ALA   XXXXXXXXXXXX
901AL002011C61540392Y        3490001000250346MOBILE                  ALA   XXXXXXXXXXXX
901AL002025 61550718N        3490001000022236PRICHARD                ALA   XXXXXXXXXXXX
901AL002036 61511052N        3490001000005954CHICKASAW               ALA   XXXXXXXXXXXX
901AL002046 61511352N        3490001000003881CITRONELLE              ALA   XXXXXXXXXXXX
901AL002055 61555428N        3490001000013778SARALAND                ALA   XXXXXXXXXXXX
901AL002066 61503666N        3490001000002621BAYOU LA BATRE          ALA   XXXXXXXXXXXX
901AL002076 61555506N        3490001000006169SATSUMA                 ALA   XXXXXXXXXXXX
901AL002087 61541928N        3490001000001557MOUNT VERNON            ALA   XXXXXXXXXXXX
901AL002097 61567848NAL00200 3490000000000000WILMER                  ALA   XXXXXXXXXXXX
901AL002127 61514142N        3490001000001947CREOLA                  ALA   XXXXXXXXXXXX
901AL002137 61540395N        3490001000000000MOBILE REGIONAL AIRPORT ALA   XXXXXXXXXXXX
901AL002147 61597058N        3490001000000000UNIV OF SOUTH ALABAMA   ALA   XXXXXXXXXXXX
901AL002157 61515105N        3490001000001244DAUPHIN ISLAND          ALA   XXXXXXXXXXXX
901AL002177 61597012N        3490001000000000BISHOP STATE COMMUNITY CALA   XXXXXXXXXXXX
901AL003009B61580596N        3490001000025820MONTGOMERY              ALA   XXXXXXXXXXXX
901AL003012 61540770Y        3490001000199139MONTGOMERY              ALA   XXXXXXXXXXXX
901AL003039E61570398NAL00300 3490000000000000AL CONSER DPT MARINE POLALA   XXXXXXXXXXXX
901AL003049D61570396N        3490001000000000AL ALC BEV CONTROL BOARDALA   XXXXXXXXXXXX
901AL003059D61570399N        3490001000000000AL DEPT OF MENTAL HEALTHALA   XXXXXXXXXXXX
901AL003067 61597007N        3490001000000000ALABAMA STATE UNIVERSITYALA   XXXXXXXXXXXX
901AL003077 61597010N        3490001000000000AUBURN UNIV, MONTGOMERY ALA   XXXXXXXXXXXX
901AL003089D61570401N        3490001000000000AL PUB SERV COMM ENF DIVALA   XXXXXXXXXXXX
901AL003109E61570400N        3490001000000000AL FORESTRY CMSN LE SECTALA   XXXXXXXXXXXX
901AL003139D61584457NAL00300 3490000000000000STATE CAPITOL POLICE    ALA   XXXXXXXXXXXX
901AL003149E61584459N        3490001000000000STATE FIRE MARSHAL      ALA   XXXXXXXXXXXX
901AL003197 61511357NAL00301 3490000000000000CITY MNTGMRY HUSNG AU IUALA   XXXXXXXXXXXX
901AL003209E61570397N        3490001000000000AL CRIM JUS INF C INV UNALA   XXXXXXXXXXXX
901AL003227 61503207NAL00301 3490000000000000BAPTIST MEDICAL CENTER  ALA   XXXXXXXXXXXX
901AL003FA7 61597016NAL00301 3490000000000000FAULKNER UNIVERSITY     ALA   XXXXXXXXXXXX
901AL004009C61570924N        3490001000020763AUTAUGA                 ALA   XXXXXXXXXXXX
901AL004014 61550634N        3490001000035637PRATTVILLE              ALA   XXXXXXXXXXXX
901AL004027 61502748N        3490001000000861AUTAUGAVILLE            ALA   XXXXXXXXXXXX
901AL005009B61570978N        3490001000098281BALDWIN                 ALA   XXXXXXXXXXXX
901AL005016 61503655N        3490001000009234BAY MINETTE             ALA   XXXXXXXXXXXX
901AL005025 61520058Y        3490001000018821FAIRHOPE                ALA   XXXXXXXXXXXX
901AL005035 61521144Y        3490001000016644FOLEY                   ALA   XXXXXXXXXXXX
901AL005045 61525356N        3490001000011175GULF SHORES             ALA   XXXXXXXXXXXX
901AL005056 61552800N        3490001000005895ROBERTSDALE             ALA   XXXXXXXXXXXX
901AL005067 61535868N        3490001000001748LOXLEY                  ALA   XXXXXXXXXXXX
901AL005077 61557210N        3490001000000766SILVERHILL              ALA   XXXXXXXXXXXX
901AL005084 61515030Y        3490001000025087DAPHNE                  ALA   XXXXXXXXXXXX
901AL005097 61560210N        3490001000001033SUMMERDALE              ALA   XXXXXXXXXXXX
901AL005107 61518309N        3490001000001664ELBERTA                 ALA   XXXXXXXXXXXX
901AL005117 61597015N        3490001000000000FAULKNER STATE COMMNTY CALA   XXXXXXXXXXXX
901AL005126 61546305N        3490001000005874ORANGE BEACH            ALA   XXXXXXXXXXXX
901AL005136 61558653N        3490001000008039SPANISH FORT            ALA   XXXXXXXXXXXX
901AL006008D61571035N        3490001000009010BARBOUR                 ALA   XXXXXXXXXXXX
901AL006015 61519560N        3490001000012710EUFAULA                 ALA   XXXXXXXXXXXX
901AL006026 61511634N        3490001000002934CLAYTON                 ALA   XXXXXXXXXXXX
901AL006037 61512102N        3490001000001590CLIO                    ALA   XXXXXXXXXXXX
901AL006047 61535598N        3490001000000491LOUISVILLE              ALA   XXXXXXXXXXXX
901AL006077 61502991NAL00600 3490000000000267BAKER HILL              ALA   XXXXXXXXXXXX
901AL007009C61571398N        3070001000013361BIBB                    ALA   XXXXXXXXXXXX
901AL007016 61510158N        3070001000002689CENTREVILLE             ALA   XXXXXXXXXXXX
901AL007026 61506630N        3070001000004866BRENT                   ALA   XXXXXXXXXXXX
901AL007037 61565952NAL00700 3070000000001252WEST BLOCTON            ALA   XXXXXXXXXXXX
901AL007047 61568763N        3070001000001524WOODSTOCK               ALA   XXXXXXXXXXXX
901AL008009B61571575N        3070001000046763BLOUNT                  ALA   XXXXXXXXXXXX
901AL008016 61546170N        3070001000006642ONEONTA                 ALA   XXXXXXXXXXXX
901AL008027 61505694N        3070001000001701BLOUNTSVILLE            ALA   XXXXXXXXXXXX
901AL008037 61511820N        3070001000001319CLEVELAND               ALA   XXXXXXXXXXXX
901AL008047 61557618N        3070001000000845SNEAD                   ALA   XXXXXXXXXXXX
901AL008057 61527609N        3070001000000425HIGHLAND LAKE           ALA   XXXXXXXXXXXX
901AL009008D61572010N        3490001000006796BULLOCK                 ALA   XXXXXXXXXXXX
901AL009016 61562826N        3490001000003923UNION SPRINGS           ALA   XXXXXXXXXXXX
901AL010008C61572079N        3490001000010090BUTLER                  ALA   XXXXXXXXXXXX
901AL010016 61524888N        3490001000007845GREENVILLE              ALA   XXXXXXXXXXXX
901AL010027 61523106N        3490001000001666GEORGIANA               ALA   XXXXXXXXXXXX
901AL010037 61538520N        3490001000000513MCKENZIE                ALA   XXXXXXXXXXXX
901AL011009B61572208N        3070001000053780CALHOUN                 ALA   XXXXXXXXXXXX
901AL011015 61501488Y        3070001000022306ANNISTON                ALA   XXXXXXXXXXXX
901AL011025 61530138Y        3070001000012173JACKSONVILLE            ALA   XXXXXXXXXXXX
901AL011036 61548894N        3070001000004703PIEDMONT                ALA   XXXXXXXXXXXX
901AL011046 61565568N        3070001000003090WEAVER                  ALA   XXXXXXXXXXXX
901AL011055 61546866Y        3070001000021113OXFORD                  ALA   XXXXXXXXXXXX
901AL011067 61528008N        3070001000000763HOBSON CITY             ALA   XXXXXXXXXXXX
901AL011077 61545798N        3070001000001141OHATCHEE                ALA   XXXXXXXXXXXX
901AL011087 61597018N        3070001000000000JACKSONVILLE STATE UNIV ALA   XXXXXXXXXXXX
901AL012008C61572688N        3490001000015139CHAMBERS                ALA   XXXXXXXXXXXX
901AL012016 61532226N        3490001000002981LAFAYETTE               ALA   XXXXXXXXXXXX
901AL012026 61533078N        3490001000006444LANETT                  ALA   XXXXXXXXXXXX
901AL012046 61563288N        3490001000009451VALLEY                  ALA   XXXXXXXXXXXX
901AL013008C61572880N        3070001000019536CHEROKEE                ALA   XXXXXXXXXXXX
901AL013016 61510146N        3070001000003622CENTRE                  ALA   XXXXXXXXXXXX
901AL013027 61509828N        3070001000001814CEDAR BLUFF             ALA   XXXXXXXXXXXX
901AL013037 61533802N        3070001000001021LEESBURG                ALA   XXXXXXXXXXXX
901AL014009B61572973N        3490001000029704CHILTON                 ALA   XXXXXXXXXXXX
901AL014016 61511370N        3490001000008751CLANTON                 ALA   XXXXXXXXXXXX
901AL014027 61537224N        3490001000000704MAPLESVILLE             ALA   XXXXXXXXXXXX
901AL014036 61530474N        3490001000002634JEMISON                 ALA   XXXXXXXXXXXX
901AL014047 61561510N        3490001000002033THORSBY                 ALA   XXXXXXXXXXXX
901AL015008C61573003N        3490001000011167CHOCTAW                 ALA   XXXXXXXXXXXX
901AL015017 61508082N        3490001000001802BUTLER                  ALA   XXXXXXXXXXXX
901AL015027 61523280N        3490001000000206GILBERTOWN              ALA   XXXXXXXXXXXX
901AL015037 61548288NAL01500 3490000000000210PENNINGTON              ALA   XXXXXXXXXXXX
901AL015047 61557156NAL01500 3490000000000433SILAS                   ALA   XXXXXXXXXXXX
901AL015057 61561999NAL01500 3490000000000131TOXEY                   ALA   XXXXXXXXXXXX
901AL016008C61573150N        3490001000014165CLARKE                  ALA   XXXXXXXXXXXX
901AL016016 61530012N        3490001000004979JACKSON                 ALA   XXXXXXXXXXXX
901AL016026 61561440N        3490001000004062THOMASVILLE             ALA   XXXXXXXXXXXX
901AL016037 61525236N        3490001000001496GROVE HILL              ALA   XXXXXXXXXXXX
901AL016047 61522386NAL01600 3490000000000262FULTON                  ALA   XXXXXXXXXXXX
901AL016067 61512387NAL01600 3490000000000339COFFEEVILLE             ALA   XXXXXXXXXXXX
901AL017008D61573201N        3070001000009172CLAY                    ALA   XXXXXXXXXXXX
901AL017017 61502088N        3070001000001972ASHLAND                 ALA   XXXXXXXXXXXX
901AL017027 61534686N        3070001000002305LINEVILLE               ALA   XXXXXXXXXXXX
901AL018008C61573294N        3070001000011148CLEBURNE                ALA   XXXXXXXXXXXX
901AL018016 61527084N        3070001000003525HEFLIN                  ALA   XXXXXXXXXXXX
901AL018027 61551312N        3070001000000412RANBURNE                ALA   XXXXXXXXXXXX
901AL019008C61573414N        3490001000017907COFFEE                  ALA   XXXXXXXXXXXX
901AL019016 61518306N        3490001000003879ELBA                    ALA   XXXXXXXXXXXX
901AL019024 61519272N        3490001000028028ENTERPRISE              ALA   XXXXXXXXXXXX
901AL019037 61542984N        3490001000001152NEW BROCKTON            ALA   XXXXXXXXXXXX
901AL019047 61531842N        3490001000000537KINSTON                 ALA   XXXXXXXXXXXX
901AL019057 61597014NAL01901 3490000000000000ENTERPRISE ST JUNIOR CO ALA   XXXXXXXXXXXX
901AL020009C61573426N        3070001000020342COLBERT                 ALA   XXXXXXXXXXXX
901AL020016 61556622N        3070001000009170SHEFFIELD               ALA   XXXXXXXXXXXX
901AL020026 61562502N        3070001000008513TUSCUMBIA               ALA   XXXXXXXXXXXX
901AL020035 61542210Y        3070001000013720MUSCLE SHOALS           ALA   XXXXXXXXXXXX
901AL020047 61510686N        3070001000001018CHEROKEE                ALA   XXXXXXXXXXXX
901AL020057 61533900N        3070001000000715LEIGHTON                ALA   XXXXXXXXXXXX
901AL020067 61534926N        3070001000000992LITTLEVILLE             ALA   XXXXXXXXXXXX
901AL020087 61597022N        3070001000000000NORTHWEST-SHOALS COMM COALA   XXXXXXXXXXXX
901AL021008D61573606N        3490001000008508CONECUH                 ALA   XXXXXXXXXXXX
901AL021016 61519776N        3490001000003731EVERGREEN               ALA   XXXXXXXXXXXX
901AL021027 61509663NAL02100 3490000000000560CASTLEBERRY             ALA   XXXXXXXXXXXX
901AL021037 61551877N        3490001000000270REPTON                  ALA   XXXXXXXXXXXX
901AL022008D61573666N        3490001000009334COOSA                   ALA   XXXXXXXXXXXX
901AL022017 61523904N        3490001000001329GOODWATER               ALA   XXXXXXXXXXXX
901AL022027 61552950NAL02200 3490000000000442ROCKFORD                ALA   XXXXXXXXXXXX
901AL023008C61573708N        3490001000018370COVINGTON               ALA   XXXXXXXXXXXX
901AL023016 61501326N        3490001000009096ANDALUSIA               ALA   XXXXXXXXXXXX
901AL023026 61546248N        3490001000006681OPP                     ALA   XXXXXXXXXXXX
901AL023037 61520952N        3490001000001981FLORALA                 ALA   XXXXXXXXXXXX
901AL023047 61522637N        3490001000000223GANTT                   ALA   XXXXXXXXXXXX
901AL023057 61551684N        3490001000000491RED LEVEL               ALA   XXXXXXXXXXXX
901AL023067 61535058N        3490001000000520LOCKHART                ALA   XXXXXXXXXXXX
901AL023077 61552575N        3490001000000527RIVER FALLS             ALA   XXXXXXXXXXXX
901AL023087 61500026N        349000100000000022ND JUD CIRCUIT DRUG TFALA   XXXXXXXXXXXX
901AL024008D61573795N        3490001000009996CRENSHAW                ALA   XXXXXXXXXXXX
901AL024016 61536060N        3490001000002846LUVERNE                 ALA   XXXXXXXXXXXX
901AL024027 61506498N        3490001000000809BRANTLEY                ALA   XXXXXXXXXXXX
901AL024037 61516638N        3490001000000333DOZIER                  ALA   XXXXXXXXXXXX
901AL024047 61523666NAL02400 3490000000000190GLENWOOD                ALA   XXXXXXXXXXXX
901AL025008B61573843N        3070001000062851CULLMAN                 ALA   XXXXXXXXXXXX
901AL025015 61514568N        3070001000015229CULLMAN                 ALA   XXXXXXXXXXXX
901AL025026 61525992N        3070001000003269HANCEVILLE              ALA   XXXXXXXXXXXX
901AL025037 61522650NAL02500 3070000000000491GARDEN CITY             ALA   XXXXXXXXXXXX
901AL025047 61523865NAL02500 3070000000002269GOOD HOPE               ALA   XXXXXXXXXXXX
901AL026008C61574002N        3490001000019566DALE                    ALA   XXXXXXXXXXXX
901AL026015 61546974N        3490001000014646OZARK                   ALA   XXXXXXXXXXXX
901AL026026 61514778N        3490001000005103DALEVILLE               ALA   XXXXXXXXXXXX
901AL026037 61534122N        3490001000002010LEVEL PLAINS            ALA   XXXXXXXXXXXX
901AL026047 61542354N        3490001000000344NAPIER FIELD            ALA   XXXXXXXXXXXX
901AL026057 61543716N        3490001000001463NEWTON                  ALA   XXXXXXXXXXXX
901AL026067 61539592N        3490001000002411MIDLAND CITY            ALA   XXXXXXXXXXXX
901AL026077 61549050N        3490001000000632PINCKARD                ALA   XXXXXXXXXXXX
901AL026087 61501860N        3490001000000741ARITON                  ALA   XXXXXXXXXXXX
901AL026097 61511622N        3490001000000573CLAYHATCHEE             ALA   XXXXXXXXXXXX
901AL027008C61574014N        3490001000021548DALLAS                  ALA   XXXXXXXXXXXX
901AL027015 61556202N        3490001000019585SELMA                   ALA   XXXXXXXXXXXX
901AL027027 61597061N        3490001000000000WALLACE COMM COL: SELMA ALA   XXXXXXXXXXXX
901AL028008B61574211N        3070001000038795DEKALB                  ALA   XXXXXXXXXXXX
901AL028015 61521510N        3070001000014128FORT PAYNE              ALA   XXXXXXXXXXXX
901AL028027 61512678N        3070001000001974COLLINSVILLE            ALA   XXXXXXXXXXXX
901AL028037 61523112N        3070001000000902GERALDINE               ALA   XXXXXXXXXXXX
901AL028047 61527228N        3070001000002344HENAGAR                 ALA   XXXXXXXXXXXX
901AL028057 61550574N        3070001000000958POWELL                  ALA   XXXXXXXXXXXX
901AL028067 61538997N        3070001000000366MENTONE                 ALA   XXXXXXXXXXXX
901AL028076 61551240N        3070001000005026RAINSVILLE              ALA   XXXXXXXXXXXX
901AL028087 61525866N        3070001000000487HAMMONDVILLE            ALA   XXXXXXXXXXXX
901AL028107 61514394N        3070001000001842CROSSVILLE              ALA   XXXXXXXXXXXX
901AL028117 61522446N        3070001000001026FYFFE                   ALA   XXXXXXXXXXXX
901AL028127 61560720N        3070001000001852SYLVANIA                ALA   XXXXXXXXXXXX
901AL028137 61563342N        3070001000000551VALLEY HEAD             ALA   XXXXXXXXXXXX
901AL028147 61529364N        3070001000000714IDER                    ALA   XXXXXXXXXXXX
901AL029009B61575121N        3490001000050889ELMORE                  ALA   XXXXXXXXXXXX
901AL029016 61567038N        3490001000007921WETUMPKA                ALA   XXXXXXXXXXXX
901AL029026 61560858N        3490001000004801TALLASSEE               ALA   XXXXXXXXXXXX
901AL029037 61518006N        3490001000001018ECLECTIC                ALA   XXXXXXXXXXXX
901AL029047 61513381N        3490001000001231COOSADA                 ALA   XXXXXXXXXXXX
901AL029065 61539828N        3490001000015297MILLBROOK               ALA   XXXXXXXXXXXX
901AL029077 61510127N        3490001000000000CENTRAL AL DRUG TASK FORALA   XXXXXXXXXXXX
901AL030008C61575190N        3490001000018360ESCAMBIA                ALA   XXXXXXXXXXXX
901AL030016 61502412N        3490001000009960ATMORE                  ALA   XXXXXXXXXXXX
901AL030026 61506708N        3490001000005389BREWTON                 ALA   XXXXXXXXXXXX
901AL030037 61517340N        3490001000002413EAST BREWTON            ALA   XXXXXXXXXXXX
901AL030047 61520940N        3490001000001411FLOMATON                ALA   XXXXXXXXXXXX
901AL031009B61575265N        3070001000029135ETOWAH                  ALA   XXXXXXXXXXXX
901AL031016 61502424N        3070001000005913ATTALLA                 ALA   XXXXXXXXXXXX
901AL031024 61522458Y        3070001000036148GADSDEN                 ALA   XXXXXXXXXXXX
901AL031046 61523478N        3070001000005175GLENCOE                 ALA   XXXXXXXXXXXX
901AL031056 61551216N        3070001000009603RAINBOW CITY            ALA   XXXXXXXXXXXX
901AL031066 61528068N        3070001000004334HOKES BLUFF             ALA   XXXXXXXXXXXX
901AL031076 61558554N        3070001000008583SOUTHSIDE               ALA   XXXXXXXXXXXX
901AL031087 61555476N        3070001000001750SARDIS CITY             ALA   XXXXXXXXXXXX
901AL031097 61501044N        3070001000000926ALTOONA                 ALA   XXXXXXXXXXXX
901AL031107 61564394N        3070001000000687WALNUT GROVE            ALA   XXXXXXXXXXXX
901AL031229D61575266N        3070001000000000ETOWAH CTY DRG ENFRCMT UALA   XXXXXXXXXXXX
901AL032008C61575352N        3070001000010392FAYETTE                 ALA   XXXXXXXXXXXX
901AL032016 61520514N        3070001000004500FAYETTE                 ALA   XXXXXXXXXXXX
901AL032027 61504848N        3070001000001113BERRY                   ALA   XXXXXXXXXXXX
901AL033008C61575616N        3070001000017063FRANKLIN                ALA   XXXXXXXXXXXX
901AL033016 61553970N        3070001000009795RUSSELLVILLE            ALA   XXXXXXXXXXXX
901AL033027 61548768N        3070001000001255PHIL CAMPBELL           ALA   XXXXXXXXXXXX
901AL033036 61551606N        3070001000003117RED BAY                 ALA   XXXXXXXXXXXX
901AL033047 61563912NAL03300 3070000000000355VINA                    ALA   XXXXXXXXXXXX
901AL033057 61528020N        3070001000000285HODGES                  ALA   XXXXXXXXXXXX
901AL034009C61576066N        3490001000015667GENEVA                  ALA   XXXXXXXXXXXX
901AL034016 61522980N        3490001000004453GENEVA                  ALA   XXXXXXXXXXXX
901AL034027 61554882N        3490001000001919SAMSON                  ALA   XXXXXXXXXXXX
901AL034036 61526466N        3490001000002637HARTFORD                ALA   XXXXXXXXXXXX
901AL034047 61557480N        3490001000001968SLOCOMB                 ALA   XXXXXXXXXXXX
901AL034057 61512384NAL03400 3490000000000228COFFEE SPRINGS          ALA   XXXXXXXXXXXX
901AL035008D61576470N        3070001000005677GREENE                  ALA   XXXXXXXXXXXX
901AL035016 61519662N        3070001000002757EUTAW                   ALA   XXXXXXXXXXXX
901AL035027 61521306NAL03500 3070000000000598FORKLAND                ALA   XXXXXXXXXXXX
901AL036009C61576660N        3490001000010939HALE                    ALA   XXXXXXXXXXXX
901AL036017 61524810N        3490001000002381GREENSBORO              ALA   XXXXXXXXXXXX
901AL036027 61541472N        3490001000002467MOUNDVILLE              ALA   XXXXXXXXXXXX
901AL037009D61577158N        3490001000009261HENRY                   ALA   XXXXXXXXXXXX
901AL037016 61500030N        3490001000002610ABBEVILLE               ALA   XXXXXXXXXXXX
901AL037026 61526988N        3490001000004744HEADLAND                ALA   XXXXXXXXXXXX
901AL037037 61543836N        3490001000000518NEWVILLE                ALA   XXXXXXXXXXXX
901AL038009B61577428N        3490001000027742HOUSTON                 ALA   XXXXXXXXXXXX
901AL038013 61516458Y        3490001000068997DOTHAN                  ALA   XXXXXXXXXXXX
901AL038027 61502082N        3490001000002170ASHFORD                 ALA   XXXXXXXXXXXX
901AL038037 61523946N        3490001000000329GORDON                  ALA   XXXXXXXXXXXX
901AL038047 61512798N        3490001000000741COLUMBIA                ALA   XXXXXXXXXXXX
901AL038057 61513788N        3490001000001271COTTONWOOD              ALA   XXXXXXXXXXXX
901AL038067 61531830N        3490001000002207KINSEY                  ALA   XXXXXXXXXXXX
901AL038087 61597060N        3490001000000000WALLACE COMM COL: DOTHANALA   XXXXXXXXXXXX
901AL038097 61561023N        3490001000002424TAYLOR                  ALA   XXXXXXXXXXXX
901AL038107 61565576NAL03800 3490000000001419WEBB                    ALA   XXXXXXXXXXXX
901AL039008B61577770N        3070001000030833JACKSON                 ALA   XXXXXXXXXXXX
901AL039015 61555824N        3070001000014742SCOTTSBORO              ALA   XXXXXXXXXXXX
901AL039027 61506750N        3070001000002362BRIDGEPORT              ALA   XXXXXXXXXXXX
901AL039037 61559585N        3070001000001992STEVENSON               ALA   XXXXXXXXXXXX
901AL039047 61528272N        3070001000000978HOLLYWOOD               ALA   XXXXXXXXXXXX
901AL039057 61549296N        3070001000000714PISGAH                  ALA   XXXXXXXXXXXX
901AL039067 61517112NAL03900 3070000000000312DUTTON                  ALA   XXXXXXXXXXXX
901AL039077 61556106NAL03900 3070000000000762SECTION                 ALA   XXXXXXXXXXXX
901AL039087 61568811NAL03900 3070000000000738WOODVILLE               ALA   XXXXXXXXXXXX
901AL039097 61557405N        3070001000000841SKYLINE                 ALA   XXXXXXXXXXXX
901AL040008D61578660N        3070001000008758LAMAR                   ALA   XXXXXXXXXXXX
901AL040017 61560144N        3070001000001858SULLIGENT               ALA   XXXXXXXXXXXX
901AL040027 61563618N        3070001000001910VERNON                  ALA   XXXXXXXXXXXX
901AL040037 61531260N        3070001000000431KENNEDY                 ALA   XXXXXXXXXXXX
901AL040047 61539972N        3070001000001007MILLPORT                ALA   XXXXXXXXXXXX
901AL041009B61578787N        3070001000048928LAUDERDALE              ALA   XXXXXXXXXXXX
901AL041014 61520970Y        3070001000040433FLORENCE                ALA   XXXXXXXXXXXX
901AL041027 61565076NAL04100 3070000000000201WATERLOO                ALA   XXXXXXXXXXXX
901AL041037 61501338N        3070001000000278ANDERSON                ALA   XXXXXXXXXXXX
901AL041047 61559598N        3070001000000459ST. FLORIAN             ALA   XXXXXXXXXXXX
901AL041057 61534230N        3070001000000726LEXINGTON               ALA   XXXXXXXXXXXX
901AL041067 61553190N        3070001000001237ROGERSVILLE             ALA   XXXXXXXXXXXX
901AL041077 61531590N        3070001000000986KILLEN                  ALA   XXXXXXXXXXXX
901AL041087 61597057N        3070001000000000UNIV OF NORTH ALABAMA   ALA   XXXXXXXXXXXX
901AL042009B61578820N        3070001000027676LAWRENCE                ALA   XXXXXXXXXXXX
901AL042016 61541424N        3070001000003353MOULTON                 ALA   XXXXXXXXXXXX
901AL042027 61561962N        3070001000001070TOWN CREEK              ALA   XXXXXXXXXXXX
901AL042037 61513872N        3070001000000601COURTLAND               ALA   XXXXXXXXXXXX
901AL042047 61527744N        3070001000000522HILLSBORO               ALA   XXXXXXXXXXXX
901AL042057 61544409NAL04200 3070000000000615NORTH COURTLAND         ALA   XXXXXXXXXXXX
901AL042069E61578842N        3070001000000000LAWRENCE CNTY DRG & VCTFALA   XXXXXXXXXXXX
901AL043009B61578904N        3490001000060601LEE                     ALA   XXXXXXXXXXXX
901AL043013 61502478Y        3490001000062005AUBURN                  ALA   XXXXXXXXXXXX
901AL043024 61546236Y        3490001000029888OPELIKA                 ALA   XXXXXXXXXXXX
901AL043037 61597009NAL04301 3490000000000000AUBURN UNIV: MAIN CAMPUSALA   XXXXXXXXXXXX
901AL044009B61579114N        3070001000059996LIMESTONE               ALA   XXXXXXXXXXXX
901AL044014 61502262N        3070001000025192ATHENS                  ALA   XXXXXXXXXXXX
901AL044027 61501818N        3070001000001378ARDMORE                 ALA   XXXXXXXXXXXX
901AL044037 61518618NAL04400 3070000000000471ELKMONT                 ALA   XXXXXXXXXXXX
901AL045009D61579393N        3490001000007494LOWNDES                 ALA   XXXXXXXXXXXX
901AL045017 61521378N        3490001000001234FORT DEPOSIT            ALA   XXXXXXXXXXXX
901AL045027 61526874N        3490001000000860HAYNEVILLE              ALA   XXXXXXXXXXXX
901AL045047 61541409NAL04500 3490000000000950MOSSES                  ALA   XXXXXXXXXXXX
901AL045057 61567197N        3490001000000807WHITE HALL              ALA   XXXXXXXXXXXX
901AL045077 61500006NAL04500 34900000000000002ND JUD CIRCUIT DRUG T FALA   XXXXXXXXXXXX
901AL046008D61579489N        3490001000008921MACON                   ALA   XXXXXXXXXXXX
901AL046016 61562508N        3490001000008790TUSKEGEE                ALA   XXXXXXXXXXXX
901AL046027 61545126N        3490001000000844NOTASULGA               ALA   XXXXXXXXXXXX
901AL046067 61557039N        3490001000000426SHORTER                 ALA   XXXXXXXXXXXX
901AL046077 61597033N        3490001000000000TUSKEGEE UNIVERSITY     ALA   XXXXXXXXXXXX
901AL047009A61579519N        3070001000116032MADISON                 ALA   XXXXXXXXXXXX
901AL047012 61529148Y        3070001000190106HUNTSVILLE              ALA   XXXXXXXXXXXX
901AL047024 61536426N        3070001000047268MADISON                 ALA   XXXXXXXXXXXX
901AL047037 61525398N        3070001000000790GURLEY                  ALA   XXXXXXXXXXXX
901AL047046 61543278N        3070001000002815NEW HOPE                ALA   XXXXXXXXXXXX
901AL047057 61546842N        3070001000001826OWENS CROSSROADS        ALA   XXXXXXXXXXXX
901AL047067 61562150N        3070001000000525TRIANA                  ALA   XXXXXXXXXXXX
901AL047077 61597048N        3070001000000000UNIV OF AL: HUNTSVILLE  ALA   XXXXXXXXXXXX
901AL047087 61597006N        3070001000000000ALABAMA A&M UNIVERSITY  ALA   XXXXXXXXXXXX
901AL047097 61529166NAL04700 3070000000000000HUNTSVILLE INTNL AIRPORTALA   XXXXXXXXXXXX
901AL047117 61536529NAL04700 3070000000000000MADISON-MORGAN CO S CD TALA   XXXXXXXXXXXX
901AL048008C61579687N        3490001000010105MARENGO                 ALA   XXXXXXXXXXXX
901AL048016 61515750N        3490001000007115DEMOPOLIS               ALA   XXXXXXXXXXXX
901AL048027 61534620N        3490001000002014LINDEN                  ALA   XXXXXXXXXXXX
901AL048037 61561410N        3490001000000396THOMASTON               ALA   XXXXXXXXXXXX
901AL048047 61520502NAL04800 3490000000000093FAUNSDALE               ALA   XXXXXXXXXXXX
901AL048057 61542288NAL04800 3490000000000123MYRTLEWOOD              ALA   XXXXXXXXXXXX
901AL048067 61560652N        3490001000000245SWEET WATER             ALA   XXXXXXXXXXXX
901AL048077 61500016N        349000100000000017TH JUD CIRCUIT DRUG TFALA   XXXXXXXXXXXX
901AL049008C61579705N        3070001000013719MARION                  ALA   XXXXXXXXXXXX
901AL049016 61525728N        3070001000006765HAMILTON                ALA   XXXXXXXXXXXX
901AL049026 61568178N        3070001000004576WINFIELD                ALA   XXXXXXXXXXXX
901AL049037 61525332N        3070001000002322GUIN                    ALA   XXXXXXXXXXXX
901AL049047 61525464N        3070001000001483HACKLEBURG              ALA   XXXXXXXXXXXX
901AL049057 61506954N        3070001000000884BRILLIANT               ALA   XXXXXXXXXXXX
901AL049067 61566630NAL04900 3070000000000000WESTON                  ALA   XXXXXXXXXXXX
901AL049077 61503762N        3070001000001047BEAR CREEK              ALA   XXXXXXXXXXXX
901AL049088D61579748N        3070001000000000MARION CNTY DRUG TASK FOALA   XXXXXXXXXXXX
901AL050008B61579831N        3070001000046324MARSHALL                ALA   XXXXXXXXXXXX
901AL050015 61500564N        3070001000021534ALBERTVILLE             ALA   XXXXXXXXXXXX
901AL050026 61525386N        3070001000008395GUNTERSVILLE            ALA   XXXXXXXXXXXX
901AL050036 61501692N        3070001000008330ARAB                    ALA   XXXXXXXXXXXX
901AL050046 61505826N        3070001000009740BOAZ                    ALA   XXXXXXXXXXXX
901AL050057 61524342N        3070001000000904GRANT                   ALA   XXXXXXXXXXXX
901AL050067 61516467N        3070001000000760DOUGLAS                 ALA   XXXXXXXXXXXX
901AL050088E61579842NAL05000 3070000000000000MARSHALL CTY DRG ENFRC UALA   XXXXXXXXXXXX
901AL051008C61580485N        3490001000013644MONROE                  ALA   XXXXXXXXXXXX
901AL051016 61540632N        3490001000006118MONROEVILLE             ALA   XXXXXXXXXXXX
901AL051027 61522296N        3490001000001223FRISCO CITY             ALA   XXXXXXXXXXXX
901AL051037 61503780NAL05100 3490000000000286BEATRICE                ALA   XXXXXXXXXXXX
901AL051047 61519812N        3490001000000673EXCEL                   ALA   XXXXXXXXXXXX
901AL052009B61580746N        3070001000042948MORGAN                  ALA   XXXXXXXXXXXX
901AL052013 61515330Y        3070001000055483DECATUR                 ALA   XXXXXXXXXXXX
901AL052025 61526532N        3070001000014510HARTSELLE               ALA   XXXXXXXXXXXX
901AL052047 61520250N        3070001000001268FALKVILLE               ALA   XXXXXXXXXXXX
901AL052057 61520928NAL05200 3070000000000000FLINT CITY              ALA   XXXXXXXXXXXX
901AL052067 61557861NAL05200 3070000000000717SOMERVILLE              ALA   XXXXXXXXXXXX
901AL052077 61562184N        3070001000002156TRINITY                 ALA   XXXXXXXXXXXX
901AL052096 61550712N        3070001000003166PRICEVILLE              ALA   XXXXXXXXXXXX
901AL052117 61597013N        3070001000000000CALHOUN COMMUNITY COLLEGALA   XXXXXXXXXXXX
901AL053008D61582012N        3490001000003785PERRY                   ALA   XXXXXXXXXXXX
901AL053016 61537434N        3490001000003436MARION                  ALA   XXXXXXXXXXXX
901AL053027 61562832N        3490001000002421UNIONTOWN               ALA   XXXXXXXXXXXX
901AL054009C61582105N        3070001000013861PICKENS                 ALA   XXXXXXXXXXXX
901AL054017 61500774N        3070001000002367ALICEVILLE              ALA   XXXXXXXXXXXX
901AL054027 61523976N        3070001000001675GORDO                   ALA   XXXXXXXXXXXX
901AL054037 61551804N        3070001000001624REFORM                  ALA   XXXXXXXXXXXX
901AL054047 61509390N        3070001000000982CARROLLTON              ALA   XXXXXXXXXXXX
901AL054057 61548882NAL05400 3070000000000576PICKENSVILLE            ALA   XXXXXXXXXXXX
901AL054077 61500028N        307000100000000024TH JUD CIR DRUG & VCTFALA   XXXXXXXXXXXX
901AL055008C61582144N        3490001000012088PIKE                    ALA   XXXXXXXXXXXX
901AL055015 61562226N        3490001000019377TROY                    ALA   XXXXXXXXXXXX
901AL055027 61507452N        3490001000001983BRUNDIDGE               ALA   XXXXXXXXXXXX
901AL055037 61597030N        3490001000000000TROY UNIVERSITY         ALA   XXXXXXXXXXXX
901AL056008C61582711N        3490001000014934RANDOLPH                ALA   XXXXXXXXXXXX
901AL056016 61552722N        3490001000005943ROANOKE                 ALA   XXXXXXXXXXXX
901AL056027 61564110N        3490001000000732WADLEY                  ALA   XXXXXXXXXXXX
901AL056037 61565658N        3490001000000800WEDOWEE                 ALA   XXXXXXXXXXXX
901AL056047 61597025N        3490001000000000SOUTHERN UNION STATE CC ALA   XXXXXXXXXXXX
901AL056057 61500010N        34900010000000005TH JUD CIRCUIT NRCTS UNALA   XXXXXXXXXXXX
901AL057009B61583125N        3490001000026885RUSSELL                 ALA   XXXXXXXXXXXX
901AL057014 61548750N        3490001000038723PHENIX CITY             ALA   XXXXXXXXXXXX
901AL057027 61529244N        3490001000000614HURTSBORO               ALA   XXXXXXXXXXXX
901AL058009B61584615N        3070001000034400ST. CLAIR               ALA   XXXXXXXXXXXX
901AL058015 61548156N        3070001000013790PELL CITY               ALA   XXXXXXXXXXXX
901AL058027 61502184N        3070001000002265ASHVILLE                ALA   XXXXXXXXXXXX
901AL058037 61551204N        3070001000001687RAGLAND                 ALA   XXXXXXXXXXXX
901AL058046 61559208N        3070001000004223SPRINGVILLE             ALA   XXXXXXXXXXXX
901AL058056 61545696N        3070001000003709ODENVILLE               ALA   XXXXXXXXXXXX
901AL058065 61540986N        3070001000012635MOODY                   ALA   XXXXXXXXXXXX
901AL058077 61552620N        3070001000002320RIVERSIDE               ALA   XXXXXXXXXXXX
901AL058086 61537344N        3070001000004526MARGARET                ALA   XXXXXXXXXXXX
901AL058097 61559509N        3070001000001083STEELE                  ALA   XXXXXXXXXXXX
901AL058107 61506441NAL05800 3070000000000000BRANCHVILLE             ALA   XXXXXXXXXXXX
901AL058126 61501851N        3070001000004214ARGO                    ALA   XXXXXXXXXXXX
901AL059009B61583857N        3070001000086202SHELBY                  ALA   XXXXXXXXXXXX
901AL059015 61508346N        3070001000013303CALERA                  ALA   XXXXXXXXXXXX
901AL059026 61512876N        3070001000004223COLUMBIANA              ALA   XXXXXXXXXXXX
901AL059036 61540746N        3070001000006675MONTEVALLO              ALA   XXXXXXXXXXXX
901AL059044 61500432N        3070001000031821ALABASTER               ALA   XXXXXXXXXXXX
901AL059057 61563930NAL05900 3070000000002128VINCENT                 ALA   XXXXXXXXXXXX
901AL059065 61548102N        3070001000022997PELHAM                  ALA   XXXXXXXXXXXX
901AL059075 61527126N        3070001000018109HELENA                  ALA   XXXXXXXXXXXX
901AL059087 61567956NAL05900 3070000000000692WILTON                  ALA   XXXXXXXXXXXX
901AL059097 61526286N        3070001000001689HARPERSVILLE            ALA   XXXXXXXXXXXX
901AL059107 61567950NAL05900 3070000000001987WILSONVILLE             ALA   XXXXXXXXXXXX
901AL059117 61597054N        3070001000000000UNIVERSITY OF MONTEVALLOALA   XXXXXXXXXXXX
901AL060008D61584832N        3070001000006877SUMTER                  ALA   XXXXXXXXXXXX
901AL060017 61569246N        3070001000002375YORK                    ALA   XXXXXXXXXXXX
901AL060026 61534974N        3070001000003435LIVINGSTON              ALA   XXXXXXXXXXXX
901AL060037 61514514N        3070001000000318CUBA                    ALA   XXXXXXXXXXXX
901AL060047 61519291NAL06000 3070000000000181EPES                    ALA   XXXXXXXXXXXX
901AL060057 61597059N        3070001000000000UNIVERSITY OF WEST ALABAALA   XXXXXXXXXXXX
901AL061008B61584991N        3070001000035408TALLADEGA               ALA   XXXXXXXXXXXX
901AL061015 61560708N        3070001000012672SYLACAUGA               ALA   XXXXXXXXXXXX
901AL061025 61560840N        3070001000016006TALLADEGA               ALA   XXXXXXXXXXXX
901AL061036 61511088N        3070001000005044CHILDERSBURG            ALA   XXXXXXXXXXXX
901AL061046 61534482N        3070001000006485LINCOLN                 ALA   XXXXXXXXXXXX
901AL061057 61564242NAL06100 3070000000000277WALDO                   ALA   XXXXXXXXXXXX
901AL061067 61597027NAL06100 3070000000000000TALLADEGA COLLEGE       ALA   XXXXXXXXXXXX
901AL061127 61542115N        3070001000001256MUNFORD                 ALA   XXXXXXXXXXXX
901AL062008C61584997N        3490001000018755TALLAPOOSA              ALA   XXXXXXXXXXXX
901AL062015 61500654N        3490001000014854ALEXANDER CITY          ALA   XXXXXXXXXXXX
901AL062026 61514742N        3490001000003176DADEVILLE               ALA   XXXXXXXXXXXX
901AL062037 61508700N        3490001000000987CAMP HILL               ALA   XXXXXXXXXXXX
901AL062047 61509460NAL06200 3490000000000000CARRVILLE               ALA   XXXXXXXXXXXX
901AL062057 61515186NAL06200 3490000000000212DAVISTON                ALA   XXXXXXXXXXXX
901AL062067 61543698N        3490001000000757NEW SITE                ALA   XXXXXXXXXXXX
901AL062077 61530100N        3490001000000805JACKSONS GAP            ALA   XXXXXXXXXXXX
901AL063009B61585381N        3070001000073252TUSCALOOSA              ALA   XXXXXXXXXXXX
901AL063013 61562484Y        3070001000097511TUSCALOOSA              ALA   XXXXXXXXXXXX
901AL063024 61544736N        3070001000025032NORTHPORT               ALA   XXXXXXXXXXXX
901AL063037 61597051N        3070001000000000UNIV OF AL: TUSCALOOSA  ALA   XXXXXXXXXXXX
901AL063057 61507524NAL06300 3070000000000000BRYCE STATE HOSPITAL    ALA   XXXXXXXXXXXX
901AL063077 61563421N        3070001000001523VANCE                   ALA   XXXXXXXXXXXX
901AL063087 61507353N        3070001000001835BROOKWOOD               ALA   XXXXXXXXXXXX
901AL063117 61532756N        3070001000002096LAKE VIEW               ALA   XXXXXXXXXXXX
901AL063147 61512249N        3070001000001664COALING                 ALA   XXXXXXXXXXXX
901AL064009B61585828N        3070001000041241WALKER                  ALA   XXXXXXXXXXXX
901AL064015 61530270N        3070001000014042JASPER                  ALA   XXXXXXXXXXXX
901AL064027 61509108N        3070001000001969CARBON HILL             ALA   XXXXXXXXXXXX
901AL064037 61513506N        3070001000002021CORDOVA                 ALA   XXXXXXXXXXXX
901AL064047 61516422N        3070001000001955DORA                    ALA   XXXXXXXXXXXX
901AL064057 61560204N        3070001000002401SUMITON                 ALA   XXXXXXXXXXXX
901AL064067 61547706N        3070001000000959PARRISH                 ALA   XXXXXXXXXXXX
901AL064077 61545426NAL06400 3070000000000757OAKMAN                  ALA   XXXXXXXXXXXX
901AL064087 61542537NAL06400 3070000000000212NAUVOO                  ALA   XXXXXXXXXXXX
901AL064097 61557348N        3070001000000425SIPSEY                  ALA   XXXXXXXXXXXX
901AL064117 61597011N        3070001000000000BEVILL STATE COMM COLLEGALA   XXXXXXXXXXXX
901AL065008C61586011N        3490001000014656WASHINGTON              ALA   XXXXXXXXXXXX
901AL065017 61538490N        3490001000000225MCINTOSH                ALA   XXXXXXXXXXXX
901AL065027 61539978N        3490001000000518MILLRY                  ALA   XXXXXXXXXXXX
901AL065037 61510560N        3490001000001224CHATOM                  ALA   XXXXXXXXXXXX
901AL066008D61586494N        3490001000008138WILCOX                  ALA   XXXXXXXXXXXX
901AL066017 61508568N        3490001000001915CAMDEN                  ALA   XXXXXXXXXXXX
901AL066027 61549122N        3490001000000911PINE HILL               ALA   XXXXXXXXXXXX
901AL067008C61586605N        3070001000017170WINSTON                 ALA   XXXXXXXXXXXX
901AL067017 61516464N        3070001000001065DOUBLE SPRINGS          ALA   XXXXXXXXXXXX
901AL067026 61525560N        3070001000004111HALEYVILLE              ALA   XXXXXXXXXXXX
901AL067037 61500258N        3070001000000748ADDISON                 ALA   XXXXXXXXXXXX
901AL067047 61501890N        3070001000000356ARLEY                   ALA   XXXXXXXXXXXX
901AL067057 61536193N        3070001000000646LYNN                    ALA   XXXXXXXXXXXX
901ALAST008D61570402N        3490001000000000ALABAMA HIGHWAY PATROL  ALA   XXXXXXXXXXXX
901ALDI0037 61549797N        3490001000000000POARCH CREEK TRIBAL     ALA   XXXXXXXXXXXX
902AZ001008B81570774N        3630001000061614APACHE                  ARIZ  XXXXXXXXXXXX
902AZ001016 81517166N        3630001000004914EAGAR                   ARIZ  XXXXXXXXXXXX
902AZ001036 81559680N        3630001000003500ST. JOHNS               ARIZ  XXXXXXXXXXXX
902AZ001057 81558938N        3630001000001965SPRINGERVILLE           ARIZ  XXXXXXXXXXXX
902AZ001897 81542543N        3630001000000000NAVAJO NATION           ARIZ  XXXXXXXXXXXX
902AZ002009B81573396N        3630001000049893COCHISE                 ARIZ  XXXXXXXXXXXX
902AZ002016 81504578N        3630001000004877BENSON                  ARIZ  XXXXXXXXXXXX
902AZ002036 81505304N        3630001000005235BISBEE                  ARIZ  XXXXXXXXXXXX
902AZ002055 81516470Y        3630001000016536DOUGLAS                 ARIZ  XXXXXXXXXXXX
902AZ002077 81528830N        3630001000001755HUACHUCA CITY           ARIZ  XXXXXXXXXXXX
902AZ002094 81557132Y        3630001000043452SIERRA VISTA            ARIZ  XXXXXXXXXXXX
902AZ002117 81561806N        3630001000001307TOMBSTONE               ARIZ  XXXXXXXXXXXX
902AZ002136 81567608N        3630001000003569WILLCOX                 ARIZ  XXXXXXXXXXXX
902AZ003009B81573405N        3630001000054468COCONINO                ARIZ  XXXXXXXXXXXX
902AZ003013 81520844Y        3630001000069471FLAGSTAFF               ARIZ  XXXXXXXXXXXX
902AZ003037 81522074N        3630001000001315FREDONIA                ARIZ  XXXXXXXXXXXX
902AZ003076 81567620N        3630001000003110WILLIAMS                ARIZ  XXXXXXXXXXXX
902AZ003086 81547046N        3630001000007469PAGE                    ARIZ  XXXXXXXXXXXX
902AZ003107 81556128NAZ01314 3630000000000000SEDONA                  ARIZ  XXXXXXXXXXXX
902AZ003977 81597090N        3630001000000000NORTHERN ARIZONA UNIV   ARIZ  XXXXXXXXXXXX
902AZ004008B81576108N        3630001000027799GILA                    ARIZ  XXXXXXXXXXXX
902AZ004016 81523700N        3630001000007333GLOBE                   ARIZ  XXXXXXXXXXXX
902AZ004037 81526862N        3630001000000990HAYDEN                  ARIZ  XXXXXXXXXXXX
902AZ004057 81539294N        3630001000001771MIAMI                   ARIZ  XXXXXXXXXXXX
902AZ004065 81547976N        3630001000015228PAYSON                  ARIZ  XXXXXXXXXXXX
902AZ004077 81568220NAZ00403 3630000000000345WINKELMAN               ARIZ  XXXXXXXXXXXX
902AZ004897 81554959N        3630001000000000SAN CARLOS APACHE       ARIZ  XXXXXXXXXXXX
902AZ005008C81576297N        3630001000020878GRAHAM                  ARIZ  XXXXXXXXXXXX
902AZ005016 81549005N        3630001000002502PIMA                    ARIZ  XXXXXXXXXXXX
902AZ005036 81554144N        3630001000009797SAFFORD                 ARIZ  XXXXXXXXXXXX
902AZ005056 81561338N        3630001000005065THATCHER                ARIZ  XXXXXXXXXXXX
902AZ005977 81597084NAZ00505 3630000000000000EASTERN ARIZONA COLLEGE ARIZ  XXXXXXXXXXXX
902AZ006008D81576546N        3630001000005916GREENLEE                ARIZ  XXXXXXXXXXXX
902AZ006016 81511910N        3630001000003719CLIFTON                 ARIZ  XXXXXXXXXXXX
902AZ006037 81516890NAZ00600 3630000000000809DUNCAN                  ARIZ  XXXXXXXXXXXX
902AZ007009A81579690N        3630001000395937MARICOPA                ARIZ  XXXXXXXXXXXX
902AZ007013 81502838N        3630001000080533AVONDALE                ARIZ  XXXXXXXXXXXX
902AZ007033 81507566N        3630001000061726BUCKEYE                 ARIZ  XXXXXXXXXXXX
902AZ007051C81510290N        3630001000258875CHANDLER                ARIZ  XXXXXXXXXXXX
902AZ007074 81518858N        3630001000033985EL MIRAGE               ARIZ  XXXXXXXXXXXX
902AZ007097 81523250NAZ00700 3630000000002022GILA BEND               ARIZ  XXXXXXXXXXXX
902AZ007112 81523256N        3630001000247324GILBERT                 ARIZ  XXXXXXXXXXXX
902AZ007132 81523508N        3630001000240374GLENDALE                ARIZ  XXXXXXXXXXXX
902AZ007153 81523916N        3630001000078447GOODYEAR                ARIZ  XXXXXXXXXXXX
902AZ007171C81539168Y        3630001000471034MESA                    ARIZ  XXXXXXXXXXXX
902AZ007195 81547448N        3630001000013886PARADISE VALLEY         ARIZ  XXXXXXXXXXXX
902AZ007212 81548378N        3630001000170222PEORIA                  ARIZ  XXXXXXXXXXXX
902AZ007231A81548828Y        3630001001559744PHOENIX                 ARIZ  XXXXXXXXXXXX
902AZ007252 81555836Y        3630001000233872SCOTTSDALE              ARIZ  XXXXXXXXXXXX
902AZ007272 81560480N        3630001000128525SURPRISE                ARIZ  XXXXXXXXXXXX
902AZ007292 81561192Y        3630001000175556TEMPE                   ARIZ  XXXXXXXXXXXX
902AZ007316 81561770N        3630001000007029TOLLESON                ARIZ  XXXXXXXXXXXX
902AZ007336 81567476N        3630001000006760WICKENBURG              ARIZ  XXXXXXXXXXXX
902AZ007356 81569324NAZ00700 3630000000006645YOUNGTOWN               ARIZ  XXXXXXXXXXXX
902AZ007396 81525302NAZ00700 3630000000006262GUADALUPE               ARIZ  XXXXXXXXXXXX
902AZ007447 81501863NAZCCHPX 3630000000000000ARIZONA STATE CAPITOL   ARIZ  XXXXXXXXXXXX
902AZ007577 81597069NAZ00797 3630000000000000AZ STATE UNIV: WEST     ARIZ  XXXXXXXXXXXX
902AZ007887 81597067NAZ00797 3630000000000000AZ STATE UNIV: EAST     ARIZ  XXXXXXXXXXXX
902AZ007897 81554849N        3630001000000000SALT RIVER TRIBAL       ARIZ  XXXXXXXXXXXX
902AZ007977 81597068N        3630001000000000AZ STATE UNIV, MAIN CAMPARIZ  XXXXXXXXXXXX
902AZ007B37 81521478N        3630001000000000FORT MCDOWELL TRIBAL    ARIZ  XXXXXXXXXXXX
902AZ008009B81580443N        3630001000078546MOHAVE                  ARIZ  XXXXXXXXXXXX
902AZ008014 81531668Y        3630001000028651KINGMAN                 ARIZ  XXXXXXXXXXXX
902AZ008037 81521489N        3630001000000000FORT MOJAVE TRIBAL      ARIZ  XXXXXXXXXXXX
902AZ008043 81532538Y        3630001000053220LAKE HAVASU CITY        ARIZ  XXXXXXXXXXXX
902AZ008054 81507720N        3630001000039319BULLHEAD CITY           ARIZ  XXXXXXXXXXXX
902AZ008066 81512759N        3630001000004784COLORADO CITY           ARIZ  XXXXXXXXXXXX
902AZ008077 81530907N        3630001000000000KAIBAB PAIUTE TRIBAL    ARIZ  XXXXXXXXXXXX
902AZ009008B81580974N        3630001000068836NAVAJO                  ARIZ  XXXXXXXXXXXX
902AZ009016 81528074N        3630001000005007HOLBROOK                ARIZ  XXXXXXXXXXXX
902AZ009035 81557054N        3630001000010878SHOW LOW                ARIZ  XXXXXXXXXXXX
902AZ009056 81557648N        3630001000009805SNOWFLAKE-TAYLOR        ARIZ  XXXXXXXXXXXX
902AZ009076 81561026NAZ00905 3630000000004150TAYLOR                  ARIZ  XXXXXXXXXXXX
902AZ009096 81568304N        3630001000009580WINSLOW                 ARIZ  XXXXXXXXXXXX
902AZ009136 81549200N        3630001000004323PINETOP-LAKESIDE        ARIZ  XXXXXXXXXXXX
902AZ009897 81567281N        3630001000000000WHITE MOUNTAIN APACHE TRARIZ  XXXXXXXXXXXX
902AZ010009A81582180N        3630001000365193PIMA                    ARIZ  XXXXXXXXXXXX
902AZ010016 81558590N        3630001000005749SOUTH TUCSON            ARIZ  XXXXXXXXXXXX
902AZ010031B81562340Y        3630001000529675TUCSON                  ARIZ  XXXXXXXXXXXX
902AZ010044 81554183N        3630001000028067SAHUARITA               ARIZ  XXXXXXXXXXXX
902AZ010067 81500390NAZ01000 3630000000000000AJO                     ARIZ  XXXXXXXXXXXX
902AZ010074 81546494N        3630001000042258ORO VALLEY              ARIZ  XXXXXXXXXXXX
902AZ010094 81537266N        3630001000041302MARANA                  ARIZ  XXXXXXXXXXXX
902AZ010107 81562343N        3630001000000000TUCSON AIRPORT AUTHORITYARIZ  XXXXXXXXXXXX
902AZ010127 81561736N        3630001000000000TOHONO O'ODHAM NATION   ARIZ  XXXXXXXXXXXX
902AZ010977 81597102N        3630001000000000UNIVERSITY OF ARIZONA   ARIZ  XXXXXXXXXXXX
902AZ010987 81597096N        3630001000000000PIMA COMMUNITY COLLEGE  ARIZ  XXXXXXXXXXXX
902AZ011009A81582183N        3630001000206311PINAL                   ARIZ  XXXXXXXXXXXX
902AZ011013 81509576N        3630001000051918CASA GRANDE             ARIZ  XXXXXXXXXXXX
902AZ011035 81513329N        3630001000012244COOLIDGE                ARIZ  XXXXXXXXXXXX
902AZ011055 81518918N        3630001000016678ELOY                    ARIZ  XXXXXXXXXXXX
902AZ011074 81520976N        3630001000026926FLORENCE                ARIZ  XXXXXXXXXXXX
902AZ011097 81531092N        3630001000002024KEARNY                  ARIZ  XXXXXXXXXXXX
902AZ011117 81536750N        3630001000001476MAMMOTH                 ARIZ  XXXXXXXXXXXX
902AZ011126 81560438N        3630001000002921SUPERIOR                ARIZ  XXXXXXXXXXXX
902AZ011134 81501614N        3630001000038519APACHE JUNCTION         ARIZ  XXXXXXXXXXXX
902AZ011157 81523253N        3630001000000000GILA RIVER INDIAN COMNTYARIZ  XXXXXXXXXXXX
902AZ011174 81537377N        3630001000048193MARICOPA                ARIZ  XXXXXXXXXXXX
902AZ011977 81597078N        3630001000000000CENTRAL ARIZONA COLLEGE ARIZ  XXXXXXXXXXXX
902AZ012008B81583482N        3630001000025410SANTA CRUZ              ARIZ  XXXXXXXXXXXX
902AZ012015 81544016N        3630001000020312NOGALES                 ARIZ  XXXXXXXXXXXX
902AZ012037 81547796N        3630001000000895PATAGONIA               ARIZ  XXXXXXXXXXXX
902AZ013009B81586806N        3630001000092381YAVAPAI                 ARIZ  XXXXXXXXXXXX
902AZ013016 81511472N        3630001000004184CLARKDALE               ARIZ  XXXXXXXXXXXX
902AZ013035 81513790N        3630001000011678COTTONWOOD              ARIZ  XXXXXXXXXXXX
902AZ013057 81530540N        3630001000000453JEROME                  ARIZ  XXXXXXXXXXXX
902AZ013074 81550646Y        3630001000041393PRESCOTT                ARIZ  XXXXXXXXXXXX
902AZ013087 81597105N        3630001000000000YAVAPAI COLLEGE         ARIZ  XXXXXXXXXXXX
902AZ013114 81550664N        3630001000041661PRESCOTT VALLEY         ARIZ  XXXXXXXXXXXX
902AZ013125 81511160N        3630001000011072CHINO VALLEY            ARIZ  XXXXXXXXXXXX
902AZ013135 81508733N        3630001000011155CAMP VERDE              ARIZ  XXXXXXXXXXXX
902AZ013145 81556127N        3630001000010340SEDONA                  ARIZ  XXXXXXXXXXXX
902AZ014009B81586878N        3630001000061469YUMA                    ARIZ  XXXXXXXXXXXX
902AZ014035 81557858N        3630001000015061SOMERTON                ARIZ  XXXXXXXXXXXX
902AZ014053 81569390Y        3630001000093923YUMA                    ARIZ  XXXXXXXXXXXX
902AZ014077 81512357N        3630001000000000COCOPAH TRIBAL          ARIZ  XXXXXXXXXXXX
902AZ014084 81555248N        3630001000031807SAN LUIS                ARIZ  XXXXXXXXXXXX
902AZ014096 81565853N        3630001000002973WELLTON                 ARIZ  XXXXXXXXXXXX
902AZ014107 81551063N        3630001000000000QUECHAN TRIBAL          ARIZ  XXXXXXXXXXXX
902AZ014977 81597072N        3630001000000000ARIZONA WESTERN COLLEGE ARIZ  XXXXXXXXXXXX
902AZ015008C81578742N        3630001000013562LA PAZ                  ARIZ  XXXXXXXXXXXX
902AZ015016 81547544N        3630001000003058PARKER                  ARIZ  XXXXXXXXXXXX
902AZ015027 81512767N        3630001000000000COLORADO RIVER TRIBAL   ARIZ  XXXXXXXXXXXX
902AZ015036 81551062N        3630001000003598QUARTZSITE              ARIZ  XXXXXXXXXXXX
902AZCCHPX8D81570807N        3630001000000000AZ DEPT OF PUBLIC SAFETYARIZ  XXXXXXXXXXXX
902AZDI0237 81569187N        3630001000000000YAVAPAI-PRESCOTT TRIBAL ARIZ  XXXXXXXXXXXX
902AZDI0527 81554958N        3630001000000000SAN CARLOS AGENCY       ARIZ  XXXXXXXXXXXX
902AZDI0537 81528581N        3630001000000000HOPI TRIBAL             ARIZ  XXXXXXXXXXXX
902AZDI0597 81512766N        3630001000000000COLORADO RIVER AGENCY   ARIZ  XXXXXXXXXXXX
902AZDI0607 81562311N        3630001000000000TRUXTON CANON AGENCY    ARIZ  XXXXXXXXXXXX
902AZDI0617 81521477NAZ007B3 3630000000000000FORT MCDOWELL TRIBAL    ARIZ  XXXXXXXXXXXX
902AZDI0627 81521345N        3630001000000000FORT APACHE AGENCY      ARIZ  XXXXXXXXXXXX
902AZDI0657 81500393N        3630001000000000AK-CHIN TRIBAL          ARIZ  XXXXXXXXXXXX
902AZDI0667 81547769N        3630001000000000PASCUA YAQUI TRIBAL     ARIZ  XXXXXXXXXXXX
902AZDI0677 81528833N        3630001000000000HUALAPAI TRIBAL         ARIZ  XXXXXXXXXXXX
902AZDI0697 81569185N        3630001000000000YAVAPAI-APACHE NATION   ARIZ  XXXXXXXXXXXX
902AZDI0817 81561852N        3630001000000000TONTO APACHE TRIBAL     ARIZ  XXXXXXXXXXXX
903AR001008D71570810N        3390001000005986ARKANSAS                ARK   XXXXXXXXXXXX
903AR001016 71516092N        3390001000003197DE WITT                 ARK   XXXXXXXXXXXX
903AR001026 71560048N        3390001000009084STUTTGART               ARK   XXXXXXXXXXXX
903AR001037 71523316NAR00100 3390000000000686GILLETT                 ARK   XXXXXXXXXXXX
903AR001057 71559483N        3390001000000224ST. CHARLES             ARK   XXXXXXXXXXXX
903AR002008C71570861N        3390001000012749ASHLEY                  ARK   XXXXXXXXXXXX
903AR002016 71514379N        3390001000005192CROSSETT                ARK   XXXXXXXXXXXX
903AR002026 71525680N        3390001000002790HAMBURG                 ARK   XXXXXXXXXXXX
903AR002037 71567914NAR00200 3390000000000515WILMOT                  ARK   XXXXXXXXXXXX
903AR003008C71571122N        3390001000024165BAXTER                  ARK   XXXXXXXXXXXX
903AR003015 71541508N        3390001000012233MOUNTAIN HOME           ARK   XXXXXXXXXXXX
903AR003027 71513776N        3390001000000941COTTER                  ARK   XXXXXXXXXXXX
903AR003037 71522842N        3390001000002132GASSVILLE               ARK   XXXXXXXXXXXX
903AR003047 71532757N        3390001000000717LAKEVIEW                ARK   XXXXXXXXXXXX
903AR003057 71544049N        3390001000000495NORFOLK                 ARK   XXXXXXXXXXXX
903AR004009B71571281N        3390001000047808BENTON                  ARK   XXXXXXXXXXXX
903AR004014 71504662Y        3390001000043190BENTONVILLE             ARK   XXXXXXXXXXXX
903AR004023 71553178Y        3390001000062819ROGERS                  ARK   XXXXXXXXXXXX
903AR004035 71557168N        3390001000016158SILOAM SPRINGS          ARK   XXXXXXXXXXXX
903AR004046 71548012N        3390001000005195PEA RIDGE               ARK   XXXXXXXXXXXX
903AR004056 71523034N        3390001000003417GENTRY                  ARK   XXXXXXXXXXXX
903AR004066 71535682N        3390001000008602LOWELL                  ARK   XXXXXXXXXXXX
903AR004076 71524462N        3390001000003245GRAVETTE                ARK   XXXXXXXXXXXX
903AR004087 71515336N        3390001000001781DECATUR                 ARK   XXXXXXXXXXXX
903AR004096 71509783N        3390001000002672CAVE SPRINGS            ARK   XXXXXXXXXXXX
903AR004117 71560195NAR00400 3390000000000528SULPHUR SPRINGS         ARK   XXXXXXXXXXXX
903AR004127 71505001N        3390001000002497BETHEL HEIGHTS          ARK   XXXXXXXXXXXX
903AR004135 71509991N        3390001000011635CENTERTON               ARK   XXXXXXXXXXXX
903AR004147 71597112N        3390001000000000NW ARKANSAS COMMUNITY COARK   XXXXXXXXXXXX
903AR004166 71534851N        3390001000002750LITTLE FLOCK            ARK   XXXXXXXXXXXX
903AR004207 71527554N        3390001000000638HIGHFILL                ARK   XXXXXXXXXXXX
903AR004214 71504096N        3390001000027970BELLA VISTA             ARK   XXXXXXXXXXXX
903AR005008C71571614N        3390001000024093BOONE                   ARK   XXXXXXXXXXXX
903AR005015 71526370N        3390001000013179HARRISON                ARK   XXXXXXXXXXXX
903AR005027 71516144NAR00500 3390000000000782DIAMOND CITY            ARK   XXXXXXXXXXXX
903AR006008D71571749N        3390001000005274BRADLEY                 ARK   XXXXXXXXXXXX
903AR006016 71564584N        3390001000005789WARREN                  ARK   XXXXXXXXXXXX
903AR006027 71527387NAR00600 3390000000000803HERMITAGE               ARK   XXXXXXXXXXXX
903AR007008D71572205N        3390001000003904CALHOUN                 ARK   XXXXXXXXXXXX
903AR007017 71525908N        3390001000001267HAMPTON                 ARK   XXXXXXXXXXXX
903AR008008C71572439N        3390001000017529CARROLL                 ARK   XXXXXXXXXXXX
903AR008016 71504854N        3390001000005394BERRYVILLE              ARK   XXXXXXXXXXXX
903AR008027 71519650N        3390001000002088EUREKA SPRINGS          ARK   XXXXXXXXXXXX
903AR008036 71524738N        3390001000002777GREEN FOREST            ARK   XXXXXXXXXXXX
903AR009008D71572964N        3390001000003787CHICOT                  ARK   XXXXXXXXXXXX
903AR009016 71515930N        3390001000002722DERMOTT                 ARK   XXXXXXXXXXXX
903AR009027 71519548N        3390001000002105EUDORA                  ARK   XXXXXXXXXXXX
903AR009037 71532796N        3390001000002417LAKE VILLAGE            ARK   XXXXXXXXXXXX
903AR010008D71573135N        3390001000008404CLARK                   ARK   XXXXXXXXXXXX
903AR010015 71501866N        3390001000010637ARKADELPHIA             ARK   XXXXXXXXXXXX
903AR010027 71525392N        3390001000002136GURDON                  ARK   XXXXXXXXXXXX
903AR010037 71508217N        3390001000000606CADDO VALLEY            ARK   XXXXXXXXXXXX
903AR010047 71597111N        3390001000000000HENDERSON STATE UNIVERSIARK   XXXXXXXXXXXX
903AR010057 71501221N        3390001000000700AMITY                   ARK   XXXXXXXXXXXX
903AR011008D71573204N        3390001000008164CLAY                    ARK   XXXXXXXXXXXX
903AR011016 71513590N        3390001000003113CORNING                 ARK   XXXXXXXXXXXX
903AR011026 71548977N        3390001000003614PIGGOTT                 ARK   XXXXXXXXXXXX
903AR012008C71573291N        3390001000016610CLEBURNE                ARK   XXXXXXXXXXXX
903AR012016 71527054N        3390001000007164HEBER SPRINGS           ARK   XXXXXXXXXXXX
903AR012027 71551135N        3390001000000746QUITMAN                 ARK   XXXXXXXXXXXX
903AR012037 71525051N        3390001000000875GREERS FERRY            ARK   XXXXXXXXXXXX
903AR013009D71573306N        3390001000007095CLEVELAND               ARK   XXXXXXXXXXXX
903AR013017 71552515N        3390001000001295RISON                   ARK   XXXXXXXXXXXX
903AR014008C71573507N        3390001000012323COLUMBIA                ARK   XXXXXXXXXXXX
903AR014015 71536576N        3390001000011414MAGNOLIA                ARK   XXXXXXXXXXXX
903AR014057 71597113N        3390001000000000SOUTHERN ARKANSAS UNIV  ARK   XXXXXXXXXXXX
903AR015008C71573627N        3390001000013193CONWAY                  ARK   XXXXXXXXXXXX
903AR015016 71541208N        3390001000006744MORRILTON               ARK   XXXXXXXXXXXX
903AR015037 71549707N        3390001000000806PLUMERVILLE             ARK   XXXXXXXXXXXX
903AR015047 71538935N        3390001000000298MENIFEE                 ARK   XXXXXXXXXXXX
903AR016009C71573732N        3390001000018067CRAIGHEAD               ARK   XXXXXXXXXXXX
903AR016013 71530708Y        3390001000073404JONESBORO               ARK   XXXXXXXXXXXX
903AR016027 71509076N        3390001000001259CARAWAY                 ARK   XXXXXXXXXXXX
903AR016037 71532433N        3390001000002295LAKE CITY               ARK   XXXXXXXXXXXX
903AR016047 71503597N        3390001000001794BAY                     ARK   XXXXXXXXXXXX
903AR016057 71597109N        3390001000000000AR STATE UNIV: JONESBOROARK   XXXXXXXXXXXX
903AR016067 71540509N        3390001000001530MONETTE                 ARK   XXXXXXXXXXXX
903AR016077 71505977N        3390001000002166BONO                    ARK   XXXXXXXXXXXX
903AR016156 71507233N        3390001000003499BROOKLAND               ARK   XXXXXXXXXXXX
903AR017009B71573756N        3390001000030433CRAWFORD                ARK   XXXXXXXXXXXX
903AR017015 71563408N        3390001000023132VAN BUREN               ARK   XXXXXXXXXXXX
903AR017026 71500894N        3390001000005581ALMA                    ARK   XXXXXXXXXXXX
903AR017037 71542027N        3390001000001618MULBERRY                ARK   XXXXXXXXXXXX
903AR017057 71517127N        3390001000000857DYER                    ARK   XXXXXXXXXXXX
903AR018009D71573801N        3390001000009383CRITTENDEN              ARK   XXXXXXXXXXXX
903AR018014 71566486N        3390001000025218WEST MEMPHIS            ARK   XXXXXXXXXXXX
903AR018027 71517215N        3390001000002298EARLE                   ARK   XXXXXXXXXXXX
903AR018045 71537440N        3390001000012301MARION                  ARK   XXXXXXXXXXXX
903AR019008D71573831N        3390001000007934CROSS                   ARK   XXXXXXXXXXXX
903AR019016 71569042N        3390001000008098WYNNE                   ARK   XXXXXXXXXXXX
903AR019027 71547608N        3390001000001044PARKIN                  ARK   XXXXXXXXXXXX
903AR020008D71574017N        3390001000003614DALLAS                  ARK   XXXXXXXXXXXX
903AR020016 71521204N        3390001000004067FORDYCE                 ARK   XXXXXXXXXXXX
903AR021008D71574492N        3390001000003414DESHA                   ARK   XXXXXXXXXXXX
903AR021016 71538460N        3390001000003980MCGEHEE                 ARK   XXXXXXXXXXXX
903AR021027 71501869N        3390001000000329ARKANSAS CITY           ARK   XXXXXXXXXXXX
903AR021036 71516848N        3390001000004370DUMAS                   ARK   XXXXXXXXXXXX
903AR022008D71574866N        3390001000008896DREW                    ARK   XXXXXXXXXXXX
903AR022016 71540830N        3390001000009712MONTICELLO              ARK   XXXXXXXXXXXX
903AR022037 71597123N        3390001000000000UNIV OF AR: MONTICELLO  ARK   XXXXXXXXXXXX
903AR023009B71575328N        3390001000043672FAULKNER                ARK   XXXXXXXXXXXX
903AR023013 71513266Y        3390001000065764CONWAY                  ARK   XXXXXXXXXXXX
903AR023026 71524606N        3390001000005339GREENBRIER              ARK   XXXXXXXXXXXX
903AR023037 71538226N        3390001000002374MAYFLOWER               ARK   XXXXXXXXXXXX
903AR023046 71563906N        3390001000004469VILONIA                 ARK   XXXXXXXXXXXX
903AR023057 71525431N        3390001000000721GUY                     ARK   XXXXXXXXXXXX
903AR023067 71597135N        3390001000000000UNIV OF CENTRAL ARKANSASARK   XXXXXXXXXXXX
903AR024008C71575619N        3390001000010904FRANKLIN                ARK   XXXXXXXXXXXX
903AR024016 71546980N        3390001000003597OZARK                   ARK   XXXXXXXXXXXX
903AR024027 71510392N        3390001000002494CHARLESTON              ARK   XXXXXXXXXXXX
903AR024037 71501077N        3390001000000731ALTUS                   ARK   XXXXXXXXXXXX
903AR025008D71575784N        3390001000008579FULTON                  ARK   XXXXXXXXXXXX
903AR025017 71554634N        3390001000001621SALEM                   ARK   XXXXXXXXXXXX
903AR025027 71536759N        3390001000000960MAMMOTH SPRING          ARK   XXXXXXXXXXXX
903AR026009B71575973N        3390001000061827GARLAND                 ARK   XXXXXXXXXXXX
903AR026014 71528692Y        3390001000035783HOT SPRINGS             ARK   XXXXXXXXXXXX
903AR026037 71541529NAR02600 3390000000000784MOUNTAIN PINE           ARK   XXXXXXXXXXXX
903AR027009C71576375N        3390001000013305GRANT                   ARK   XXXXXXXXXXXX
903AR027016 71556838N        3390001000004903SHERIDAN                ARK   XXXXXXXXXXXX
903AR028008C71576473N        3390001000015053GREENE                  ARK   XXXXXXXXXXXX
903AR028014 71547454N        3390001000027791PARAGOULD               ARK   XXXXXXXXXXXX
903AR028027 71537635N        3390001000001231MARMADUKE               ARK   XXXXXXXXXXXX
903AR029008C71577071N        3390001000012281HEMPSTEAD               ARK   XXXXXXXXXXXX
903AR029016 71528524N        3390001000009986HOPE                    ARK   XXXXXXXXXXXX
903AR030008C71577413N        3390001000022513HOT SPRING              ARK   XXXXXXXXXXXX
903AR030015 71536714N        3390001000010909MALVERN                 ARK   XXXXXXXXXXXX
903AR030037 71553050NAR03000 3390000000000754ROCKPORT                ARK   XXXXXXXXXXXX
903AR031008D71577449N        3390001000006622HOWARD                  ARK   XXXXXXXXXXXX
903AR031016 71542438N        3390001000004526NASHVILLE               ARK   XXXXXXXXXXXX
903AR031027 71516185N        3390001000001101DIERKS                  ARK   XXXXXXXXXXXX
903AR031047 71540179N        3390001000001170MINERAL SPRINGS         ARK   XXXXXXXXXXXX
903AR032008B71577608N        3390001000026301INDEPENDENCE            ARK   XXXXXXXXXXXX
903AR032015 71503486N        3390001000010534BATESVILLE              ARK   XXXXXXXXXXXX
903AR032027 71542790NAR03200 3390000000001181NEWARK                  ARK   XXXXXXXXXXXX
903AR032037 71542789NAR03202 3390000000000000NEWARK                  ARK   XXXXXXXXXXXX
903AR033008C71577734N        3390001000013437IZARD                   ARK   XXXXXXXXXXXX
903AR033027 71528662NAR03300 3390000000002090HORSESHOE BEND          ARK   XXXXXXXXXXXX
903AR034008D71577764N        3390001000005863JACKSON                 ARK   XXXXXXXXXXXX
903AR034016 71543536N        3390001000007744NEWPORT                 ARK   XXXXXXXXXXXX
903AR034027 71562331N        3390001000001773TUCKERMAN               ARK   XXXXXXXXXXXX
903AR034037 71516149N        3390001000001264DIAZ                    ARK   XXXXXXXXXXXX
903AR034067 71560667N        3390001000000763SWIFTON                 ARK   XXXXXXXXXXXX
903AR035009C71577956N        3390001000019864JEFFERSON               ARK   XXXXXXXXXXXX
903AR035014 71549080Y        3390001000044466PINE BLUFF              ARK   XXXXXXXXXXXX
903AR035026 71567200N        3390001000005174WHITE HALL              ARK   XXXXXXXXXXXX
903AR035037 71551640N        3390001000001588REDFIELD                ARK   XXXXXXXXXXXX
903AR035047 71597126N        3390001000000000UNIV OF AR: PINE BLUFF  ARK   XXXXXXXXXXXX
903AR035067 71501023NAR03500 3390000000000892ALTHEIMER               ARK   XXXXXXXXXXXX
903AR036008C71578094N        3390001000015008JOHNSON                 ARK   XXXXXXXXXXXX
903AR036016 71511544N        3390001000009443CLARKSVILLE             ARK   XXXXXXXXXXXX
903AR036037 71532889N        3390001000001671LAMAR                   ARK   XXXXXXXXXXXX
903AR037008D71578562N        3390001000004251LAFAYETTE               ARK   XXXXXXXXXXXX
903AR037027 71559286N        3390001000001554STAMPS                  ARK   XXXXXXXXXXXX
903AR037037 71534215N        3390001000001181LEWISVILLE              ARK   XXXXXXXXXXXX
903AR038008D71578823N        3390001000008321LAWRENCE                ARK   XXXXXXXXXXXX
903AR038016 71564404N        3390001000004695WALNUT RIDGE            ARK   XXXXXXXXXXXX
903AR038026 71528812N        3390001000002693HOXIE                   ARK   XXXXXXXXXXXX
903AR038047 71551465N        3390001000000454RAVENDEN                ARK   XXXXXXXXXXXX
903AR038057 71505397N        3390001000000628BLACK ROCK              ARK   XXXXXXXXXXXX
903AR039008D71578901N        3390001000005919LEE                     ARK   XXXXXXXXXXXX
903AR039016 71537362N        3390001000003815MARIANNA                ARK   XXXXXXXXXXXX
903AR040009C71579120N        3390001000011736LINCOLN                 ARK   XXXXXXXXXXXX
903AR040017 71524024NAR04000 3390000000000784GOULD                   ARK   XXXXXXXXXXXX
903AR040027 71559406N        3390001000002208STAR CITY               ARK   XXXXXXXXXXXX
903AR040037 71524057NAR04000 3390000000000416GRADY                   ARK   XXXXXXXXXXXX
903AR041009D71579237N        3390001000007932LITTLE RIVER            ARK   XXXXXXXXXXXX
903AR041016 71502058N        3390001000004453ASHDOWN                 ARK   XXXXXXXXXXXX
903AR041027 71521207NAR04100 3390000000000945FOREMAN                 ARK   XXXXXXXXXXXX
903AR042008C71579303N        3390001000014484LOGAN                   ARK   XXXXXXXXXXXX
903AR042016 71505994N        3390001000003924BOONEVILLE              ARK   XXXXXXXXXXXX
903AR042026 71547478N        3390001000003460PARIS                   ARK   XXXXXXXXXXXX
903AR043009B71579336N        3390001000028832LONOKE                  ARK   XXXXXXXXXXXX
903AR043016 71519194N        3390001000002775ENGLAND                 ARK   XXXXXXXXXXXX
903AR043024 71508207N        3390001000026064CABOT                   ARK   XXXXXXXXXXXX
903AR043037 71509150N        3390001000002198CARLISLE                ARK   XXXXXXXXXXXX
903AR043046 71535400N        3390001000004262LONOKE                  ARK   XXXXXXXXXXXX
903AR043056 71502720N        3390001000003407AUSTIN                  ARK   XXXXXXXXXXXX
903AR043066 71564514N        3390001000004747WARD                    ARK   XXXXXXXXXXXX
903AR044009C71579522N        3390001000015751MADISON                 ARK   XXXXXXXXXXXX
903AR044017 71529154NAR04400 3390000000002387HUNTSVILLE              ARK   XXXXXXXXXXXX
903AR045008C71579708N        3390001000012997MARION                  ARK   XXXXXXXXXXXX
903AR045017 71569204NAR04500 3390000000001175YELLVILLE               ARK   XXXXXXXXXXXX
903AR045027 71507722N        3390001000001951BULL SHOALS             ARK   XXXXXXXXXXXX
903AR045037 71520937N        3390001000001349FLIPPIN                 ARK   XXXXXXXXXXXX
903AR046009C71580341N        3390001000013375MILLER                  ARK   XXXXXXXXXXXX
903AR046014 71561314N        3390001000030026TEXARKANA               ARK   XXXXXXXXXXXX
903AR047008C71580398N        3390001000014961MISSISSIPPI             ARK   XXXXXXXXXXXX
903AR047015 71505808N        3390001000014717BLYTHEVILLE             ARK   XXXXXXXXXXXX
903AR047026 71546596N        3390001000007222OSCEOLA                 ARK   XXXXXXXXXXXX
903AR047037 71533624N        3390001000001867LEACHVILLE              ARK   XXXXXXXXXXXX
903AR047057 71536070N        3390001000001103LUXORA                  ARK   XXXXXXXXXXXX
903AR047076 71524015N        3390001000003307GOSNELL                 ARK   XXXXXXXXXXXX
903AR047087 71531131NAR04700 3390000000000705KEISER                  ARK   XXXXXXXXXXXX
903AR047097 71515644N        3390001000000208DELL                    ARK   XXXXXXXXXXXX
903AR047107 71519533N        3390001000000329ETOWAH                  ARK   XXXXXXXXXXXX
903AR048008D71580491N        3390001000003030MONROE                  ARK   XXXXXXXXXXXX
903AR048016 71506972N        3390001000002909BRINKLEY                ARK   XXXXXXXXXXXX
903AR048027 71511412N        3390001000001514CLARENDON               ARK   XXXXXXXXXXXX
903AR048037 71528230NAR04800 3390000000000552HOLLY GROVE             ARK   XXXXXXXXXXXX
903AR049008D71580593N        3390001000008943MONTGOMERY              ARK   XXXXXXXXXXXX
903AR050008D71581028N        3390001000005490NEVADA                  ARK   XXXXXXXXXXXX
903AR050016 71550652N        3390001000003172PRESCOTT                ARK   XXXXXXXXXXXX
903AR051008D71581115N        3390001000007359NEWTON                  ARK   XXXXXXXXXXXX
903AR051017 71530273N        3390001000000443JASPER                  ARK   XXXXXXXXXXXX
903AR052008C71581727N        3390001000012190OUACHITA                ARK   XXXXXXXXXXXX
903AR052015 71508574N        3390001000011423CAMDEN                  ARK   XXXXXXXXXXXX
903AR052027 71503765N        3390001000000904BEARDEN                 ARK   XXXXXXXXXXXX
903AR052037 71559526NAR05200 3390000000000831STEPHENS                ARK   XXXXXXXXXXXX
903AR052067 71597114N        3390001000000000SOUTHERN AR UNIV TECH   ARK   XXXXXXXXXXXX
903AR053009D71582015N        3390001000008761PERRY                   ARK   XXXXXXXXXXXX
903AR053017 71548575N        3390001000001433PERRYVILLE              ARK   XXXXXXXXXXXX
903AR054008D71582087N        3390001000007363PHILLIPS                ARK   XXXXXXXXXXXX
903AR054015 71527153N        3390001000011101HELENA-WEST HELENA      ARK   XXXXXXXXXXXX
903AR054027 71566315NAR05401 3390000000000000WEST HELENA             ARK   XXXXXXXXXXXX
903AR054037 71537858N        3390001000001049MARVELL                 ARK   XXXXXXXXXXXX
903AR054047 71518300NAR05400 3390000000000557ELAINE                  ARK   XXXXXXXXXXXX
903AR055008D71582147N        3390001000007234PIKE                    ARK   XXXXXXXXXXXX
903AR055017 71542159N        3390001000001599MURFREESBORO            ARK   XXXXXXXXXXXX
903AR055027 71523669N        3390001000002168GLENWOOD                ARK   XXXXXXXXXXXX
903AR056009D71582300N        3390001000008866POINSETT                ARK   XXXXXXXXXXXX
903AR056016 71537542N        3390001000002516MARKED TREE             ARK   XXXXXXXXXXXX
903AR056026 71562280N        3390001000007179TRUMANN                 ARK   XXXXXXXXXXXX
903AR056037 71526346N        3390001000002323HARRISBURG              ARK   XXXXXXXXXXXX
903AR056047 71534065N        3390001000001844LEPANTO                 ARK   XXXXXXXXXXXX
903AR056057 71562631N        3390001000000751TYRONZA                 ARK   XXXXXXXXXXXX
903AR056077 71565692N        3390001000000692WEINER                  ARK   XXXXXXXXXXXX
903AR057008C71582312N        3390001000014473POLK                    ARK   XXXXXXXXXXXX
903AR057016 71538886N        3390001000005639MENA                    ARK   XXXXXXXXXXXX
903AR058008B71582390N        3390001000026698POPE                    ARK   XXXXXXXXXXXX
903AR058014 71553976N        3390001000029197RUSSELLVILLE            ARK   XXXXXXXXXXXX
903AR058026 71502334N        3390001000003055ATKINS                  ARK   XXXXXXXXXXXX
903AR058047 71597110N        3390001000000000AR TECH UNIVERSITY      ARK   XXXXXXXXXXXX
903AR058077 71516533N        3390001000001401DOVER                   ARK   XXXXXXXXXXXX
903AR058097 71527075NAR05800 3390000000000452HECTOR                  ARK   XXXXXXXXXXXX
903AR058106 71550505N        3390001000003122POTTSVILLE              ARK   XXXXXXXXXXXX
903AR059008D71582468N        3390001000004620PRAIRIE                 ARK   XXXXXXXXXXXX
903AR059017 71526964N        3390001000001388HAZEN                   ARK   XXXXXXXXXXXX
903AR059027 71515960N        3390001000001620DES ARC                 ARK   XXXXXXXXXXXX
903AR059037 71516044N        3390001000000580DE VALLS BLUFF          ARK   XXXXXXXXXXXX
903AR060009B71582543N        3390001000049998PULASKI                 ARK   XXXXXXXXXXXX
903AR060014 71530144N        3390001000028902JACKSONVILLE            ARK   XXXXXXXXXXXX
903AR060022 71534866Y        3390001000198647LITTLE ROCK             ARK   XXXXXXXXXXXX
903AR060033 71544616Y        3390001000067943NORTH LITTLE ROCK       ARK   XXNXXXXXXXXX                                                                                                                                                      000010000000001000000000000000000010000000001000010000000001000000000000000
903AR060044 71556910N        3390001000030572SHERWOOD                ARK   XXXXXXXXXXXX
903AR060057 71597120N        3390001000000000UNIV OF AR: LITTLE ROCK ARK   XXXXXXXXXXXX
903AR060076 71500651N        3390001000002853ALEXANDER               ARK   XXXXXXXXXXXX
903AR060087 71508661N        3390001000000750CAMMACK VILLAGE         ARK   XXXXXXXXXXXX
903AR060097 71597121N        3390001000000000UNIV OF AR: MEDICAL SCIEARK   XXXXXXXXXXXX
903AR060147 71508719N        3390001000000000CAMP ROBINSON           ARK   XXXXXXXXXXXX
903AR060165 71538166N        3390001000017943MAUMELLE                ARK   XXXXXXXXXXXX
903AR060177 71559426N        3390001000000000STATE CAPITOL POLICE    ARK   XXXXXXXXXXXX
903AR061008C71582714N        3390001000011035RANDOLPH                ARK   XXXXXXXXXXXX
903AR061016 71549806N        3390001000006442POCAHONTAS              ARK   XXXXXXXXXXXX
903AR062008D71584624N        3390001000009864ST. FRANCIS             ARK   XXXXXXXXXXXX
903AR062015 71521324N        3390001000014700FORREST CITY            ARK   XXXXXXXXXXXX
903AR062027 71528932N        3390001000001319HUGHES                  ARK   XXXXXXXXXXXX
903AR062067 71536427N        3390001000000705MADISON                 ARK   XXXXXXXXXXXX
903AR063009B71583299N        3390001000056634SALINE                  ARK   XXXXXXXXXXXX
903AR063014 71504602N        3390001000034356BENTON                  ARK   XXXXXXXXXXXX
903AR063025 71507512N        3390001000020404BRYANT                  ARK   XXXXXXXXXXXX
903AR063046 71556487N        3390001000003815SHANNON HILLS           ARK   XXXXXXXXXXXX
903AR064008D71583698N        3390001000006757SCOTT                   ARK   XXXXXXXXXXXX
903AR064016 71564266N        3390001000003404WALDRON                 ARK   XXXXXXXXXXXX
903AR065008D71583728N        3390001000007865SEARCY                  ARK   XXXXXXXXXXXX
903AR066009C71583731N        3390001000022267SEBASTIAN               ARK   XXXXXXXXXXXX
903AR066013 71521552Y        3390001000087603FORT SMITH              ARK   XXXXXXXXXXXX
903AR066026 71525002N        3390001000009310GREENWOOD               ARK   XXXXXXXXXXXX
903AR066036 71503252N        3390001000004725BARLING                 ARK   XXXXXXXXXXXX
903AR066077 71537065N        3390001000001096MANSFIELD               ARK   XXXXXXXXXXXX
903AR066127 71533423N        3390001000002400LAVACA                  ARK   XXXXXXXXXXXX
903AR067008C71583812N        3390001000010717SEVIER                  ARK   XXXXXXXXXXXX
903AR067016 71515894N        3390001000006781DE QUEEN                ARK   XXXXXXXXXXXX
903AR068008D71583836N        3390001000008625SHARP                   ARK   XXXXXXXXXXXX
903AR068017 71509765N        3390001000001860CAVE CITY               ARK   XXXXXXXXXXXX
903AR068027 71526199N        3390001000000756HARDY                   ARK   XXXXXXXXXXXX
903AR068037 71502079N        3390001000001059ASH FLAT                ARK   XXXXXXXXXXXX
903AR068046 71510715N        3390001000004568CHEROKEE VILLAGE        ARK   XXXXXXXXXXXX
903AR068067 71527557N        3390001000001051HIGHLAND                ARK   XXXXXXXXXXXX
903AR069008D71584711N        3390001000009651STONE                   ARK   XXXXXXXXXXXX
903AR069016 71541538N        3390001000002862MOUNTAIN VIEW           ARK   XXXXXXXXXXXX
903AR070008C71585510N        3390001000021665UNION                   ARK   XXXXXXXXXXXX
903AR070015 71518378N        3390001000018229EL DORADO               ARK   XXXXXXXXXXXX
903AR070027 71557486NAR07000 3390000000001772SMACKOVER               ARK   XXXXXXXXXXXX
903AR071008C71585657N        3390001000011873VAN BUREN               ARK   XXXXXXXXXXXX
903AR071017 71519998N        3390001000002265FAIRFIELD BAY           ARK   XXXXXXXXXXXX
903AR071026 71511963N        3390001000002537CLINTON                 ARK   XXXXXXXXXXXX
903AR071037 71514901N        3390001000000382DAMASCUS                ARK   XXXXXXXXXXXX
903AR072009B71586017N        3390001000047157WASHINGTON              ARK   XXXXXXXXXXXX
903AR072013 71520556Y        3390001000082377FAYETTEVILLE            ARK   NNNXXXXXXXXX000010000000001000000000000000000010000000001000000000000000000000000000000000010000000001000000000000000000010000000001000000000000000000000000000000000010000000001000000000000000000010000000001000010000000001000000000000000
903AR072023 71558908Y        3390001000078001SPRINGDALE              ARK   XXXXXXXXXXXX
903AR072036 71550604N        3390001000005077PRAIRIE GROVE           ARK   XXXXXXXXXXXX
903AR072047 71597117N        3390001000000000UNIV OF AR: FAYETTEVILLEARK   XXXXXXXXXXXX
903AR072056 71520400N        3390001000006603FARMINGTON              ARK   XXXXXXXXXXXX
903AR072067 71534488N        3390001000002454LINCOLN                 ARK   XXXXXXXXXXXX
903AR072077 71524756N        3390001000001397GREENLAND               ARK   XXXXXXXXXXXX
903AR072086 71566252N        3390001000002552WEST FORK               ARK   XXXXXXXXXXXX
903AR072096 71530618N        3390001000003654JOHNSON                 ARK   XXXXXXXXXXXX
903AR072106 71518603N        3390001000002949ELKINS                  ARK   XXXXXXXXXXXX
903AR073008B71586443N        3390001000036810WHITE                   ARK   XXXXXXXXXXXX
903AR073015 71556016N        3390001000024247SEARCY                  ARK   XXXXXXXXXXXX
903AR073026 71503030N        3390001000002890BALD KNOB               ARK   XXXXXXXXXXXX
903AR073036 71503984N        3390001000008138BEEBE                   ARK   XXXXXXXXXXXX
903AR073047 71531320N        3390001000001645KENSETT                 ARK   XXXXXXXXXXXX
903AR073057 71547382N        3390001000000597PANGBURN                ARK   XXXXXXXXXXXX
903AR073067 71553436N        3390001000000479ROSE BUD                ARK   XXXXXXXXXXXX
903AR073077 71530834N        3390001000002018JUDSONIA                ARK   XXXXXXXXXXXX
903AR073087 71506342N        3390001000000755BRADFORD                ARK   XXXXXXXXXXXX
903AR073097 71527540N        3390001000000648HIGGINSON               ARK   XXXXXXXXXXXX
903AR073107 71538607N        3390001000000677MCRAE                   ARK   XXXXXXXXXXXX
903AR073127 71597108N        3390001000000000AR STATE UNIV: BEEBE    ARK   XXXXXXXXXXXX
903AR074008D71586662N        3390001000003124WOODRUFF                ARK   XXXXXXXXXXXX
903AR074017 71502598N        3390001000002084AUGUSTA                 ARK   XXXXXXXXXXXX
903AR074027 71538412N        3390001000001621MCCRORY                 ARK   XXXXXXXXXXXX
903AR075008C71586812N        3390001000012965YELL                    ARK   XXXXXXXXXXXX
903AR075016 71515054N        3390001000004702DARDANELLE              ARK   XXXXXXXXXXXX
903AR075027 71514976N        3390001000002368DANVILLE                ARK   XXXXXXXXXXXX
903AR075037 71545897N        3390001000001260OLA                     ARK   XXXXXXXXXXXX
903AR075047 71549479N        3390001000000604PLAINVIEW               ARK   XXXXXXXXXXXX
903ARASP008D71570813N        3390001000000000ARKANSAS STATE POLICE   ARK   XXXXXXXXXXXX
904CA001009A91570432N        3790001000148634ALAMEDA                 CALIF XXXXXXXXXXXX
904CA001013 91500444N        3790001000078613ALAMEDA                 CALIF XXXXXXXXXXXX
904CA001025 91500492N        3790001000019723ALBANY                  CALIF XXXXXXXXXXXX
904CA001032 91504704Y        3790001000120387BERKELEY                CALIF XXXXXXXXXXXX
904CA001045 91519068N        3790001000011549EMERYVILLE              CALIF XXXXXXXXXXXX
904CA001052 91522182N        3790001000232427FREMONT                 CALIF XXXXXXXXXXXX
904CA001062 91526910Y        3790001000157157HAYWARD                 CALIF XXXXXXXXXXXX
904CA001073 91534950N        3790001000088316LIVERMORE               CALIF XXXXXXXXXXXX
904CA001084 91542792N        3790001000045258NEWARK                  CALIF XXXXXXXXXXXX
904CA001091C91545330Y        3790001000419481OAKLAND                 CALIF XXXXXXXXXXXX
904CA001105 91548900N        3790001000011372PIEDMONT                CALIF XXXXXXXXXXXX
904CA001113 91549650Y        3790001000079611PLEASANTON              CALIF XXXXXXXXXXXX
904CA001123 91555242Y        3790001000090438SAN LEANDRO             CALIF XXXXXXXXXXXX
904CA001133 91562754N        3790001000074648UNION CITY              CALIF XXXXXXXXXXXX
904CA001147 91517280N        3790001000000000E BAY REG PKS:ALAMEDA COCALIF XXXXXXXXXXXX
904CA001157 91597154N        3790001000000000CA ST UN: EAST BAY      CALIF XXXXXXXXXXXX
904CA001169D91585550N        3790001000000000UPRR: ALAMEDA COUNTY    CALIF XXXXXXXXXXXX
904CA001217 91555146N        3790001000000000SF BART: ALAMEDA COUNTY CALIF XXXXXXXXXXXX
904CA001227 91597348NCA00100 3790000000000000UC:LAWRENCE-LIVERMORE LACALIF XXXXXXXXXXXX
904CA001277 91597342NCA00197 3790000000000000UN CA: LAWRENCE BERKELEYCALIF XXXXXXXXXXXX
904CA001289D91570435NCA00116 3790000000000000BNSF RWY: ALAMEDA COUNTYCALIF XXXXXXXXXXXX
904CA001299D91584028NCA00116 3790000000000000SPT ALAMEDA             CALIF XXXXXXXXXXXX
904CA001303 91516742N        3790001000057148DUBLIN                  CALIF XXXXXXXXXXXX
904CA001317 91517274N        3790001000000000E BAY MUNICIPAL UTILITY CALIF XXXXXXXXXXXX
904CA001329D91585603NCA00116 3790000000000000UPRR ALAMEDA COUNTY     CALIF XXXXXXXXXXXX
904CA001977 91597324N        3790001000000000UN OF CA: BERKELEY      CALIF XXXXXXXXXXXX
904CA001989D91570441NCA00199 3790000000000000ALAMEDA STATE POLICE    CALIF XXXXXXXXXXXX
904CA001999D91570438N        3790001000000000HP: ALAMEDA COUNTY      CALIF XXXXXXXXXXXX
904CA002008D91570603N        3720001000001105ALPINE                  CALIF XXXXXXXXXXXX
904CA002998D91570606N        3720001000000000HP: ALPINE COUNTY       CALIF XXXXXXXXXXXX
904CA003008C91570609N        3720001000022583AMADOR                  CALIF XXXXXXXXXXXX
904CA003017 91501110NCA00300 3720000000000186AMADOR                  CALIF XXXXXXXXXXXX
904CA003026 91529724N        3720001000006804IONE                    CALIF XXXXXXXXXXXX
904CA003036 91530018N        3720001000004593JACKSON                 CALIF XXXXXXXXXXXX
904CA003047 91549722NCA00300 3720000000000957PLYMOUTH                CALIF XXXXXXXXXXXX
904CA003057 91560528N        3720001000002457SUTTER CREEK            CALIF XXXXXXXXXXXX
904CA003068D91585551N        3720001000000000UPRR: AMADOR COUNTY     CALIF XXXXXXXXXXXX
904CA003998D91570612N        3720001000000000HP: AMADOR COUNTY       CALIF XXXXXXXXXXXX
904CA004009B91572106N        3720001000084091BUTTE                   CALIF XXXXXXXXXXXX
904CA004017 91505166N        3720001000001712BIGGS                   CALIF XXXXXXXXXXXX
904CA004023 91511064Y        3720001000089949CHICO                   CALIF XXXXXXXXXXXX
904CA004036 91525104N        3720001000006580GRIDLEY                 CALIF XXXXXXXXXXXX
904CA004045 91546512N        3720001000016289OROVILLE                CALIF XXXXXXXXXXXX
904CA004054 91547442N        3720001000026514PARADISE                CALIF XXXXXXXXXXXX
904CA004069D91585552N        3720001000000000UPRR: BUTTE COUNTY      CALIF XXXXXXXXXXXX
904CA004079D91574792N        3720001000000000DPR: NORTHERN BUTTES    CALIF XXXXXXXXXXXX
904CA004099D91574864NCA00407 3720000000000000DPR: UPPER VALLEY       CALIF XXXXXXXXXXXX
904CA004119D91585559NCA00406 3720000000000000UPRR BUTTE COUNTY       CALIF XXXXXXXXXXXX
904CA004977 91597151N        3720001000000000CA ST UN: CHICO         CALIF XXXXXXXXXXXX
904CA004989D91572115NCA00499 3720000000000000BUTTE STATE POLICE      CALIF XXXXXXXXXXXX
904CA004999D91572112N        3720001000000000HP: BUTTE COUNTY        CALIF XXXXXXXXXXXX
904CA005008B91572148N        3720001000040637CALAVERAS               CALIF XXXXXXXXXXXX
904CA005016 91511355N        3720001000003738CITY OF ANGELS          CALIF XXXXXXXXXXXX
904CA005028D91585553N        3720001000000000UPRR: CALAVERAS COUNTY  CALIF XXXXXXXXXXXX
904CA005038D91574729N        3720001000000000DPR: CALAVERAS COUNTY   CALIF XXXXXXXXXXXX
904CA005998D91572151N        3720001000000000HP: CALAVERAS COUNTY    CALIF XXXXXXXXXXXX
904CA006008C91573579N        3720001000010248COLUSA                  CALIF XXXXXXXXXXXX
904CA006016 91512960N        3720001000005937COLUSA                  CALIF XXXXXXXXXXXX
904CA006026 91567626N        3720001000005205WILLIAMS                CALIF XXXXXXXXXXXX
904CA006038D91585554N        3720001000000000UPRR: COLUSA COUNTY     CALIF XXXXXXXXXXXX
904CA006988D91573585NCA00699 3720000000000000COLUSA STATE POLICE     CALIF XXXXXXXXXXXX
904CA006998D91573582N        3720001000000000HP: COLUSA COUNTY       CALIF XXXXXXXXXXXX
904CA007009A91573612N        3790001000167338CONTRA COSTA            CALIF XXXXXXXXXXXX
904CA007012 91501566N        3790001000110537ANTIOCH                 CALIF XXXXXXXXXXXX
904CA007023 91506636N        3790001000058398BRENTWOOD               CALIF XXXXXXXXXXXX
904CA007035 91511640N        3790001000011879CLAYTON                 CALIF XXXXXXXXXXXX
904CA007042 91513062N        3790001000128767CONCORD                 CALIF XXXXXXXXXXXX
904CA007055 91518354N        3790001000024842EL CERRITO              CALIF XXXXXXXXXXXX
904CA007064 91527348N        3790001000025326HERCULES                CALIF XXXXXXXXXXXX
904CA007075 91549266N        3790001000019284PINOLE                  CALIF XXXXXXXXXXXX
904CA007083 91549326N        3790001000069340PITTSBURG               CALIF XXXXXXXXXXXX
904CA007094 91549614N        3790001000034829PLEASANT HILL           CALIF XXXXXXXXXXXX
904CA007102 91552128N        3790001000109716RICHMOND                CALIF XXXXXXXXXXXX
904CA007114 91555290N        3790001000030290SAN PABLO               CALIF XXXXXXXXXXXX
904CA007123 91564392Y        3790001000068530WALNUT CREEK            CALIF XXXXXXXXXXXX
904CA007136 91531332N        3790001000005329KENSINGTON              CALIF XXXXXXXXXXXX
904CA007144 91537818N        3790001000037923MARTINEZ                CALIF XXXXXXXXXXXX
904CA007154 91532232N        3790001000025886LAFAYETTE               CALIF XXXXXXXXXXXX
904CA007165 91541082N        3790001000017284MORAGA                  CALIF XXXXXXXXXXXX
904CA007177 91517286N        3790001000000000E BY REG PK:CONTRA COSTACALIF XXXXXXXXXXXX
904CA007187 91555152N        3790001000000000SF BART: CONTRA COSTA COCALIF XXXXXXXXXXXX
904CA007199D91573615NCA00733 3790000000000000BNSF RWY:CONTRA COSTA COCALIF XXXXXXXXXXXX
904CA007209D91584241NCA00733 3790000000000000SPT CONTRA COSTA        CALIF XXXXXXXXXXXX
904CA007217 91597222N        3790001000000000CONTRA COSTA COMM COLLEGCALIF XXXXXXXXXXXX
904CA007234 91514982N        3790001000044401DANVILLE                CALIF XXXXXXXXXXXX
904CA007243 91555302Y        3790001000076081SAN RAMON               CALIF XXXXXXXXXXXX
904CA007259D91574744NCA04126 3790000000000000DPR: CONTRA COSTA COUNTYCALIF XXXXXXXXXXXX
904CA007265 91546446N        3790001000019311ORINDA                  CALIF XXXXXXXXXXXX
904CA007339D91585555N        3790001000000000UPRR: CONTRA COSTA CNTY CALIF XXXXXXXXXXXX
904CA007344 91545399N        3790001000040163OAKLEY                  CALIF XXXXXXXXXXXX
904CA007989D91573621NCA00799 3790000000000000CONTRA COSTA STATE POLICCALIF XXXXXXXXXXXX
904CA007999D91573618N        3790001000000000HP: CONTRA COSTA COUNTY CALIF XXXXXXXXXXXX
904CA008008C91574217N        3790001000020258DEL NORTE               CALIF XXXXXXXXXXXX
904CA008016 91514154N        3790001000006599CRESCENT CITY           CALIF XXXXXXXXXXXX
904CA008998D91574218N        3790001000000000HP: DEL NORTE COUNTY    CALIF XXXXXXXXXXXX
904CA009009A91575058N        3720001000151252EL DORADO               CALIF XXXXXXXXXXXX
904CA009015 91549404N        3720001000010601PLACERVILLE             CALIF XXXXXXXXXXXX
904CA009025 91558356N        3720001000021558SOUTH LAKE TAHOE        CALIF XXXXXXXXXXXX
904CA009039D91585556N        3720001000000000UPRR: EL DORADO COUNTY  CALIF XXXXXXXXXXXX
904CA009239D91574747NCA03422 3720000000000000DPR: EL DORADO COUNTY   CALIF XXXXXXXXXXXX
904CA009989D91575061NCA00999 3720000000000000EL DORADO STATE POLICE  CALIF XXXXXXXXXXXX
904CA009999D91575062N        3720001000000000HP: EL DORADO COUNTY    CALIF XXXXXXXXXXXX
904CA010009A91575754N        3720001000173630FRESNO                  CALIF XXXXXXXXXXXX
904CA010012 91512162N        3720001000103769CLOVIS                  CALIF XXXXXXXXXXXX
904CA010025 91512252N        3720001000016073COALINGA                CALIF XXXXXXXXXXXX
904CA010036 91520766N        3720001000008484FIREBAUGH               CALIF XXXXXXXXXXXX
904CA010046 91521684N        3720001000006144FOWLER                  CALIF XXXXXXXXXXXX
904CA010051B91522224Y        3720001000520837FRESNO                  CALIF XXXXXXXXXXXX
904CA010066 91529196N        3720001000006818HURON                   CALIF XXXXXXXXXXXX
904CA010075 91531416N        3720001000014595KERMAN                  CALIF XXXXXXXXXXXX
904CA010085 91531680N        3720001000011813KINGSBURG               CALIF XXXXXXXXXXXX
904CA010095 91538952N        3720001000011470MENDOTA                 CALIF XXXXXXXXXXXX
904CA010106 91546326N        3720001000009715ORANGE COVE             CALIF XXXXXXXXXXXX
904CA010115 91547676N        3720001000015106PARLIER                 CALIF XXXXXXXXXXXX
904CA010124 91551774N        3720001000025711REEDLEY                 CALIF XXXXXXXXXXXX
904CA010135 91555176N        3720001000024933SANGER                  CALIF XXXXXXXXXXXX
904CA010146 91555200NCA01000 3720000000004027SAN JOAQUIN             CALIF XXXXXXXXXXXX
904CA010155 91556208N        3720001000024532SELMA                   CALIF XXXXXXXXXXXX
904CA010177 91597315N        3720001000000000STATE CENTER COM COL DSTCALIF XXXXXXXXXXXX
904CA010189D91575757NCA01024 3720000000000000BNSF RWY: FRESNO COUNTY CALIF XXXXXXXXXXXX
904CA010199D91584253NCA01024 3720000000000000SPT FRESNO              CALIF XXXXXXXXXXXX
904CA010249D91585557N        3720001000000000UPRR: FRESNO COUNTY     CALIF XXXXXXXXXXXX
904CA010309D91574834N        3720001000000000DPR: SAN JOAQUIN        CALIF XXXXXXXXXXXX
904CA010317 91597279NCA01017 3720000000000000REEDLEY COMMUNITY COLLEGCALIF XXXXXXXXXXXX
904CA010977 91597155N        3720001000000000CA ST UN: FRESNO        CALIF XXXXXXXXXXXX
904CA010989D91575763NCA01099 3720000000000000FRESNO STATE POLICE     CALIF XXXXXXXXXXXX
904CA010999D91575760N        3720001000000000HP: FRESNO COUNTY       CALIF XXXXXXXXXXXX
904CA010M19D91573382N        3720001000000000COALINGA STATE HOSPITAL CALIF XXXXXXXXXXXX
904CA011008C91576198N        3720001000014271GLENN                   CALIF XXXXXXXXXXXX
904CA011016 91546458N        3720001000007549ORLAND                  CALIF XXXXXXXXXXXX
904CA011026 91567818N        3720001000006074WILLOWS                 CALIF XXXXXXXXXXXX
904CA011038D91585558N        3720001000000000UPRR: GLENN COUNTY      CALIF XXXXXXXXXXXX
904CA011998D91576201N        3720001000000000HP: GLENN COUNTY        CALIF XXXXXXXXXXXX
904CA012008B91577506N        3790001000073374HUMBOLDT                CALIF XXXXXXXXXXXX
904CA012015 91501770N        3790001000017789ARCATA                  CALIF XXXXXXXXXXXX
904CA012027 91505742NCA01200 3790000000001241BLUE LAKE               CALIF XXXXXXXXXXXX
904CA012034 91519602N        3790001000026858EUREKA                  CALIF XXXXXXXXXXXX
904CA012047 91520676N        3790001000001362FERNDALE                CALIF XXXXXXXXXXXX
904CA012055 91521576N        3790001000011876FORTUNA                 CALIF XXXXXXXXXXXX
904CA012067 91562172NCA01200 3790000000000355TRINIDAD                CALIF XXXXXXXXXXXX
904CA012076 91552464N        3790001000003378RIO DELL                CALIF XXXXXXXXXXXX
904CA012087 91597246N        3790001000000000HUMBOLDT STATE UNIVERSITCALIF XXXXXXXXXXXX
904CA012098D91585562N        3790001000000000UPRR: HUMBOLDT COUNTY   CALIF XXXXXXXXXXXX
904CA012108D91574745NCA01211 3790000000000000DPR: EEL RIVER          CALIF XXXXXXXXXXXX
904CA012118D91574795N        3790001000000000DPR: N COAST REDWOODS   CALIF XXXXXXXXXXXX
904CA012998D91577509N        3790001000000000HP: HUMBOLDT COUNTY     CALIF XXXXXXXXXXXX
904CA013009B91577599N        3780001000036403IMPERIAL                CALIF XXXXXXXXXXXX
904CA013014 91506526N        3780001000026023BRAWLEY                 CALIF XXXXXXXXXXXX
904CA013024 91508352N        3780001000040085CALEXICO                CALIF XXXXXXXXXXXX
904CA013036 91508418N        3780001000007492CALIPATRIA              CALIF XXXXXXXXXXXX
904CA013044 91518348Y        3780001000044033EL CENTRO               CALIF XXXXXXXXXXXX
904CA013056 91528314N        3780001000006376HOLTVILLE               CALIF XXXXXXXXXXXX
904CA013065 91529406N        3780001000017338IMPERIAL                CALIF XXXXXXXXXXXX
904CA013077 91566594N        3780001000002278WESTMORLAND             CALIF XXXXXXXXXXXX
904CA013089D91585563N        3780001000000000UPRR: IMPERIAL COUNTY   CALIF XXXXXXXXXXXX
904CA013099D91574765NCA01300 3780000000000000DPR: IMPERIAL COUNTY    CALIF XXXXXXXXXXXX
904CA013989D91577602NCA01399 3780000000000000IMPERIAL STATE POLICE   CALIF XXXXXXXXXXXX
904CA013999D91577600N        3780001000000000HP: IMPERIAL COUNTY     CALIF XXXXXXXXXXXX
904CA014008C91577647N        3720001000014531INYO                    CALIF XXXXXXXXXXXX
904CA014016 91505322N        3720001000003833BISHOP                  CALIF XXXXXXXXXXXX
904CA014038D91585565N        3720001000000000UPRR: INYO COUNTY       CALIF XXXXXXXXXXXX
904CA014998D91577650N        3720001000000000HP: INYO COUNTY         CALIF XXXXXXXXXXXX
904CA015009A91578310N        3720001000331316KERN                    CALIF XXXXXXXXXXXX
904CA015015 91502022N        3720001000020902ARVIN                   CALIF XXXXXXXXXXXX
904CA015021C91503000Y        3720001000373887BAKERSFIELD             CALIF XXXXXXXXXXXX
904CA015033 91515546N        3720001000052534DELANO                  CALIF XXXXXXXXXXXX
904CA015047 91537380NCA01500 3720000000001187MARICOPA                CALIF XXXXXXXXXXXX
904CA015055 91538448N        3720001000013848MCFARLAND               CALIF XXXXXXXXXXXX
904CA015064 91552278N        3720001000028989RIDGECREST              CALIF XXXXXXXXXXXX
904CA015075 91556424N        3720001000017690SHAFTER                 CALIF XXXXXXXXXXXX
904CA015086 91560786N        3720001000008819TAFT                    CALIF XXXXXXXXXXXX
904CA015095 91561146N        3720001000012971TEHACHAPI               CALIF XXXXXXXXXXXX
904CA015104 91564800NCA01500 3720000000026461WASCO                   CALIF XXXXXXXXXXXX
904CA015115 91508412N        3720001000013218CALIFORNIA CITY         CALIF XXXXXXXXXXXX
904CA015137 91511136NCA01500 3720000000001970CHINA LAKE              CALIF XXXXXXXXXXXX
904CA015146 91559264N        3720001000002611STALLION SPRINGS        CALIF XXXXXXXXXXXX
904CA015156 91503774N        3720001000005428BEAR VALLEY             CALIF XXXXXXXXXXXX
904CA015169D91578313NCA01522 3720000000000000BNSF RWY: KERN COUNTY   CALIF XXXXXXXXXXXX
904CA015179D91584046NCA01522 3720000000000000SO PACIFIC TRANS KERN   CALIF XXXXXXXXXXXX
904CA015229D91585566N        3720001000000000UPRR: KERN COUNTY       CALIF XXXXXXXXXXXX
904CA015977 91597149N        3720001000000000CA ST UN: BAKERSFIELD   CALIF XXXXXXXXXXXX
904CA015989D91578319NCA01599 3720000000000000KERN STATE POLICE       CALIF XXXXXXXXXXXX
904CA015999D91578316N        3720001000000000HP: KERN COUNTY         CALIF XXXXXXXXXXXX
904CA016009B91578388N        3720001000033663KINGS                   CALIF XXXXXXXXXXXX
904CA016015 91513482Y        3720001000022435CORCORAN                CALIF XXXXXXXXXXXX
904CA016023 91526025Y        3720001000055299HANFORD                 CALIF XXXXXXXXXXXX
904CA016034 91533960N        3720001000025348LEMOORE                 CALIF XXXXXXXXXXXX
